:020000040800F2
:1000000000000220553800080136000807360008B5
:100010000D360008133600081936000800000000ED
:1000200000000000000000000000000081B5000892
:100030001F36000800000000D1B700082D36000868
:10004000A5380008A5380008A5380008A53800081C
:10005000A538000847360008A5380008A53800086C
:10006000A5380008A5380008A5380008553600084E
:10007000A5380008A5380008A5380008A5380008EC
:10008000A5380008A5380008A5380008A5380008DC
:10009000A5380008A5380008A5380008A5380008CC
:1000A000A5380008A5380008A5380008A5380008BC
:1000B000A5380008A538000869360008A5380008EA
:1000C000A5380008A5380008A5380008A53800089C
:1000D000A5380008A5380008A53800087D360008B6
:1000E000A5380008A5380008A5380008A53800087C
:1000F000A5380008A5380008A5380008A53800086C
:10010000A5380008A5380008A5380008A53800085B
:10011000A5380008A5380008A5380008A53800084B
:1001200091360008A5380008A5380008A538000851
:10013000A5380008A5380008A5380008A53800082B
:10014000A5380008A5380008A5380008A53800081B
:10015000A5380008A5380008A5380008A53800080B
:10016000A5380008A5380008A5380008A5380008FB
:10017000A5380008A5380008A538000800000000D0
:08018000A5380008A5380008AD
:1001900010B5054C237833B9044B13B10448AFF3C1
:1001A00000800123237010BDDC010020000000004E
:1001B000A4E6000808B5034B1BB103490348AFF39D
:1001C000008008BD00000000E0010020A4E6000857
:1001D00001F0FF01102A2BDB10F0070F08D010F8F8
:1001E000013B013A8B422DD010F0070F42B3F6D1FC
:1001F000F0B441EA012141EA014122F007047FF015
:1002000000070023F0E80256083C85EA010586EA6B
:10021000010685FA47F5A3FA87F586FA47F6A5FAA7
:1002200087F68EB9EED1F0BC01F0FF0102F00702B3
:1002300032B110F8013B013A83EA010313B1F8D15E
:100240000020704701387047002D06BF354603383F
:10025000073815F0010F07D1013015F4807F02BF78
:10026000013015F4C03F0130F0BC0138704700BFC9
:10027000034613F8012B002AFBD1181A01387047E6
:1002800081F0004102E000BF83F0004330B54FEA47
:1002900041044FEA430594EA050F08BF90EA020FB4
:1002A0001FBF54EA000C55EA020C7FEA645C7FEA47
:1002B000655C00F0E2804FEA5454D4EB5555B8BF6A
:1002C0006D420CDD2C4480EA020281EA030382EADB
:1002D000000083EA010180EA020281EA0303362D6D
:1002E00088BF30BD11F0004F4FEA01314FF4801C40
:1002F0004CEA113102D0404261EB410113F0004F52
:100300004FEA03334CEA133302D0524263EB430308
:1003100094EA050F00F0A780A4F10104D5F1200EA6
:100320000DDB02FA0EFC22FA05F2801841F1000101
:1003300003FA0EF2801843FA05F359410EE0A5F1D5
:1003400020050EF1200E012A03FA0EFC28BF4CF006
:10035000020C43FA05F3C01851EBE37101F00045BC
:1003600007D54FF0000EDCF1000C7EEB00006EEBC9
:100370000101B1F5801F1BD3B1F5001F0CD3490853
:100380005FEA30004FEA3C0C04F101044FEA4452AA
:1003900012F5800F80F09A80BCF1004F08BF5FEA31
:1003A000500C50F1000041EB045141EA050130BD11
:1003B0005FEA4C0C404141EB0101013C28BFB1F523
:1003C000801FE9D291F0000F04BF01460020B1FA6E
:1003D00081F308BF2033A3F10B03B3F120020CDA41
:1003E0000C3208DD02F1140CC2F10C0201FA0CF01F
:1003F00021FA02F10CE002F11402D8BFC2F1200C84
:1004000001FA02F120FA0CFCDCBF41EA0C01904039
:10041000E41AA2BF01EB0451294330BD6FEA040482
:100420001F3C1CDA0C340EDC04F11404C4F120026D
:1004300020FA04F001FA02F340EA030021FA04F37F
:1004400045EA030130BDC4F10C04C4F1200220FAD6
:1004500002F001FA04F340EA0300294630BD21FA14
:1004600004F0294630BD94F0000F83F4801306BFDA
:1004700081F480110134013D4EE77FEA645C18BFCE
:100480007FEA655C29D094EA050F08BF90EA020F65
:1004900005D054EA000C04BF1946104630BD91EA5D
:1004A000030F1EBF0021002030BD5FEA545C05D160
:1004B0004000494128BF41F0004130BD14F580049F
:1004C0003CBF01F5801130BD01F0004545F0FE4113
:1004D00041F470014FF0000030BD7FEA645C1ABF48
:1004E000194610467FEA655C1CBF0B46024650EA7F
:1004F000013406BF52EA033591EA030F41F40021AB
:1005000030BD00BF90F0000F04BF0021704730B530
:100510004FF4806404F132044FF000054FF0000105
:1005200050E700BF90F0000F04BF0021704730B5C6
:100530004FF4806404F1320410F0004548BF40429B
:100540004FF000013EE700BF42004FEAE2014FEAF0
:1005500031014FEA02701FBF12F07F4393F07F4FCB
:1005600081F06051704732F07F4208BF704793F0CE
:100570007F4F04BF41F40021704730B54FF46074E1
:1005800001F0004521F000411CE700BF50EA0102E4
:1005900008BF704730B54FF000050AE050EA01028D
:1005A00008BF704730B511F0004502D5404261EBFD
:1005B00041014FF4806404F132045FEA915C3FF43E
:1005C000D8AE4FF003025FEADC0C18BF03325FEADB
:1005D000DC0C18BF033202EBDC02C2F1200300FA8C
:1005E00003FC20FA02F001FA03FE40EA0E0021FAB1
:1005F00002F11444BDE600BF70B54FF0FF0C4CF49F
:10060000E06C1CEA11541DBF1CEA135594EA0C0F50
:1006100095EA0C0F00F0DEF82C4481EA030621EA8B
:100620004C5123EA4C5350EA013518BF52EA0335C6
:1006300041F4801143F4801338D0A0FB02CE4FF078
:100640000005E1FB02E506F00042E0FB03E54FF0A8
:100650000006E1FB03569CF0000F18BF4EF0010EA0
:10066000A4F1FF04B6F5007F64F5407404D25FEA9C
:100670004E0E6D4146EB060642EAC62141EA55514F
:100680004FEAC52040EA5E504FEACE2EB4F1FD0C91
:1006900088BFBCF5E06F1ED8BEF1004F08BF5FEA0F
:1006A000500E50F1000041EB045170BD06F00046C1
:1006B00046EA010140EA020081EA0301B4EB5C046E
:1006C000C2BFD4EB0C0541EA045170BD41F4801166
:1006D0004FF0000E013C00F3AB8014F1360FDEBF8B
:1006E000002001F0004170BDC4F10004203C35DA67
:1006F0000C341BDC04F11404C4F1200500FA05F3EA
:1007000020FA04F001FA05F240EA020001F000428A
:1007100021F0004110EBD37021FA04F642EB060100
:100720005EEA430E08BF20EAD37070BDC4F10C042A
:10073000C4F1200500FA04F320FA05F001FA04F2EE
:1007400040EA020001F0004110EBD37041F10001DA
:100750005EEA430E08BF20EAD37070BDC4F12005E5
:1007600000FA05F24EEA020E20FA04F301FA05F24D
:1007700043EA020321FA04F001F0004121FA04F2F5
:1007800020EA020000EBD3705EEA430E08BF20EAC5
:10079000D37070BD94F0000F0FD101F000464000FF
:1007A00041EB010111F4801F08BF013CF7D041EA81
:1007B000060195F0000F18BF704703F00046520085
:1007C00043EB030313F4801F08BF013DF7D043EA56
:1007D0000603704794EA0C0F0CEA135518BF95EA0C
:1007E0000C0F0CD050EA410618BF52EA4306D1D193
:1007F00081EA030101F000414FF0000070BD50EAB2
:10080000410606BF1046194652EA430619D094EA3B
:100810000C0F02D150EA013613D195EA0C0F05D125
:1008200052EA03361CBF104619460AD181EA030179
:1008300001F0004141F0FE4141F470014FF0000031
:1008400070BD41F0FE4141F4780170BD70B54FF0CC
:10085000FF0C4CF4E06C1CEA11541DBF1CEA13554C
:1008600094EA0C0F95EA0C0F00F0A7F8A4EB05042E
:1008700081EA030E52EA03354FEA013100F0888025
:100880004FEA03334FF0805545EA131343EA1263EE
:100890004FEA022245EA111545EA10654FEA0026A3
:1008A0000EF000419D4208BF964244F1FD0404F55C
:1008B000407402D25B084FEA3202B61A65EB0305B8
:1008C0005B084FEA32024FF480104FF4002CB6EB75
:1008D000020E75EB030E22BFB61A754640EA0C00F5
:1008E0005B084FEA3202B6EB020E75EB030E22BF35
:1008F000B61A754640EA5C005B084FEA3202B6EB76
:10090000020E75EB030E22BFB61A754640EA9C0034
:100910005B084FEA3202B6EB020E75EB030E22BF04
:10092000B61A754640EADC0055EA060E18D04FEAC2
:10093000051545EA16754FEA06164FEAC30343EA62
:1009400052734FEAC2025FEA1C1CC0D111F4801F2F
:100950000BD141EA00014FF000004FF0004CB6E728
:1009600011F4801F04BF01430020B4F1FD0C88BFC7
:10097000BCF5E06F3FF6AFAEB5EB030C04BFB6EBD2
:10098000020C5FEA500C50F1000041EB045170BDC5
:100990000EF0004E4EEA113114EB5C04C2BFD4EBF2
:1009A0000C0541EA045170BD41F480114FF0000E76
:1009B000013C90E645EA060E8DE60CEA135594EAF2
:1009C0000C0F08BF95EA0C0F3FF43BAF94EA0C0FF5
:1009D0000AD150EA01347FF434AF95EA0C0F7FF46A
:1009E00025AF104619462CE795EA0C0F06D152EABE
:1009F00003353FF4FDAE1046194622E750EA4106A2
:100A000018BF52EA43067FF4C5AE50EA41047FF4B2
:100A10000DAF52EA43057FF4EBAE12E74FF0FF3C17
:100A200006E000BF4FF0010C02E000BF4FF0010CE8
:100A30004DF804CD4FEA410C7FEA6C5C4FEA430C61
:100A400018BF7FEA6C5C1BD001B050EA410C0CBFB0
:100A500052EA430C91EA030F02BF90EA020F002012
:100A6000704710F1000F91EA030F58BF994208BF79
:100A700090422CBFD8176FEAE37040F00100704736
:100A80004FEA410C7FEA6C5C02D150EA013C07D18D
:100A90004FEA430C7FEA6C5CD6D152EA033CD3D0D8
:100AA0005DF8040B704700BF8446104662468C46D2
:100AB0001946634600E000BF01B5FFF7B7FF002805
:100AC00048BF10F1000F01BD4DF808EDFFF7F4FF2E
:100AD0000CBF012000205DF808FB00BF4DF808EDB9
:100AE000FFF7EAFF34BF012000205DF808FB00BFDC
:100AF0004DF808EDFFF7E0FF94BF012000205DF8FE
:100B000008FB00BF4DF808EDFFF7CEFF94BF0120B2
:100B100000205DF808FB00BF4DF808EDFFF7C4FFAB
:100B200034BF012000205DF808FB00BF4FEA410CF4
:100B30007FEA6C5C02D150EA013C0AD14FEA430CD7
:100B40007FEA6C5C02D152EA033C02D14FF0000014
:100B500070474FF0010070474FEA410212F5001252
:100B600015D211D56FF47873B3EB625212D94FEAF4
:100B7000C12343F0004343EA505311F0004F23FADE
:100B800002F018BF404270474FF00000704750EA33
:100B9000013005D111F0004008BF6FF000407047F0
:100BA0004FF00000704700BF4A0011D212F500124A
:100BB00011D20DD56FF47873B3EB62520ED44FEAB5
:100BC000C12343F0004343EA505323FA02F0704735
:100BD0004FF00000704750EA013002D14FF0FF3073
:100BE00070474FF0000070474FEA4102B2F1E04316
:100BF00024BFB3F5001CDCF1FE5C0DD901F0004C04
:100C00004FEAC0024CEA5070B2F1004F40EB830053
:100C100008BF20F00100704711F0804F21D113F17F
:100C20003872BCBF01F00040704741F480114FEAB8
:100C30005252C2F11802C2F1200C10FA0CF320FA41
:100C400002F018BF40F001004FEAC1234FEAD3235E
:100C500003FA0CFC40EA0C0023FA02F34FEA4303C8
:100C6000CCE77FEA625307D150EA01331EBF4FF051
:100C7000FE4040F44000704701F0004040F0FE406C
:100C800040F40000704700BF53B94AB9002908BFBB
:100C900000281CBF4FF0FF314FF0FF3000F070B95B
:100CA000ADF1080C6DE904CE00F006F8DDF804E0C3
:100CB000DDE9022304B070472DE9F047089E0D4698
:100CC00004460F46002B4AD18A42944665D9B2FAAF
:100CD00082F343B102FA03FCC3F120029F4020FAE1
:100CE00002F217439C404FEA1C4E1FFA8CF5B7FBEB
:100CF000FEF1220C0EFB117742EA074201FB05F0E0
:100D000090420AD91CEB020201F1FF3780F01C81EE
:100D1000904240F2198102396244121AA4B2B2FB25
:100D2000FEF00EFB102244EA024400FB05F5A5424A
:100D30000AD91CEB040400F1FF3280F00781A542C0
:100D400040F204816444023840EA0140641B0021FF
:100D50001EB1DC400023C6E90043BDE8F0878B42AA
:100D600008D9002E00F0ED800021C6E900050846F4
:100D7000BDE8F087B3FA83F1002949D1AB4202D331
:100D8000824200F2F880841A65EB030201201746C4
:100D9000002EE2D0C6E90047DFE702B9FFDEB2FA73
:100DA00082F3002B40F090808A1A4FEA1C471FFA0A
:100DB0008CFE0121B2FBF7F507FB1520220C42EA5D
:100DC00000420EFB05F0904208D91CEB020205F12F
:100DD000FF3802D2904200F2CB804546121AA4B2EC
:100DE000B2FBF7F007FB102244EA02440EFB00FEC0
:100DF000A64508D91CEB040400F1FF3202D2A64537
:100E000000F2BB801046A4EB0E0440EA05409FE7C9
:100E1000C1F120078B4022FA07FC4CEA030C05FACB
:100E200001F420FA07F3FD404FEA1C492343B5FBC8
:100E3000F9F81FFA8CFE09FB18551C0C44EA05440E
:100E400008FB0EF5A54202FA01F200FA01F00BD9F7
:100E50001CEB040408F1FF3A80F08880A54240F2C0
:100E60008580A8F102086444641B9DB2B4FBF9F3C9
:100E700009FB134445EA044403FB0EFEA64508D9CA
:100E80001CEB040403F1FF356CD2A6456AD9023B82
:100E9000644443EA0843A3FB0295A4EB0E04AC426E
:100EA000C846AE4656D353D056B1B0EB080264EBF9
:100EB0000E0404FA07F7CA40CC401743C6E9007491
:100EC00018460021BDE8F087C3F1200102FA03FCB7
:100ED00020FA01F225FA01F19D402A434FEA1C470E
:100EE0001FFA8CFEB1FBF7F007FB1015110C41EA5D
:100EF000054100FB0EF58D4204FA03F408D91CEB02
:100F0000010100F1FF382FD28D422DD90238614402
:100F1000491B92B2B1FBF7F507FB151142EA0142FA
:100F200005FB0EF1914208D91CEB020205F1FF38D6
:100F300016D2914214D9023D6244521A45EA004148
:100F400038E73146304608E73946E6E61046FBE624
:100F50004845A9D2B9EB020865EB0C0E013BA3E7AB
:100F60004546EAE72B4694E74046D1E7D0467BE783
:100F7000023D624432E708460AE76444023842E729
:100F8000704700BF80B500AF02F08EFC00F058F84B
:100F900000F02EFC00F0F6FB00F020FB00F0ECF976
:100FA00000F03EFA00F066F900F0E2FA00F0C0FB53
:100FB00000F004F900F030F900F086FA00F09EF835
:100FC00001F044FF08F05EF9114A0021114808F0D1
:100FD000A3F90346104A1360104A0021104808F094
:100FE0009BF903460F4A13600F4A00210F4808F08F
:100FF00093F903460E4A13600E4A00210E4808F08A
:101000008BF903460D4A136008F060F9FEE700BF54
:1010100034E7000841260008B005002058E7000822
:1010200051260008B40500207CE700081D2A0008AE
:10103000B8050020A0E70008512B0008BC050020DF
:1010400080B594B000AF07F120033022002118468C
:101050000BF0D7FB07F10C0300221A605A609A606C
:10106000DA601A610023BB60224B1B6C214A43F0FB
:10107000805313641F4B1B6C03F08053BB60BB6831
:1010800000237B601C4B1B681B4A43F480431360A6
:10109000194B1B6803F480437B607B6802233B622F
:1010A0000123FB6210233B630023BB6307F1200392
:1010B000184605F07DF80346002B01D001F018FE1C
:1010C0000F23FB6000233B6100237B610023BB6196
:1010D0000023FB6107F10C030021184605F0E0FA3C
:1010E0000346002B01D001F003FE00BF5037BD4680
:1010F00080BD00BF003802400070004080B584B061
:1011000000AF3B4600221A605A609A60DA60284BB2
:10111000284A1A60264B00225A60254B00229A600A
:10112000234B01221A61224B01221A76204B002206
:1011300083F820201E4B0022DA621D4B1E4A9A6261
:101140001B4B0022DA601A4B0222DA61184B002294
:1011500083F83020164B01225A61154802F03AFC00
:101160000346002B01D001F0C3FD0B233B6001239C
:101170007B600023BB603B4619460D4802F06EFCC5
:101180000346002B01D001F0B3FD0C233B6002238A
:101190007B603B461946064802F060FC0346002B84
:1011A00001D001F0A5FD00BF1037BD4680BD00BFD6
:1011B00060020020002001400100000F80B500AF58
:1011C000124B134A1A60114B124A5A600F4B0022FD
:1011D0009A600E4B0022DA600C4B4FF480421A6189
:1011E0000A4B00225A61094B00229A61074B0022E8
:1011F000DA61064B00221A62044803F023FD03461D
:10120000002B01D001F074FD00BF80BD0C02002056
:1012100000540040801A060080B500AF124B134AFC
:101220001A60114B124A5A600F4B00229A600E4B03
:101230000022DA600C4B4FF480421A610A4B002204
:101240005A61094B00229A61074B0022DA61064B72
:1012500000221A62044803F0F5FC0346002B01D07B
:1012600001F046FD00BF80BD08030020005800408B
:10127000A086010080B592B000AF07F140030022C4
:101280001A605A6007F1240300221A605A609A60BB
:10129000DA601A615A619A613B1D202200211846CA
:1012A0000BF0AFFA324B334A1A60314BA0225A602E
:1012B0002F4B00229A602E4B4FF6FF72DA602C4BB8
:1012C00000221A612A4B00225A61294B00229A619E
:1012D000274805F014FC0346002B01D001F008FD5F
:1012E00000233B6400237B6407F140031946204838
:1012F00006F03AFE0346002B01D001F0F9FC602312
:101300007B620023BB620023FB6200237B6300231C
:10131000BB630023FB6307F124030C221946144826
:1013200006F02CF80346002B01D001F0E1FC00236D
:101330007B600023BB600023FB6000233B61002334
:101340007B614FF40053BB6100233B623B1D194698
:10135000074806F085FE0346002B01D001F0C8FCCB
:10136000034802F0C3F800BF4837BD4680BD00BF48
:10137000BC0300200000014080B58CB000AF07F135
:101380000C032422002118460BF03BFA3B1D0022DF
:101390001A605A60214B4FF080421A601F4B0022A6
:1013A0005A601E4B00229A601C4B4FF6FF72DA60A7
:1013B0001A4B00221A61194B00229A610323FB6029
:1013C00000233B6101237B610023BB610A23FB6196
:1013D00000233B6201237B620023BB620A23FB6282
:1013E00007F10C0319460D4805F0EFFC0346002BEE
:1013F00001D001F07DFC00237B600023BB603B1D1E
:101400001946064806F0B0FD0346002B01D001F056
:101410006FFC00BF3037BD4680BD00BF0404002014
:1014200080B58CB000AF07F10C03242200211846D0
:101430000BF0E7F93B1D00221A605A60204B214A4D
:101440001A601F4B00225A601D4B00229A601C4BF1
:101450004FF6FF72DA601A4B00221A61184B002215
:101460009A610323FB6000233B6101237B6100231E
:10147000BB610A23FB6100233B6201237B620023E3
:10148000BB620A23FB6207F10C0319460C4805F006
:101490009CFC0346002B01D001F02AFC00237B605A
:1014A0000023BB603B1D1946054806F05DFD034661
:1014B000002B01D001F01CFC00BF3037BD4680BDC1
:1014C0004C0400200004004080B586B000AF07F156
:1014D000100300221A605A603B4600221A605A60CC
:1014E0009A60DA60204B214A1A601F4B47225A60EB
:1014F0001D4B00229A601C4B4FF6FF72DA601A4BAC
:1015000000221A61184B00229A61174805F00EFC60
:101510000346002B01D001F0EBFB00233B610023CD
:101520007B6107F1100319460F4806F01DFD0346C5
:10153000002B01D001F0DCFB00233B6001237B602A
:101540000023BB600023FB603B460022194606488F
:1015500005F077FE0346002B01D001F0C9FB00BF68
:101560001837BD4680BD00BF94040020000800402D
:1015700080B582B000AF3B4600221A605A60154B1E
:10158000154A1A60134B00225A60124B00229A60CF
:10159000104B4FF6FF72DA600E4B00229A610D4835
:1015A00005F05EFA0346002B01D001F0A1FB0023F9
:1015B0003B6000237B603B461946064806F0D4FC9E
:1015C0000346002B01D001F093FB00BF0837BD4656
:1015D00080BD00BFDC0400200010004080B596B044
:1015E00000AF07F1480300221A605A609A60DA607F
:1015F00007F1400300221A605A6007F12403002219
:101600001A605A609A60DA601A615A619A613B1DE9
:101610002022002118460BF0F4F8434B434A1A608D
:10162000414B00225A60404B00229A603E4B41F6EB
:101630001F42DA603C4B00221A613B4B00225A6188
:10164000394B00229A61384805F00AFA0346002B0C
:1016500001D001F04DFB4FF48053BB6407F1480308
:101660001946314805F04CFF0346002B01D001F02C
:101670003FFB2D4805F043FA0346002B01D001F053
:1016800037FB00233B6400237B6407F140031946CA
:10169000254806F069FC0346002B01D001F028FB29
:1016A00060237B620023BB620023FB6200233B6359
:1016B00000237B630023BB630023FB6307F1240348
:1016C00000221946184805F059FE0346002B01D0A8
:1016D00001F00EFB07F1240304221946124805F01D
:1016E0004DFE0346002B01D001F002FB00237B607E
:1016F0000023BB600023FB6000233B6100237B6170
:101700004FF40053BB6100233B623B1D1946064862
:1017100006F0A6FC0346002B01D001F0E9FA00BF59
:101720005837BD4680BD00BF24050020000401409D
:1017300080B500AF114B124A1A60104B4FF4E132E2
:101740005A600E4B00229A600C4B0022DA600B4B61
:1017500000221A61094B0C225A61084B00229A613F
:10176000064B0022DA61054806F0E0FC0346002B38
:1017700001D001F0BDFA00BF80BD00BF6C050020A4
:101780000048004080B582B000AF00237B60174B5B
:101790001B6B164A43F400131363144B1B6B03F4C7
:1017A00000137B607B6800233B60104B1B6B0F4A70
:1017B00043F4800313630D4B1B6B03F480033B6006
:1017C0003B68002205210B2002F041FC0B2002F0B7
:1017D0005AFC00220521382002F039FC382002F0A2
:1017E00052FC00BF0837BD4680BD00BF0038024034
:1017F00080B58CB000AF07F11C0300221A605A605C
:101800009A60DA601A610023BB615A4B1B6B594A1C
:1018100043F010031363574B1B6B03F01003BB61C2
:10182000BB6900237B61534B1B6B524A43F080031F
:101830001363504B1B6B03F080037B617B690023B8
:101840003B614C4B1B6B4B4A43F004031363494B06
:101850001B6B03F004033B613B690023FB60454BBA
:101860001B6B444A43F001031363424B1B6B03F0B1
:101870000103FB60FB680023BB603E4B1B6B3D4AD2
:1018800043F0020313633B4B1B6B03F00203BB608B
:10189000BB6800237B60374B1B6B364A43F0080361
:1018A0001363344B1B6B03F008037B607B680022DF
:1018B0004FF4BC61304803F0ABF900223C212F48C3
:1018C00003F0A6F900224FF400512D4803F0A0F9CF
:1018D000002210212B4803F09BF94FF4BC63FB61FD
:1018E00001233B6200237B620023BB6207F11C03E0
:1018F0001946214802F0F0FF3C23FB6101233B62C3
:1019000000237B620223BB6207F11C0319461B48BC
:1019100002F0E2FF4FF40073FB614FF488133B6267
:1019200000237B6207F11C031946134802F0D4FF21
:101930004FF40053FB6101233B6200237B620023D1
:10194000BB6207F11C0319460D4802F0C5FF1023C6
:10195000FB6101233B6200237B620023BB6207F132
:101960001C031946074802F0B7FF00BF3037BD46D9
:1019700080BD00BF0038024000100240000002405D
:10198000000C02400004024080B582B000AF7860D5
:101990007B681B68194A93422CD1194B1A78194B52
:1019A0001A70174B5A78184B1A70154B9B781A46B9
:1019B000920013441A4691001A460B4613449B00AA
:1019C000DAB20F4BDB78194689000B445B00DBB2BF
:1019D0001344DAB20A4B1B791344DBB23033DAB268
:1019E0000A4B1A700A4B01221A7005220449094851
:1019F00006F07BFC00BF0837BD4680BD00480040B4
:101A0000C0050020F8010020F9010020FA010020A3
:101A1000FB0100206C05002090B58DB000AFF86090
:101A2000B9607A604D4B07F118040FCB07C42380CF
:101A300002341B0C237007F1270300221A601A716D
:101A4000FB68BA681A60FB687A685A6007F1170386
:101A50001A460021F86800F085F803461A46404B04
:101A60001A7000227F21F86800F09EF803461A469B
:101A70003B4B1A7020220321F86800F095F80346CA
:101A80001A46374B1A7009220621F86800F08CF8C4
:101A900003461A46324B1A703E220721F86800F0BE
:101AA00083F803461A462E4B1A7040220521F86827
:101AB00000F07AF803461A46294B1A7000220321D7
:101AC000F86800F071F803461A46254B1A70202278
:101AD0007F21F86800F068F803461A46204B1A7018
:101AE00039220121F86800F05FF803461A461C4BC2
:101AF0001A7000220221F86800F056F803461A46D0
:101B0000174B1A7039221421F86800F04DF803467B
:101B10001A46134B1A7000221521F86800F044F899
:101B200003461A460E4B1A7008220021F86800F08E
:101B30003BF803461A460A4B1A7000227F21F868C8
:101B400000F032F803461A46054B1A700A2001F0DD
:101B50001DFF002318463437BD4690BD04E700083A
:101B6000C505002080B588B004AFF8600B467A60E8
:101B7000FB72FB681868FB7A9AB24FF0FF3302934E
:101B8000012301937B6800930123D02103F098FA8D
:101B900003461A46034B1A70024B1B78184610373F
:101BA000BD4680BDC505002080B588B004AF786013
:101BB0000B46FB701346BB70BB78FB737B681868E1
:101BC000FB789AB24FF0FF3302930123019307F1A0
:101BD0000F0300930123D02103F078F90346184640
:101BE0001037BD4680BD000080B483B000AF786080
:101BF0007B681B68054A934202D1054B02221A708A
:101C000000BF0C37BD465DF8047B704700540040B0
:101C1000CC0500200000000080B586B000AF87ED45
:101C2000010A38607B68FB60774B1B685A221A6494
:101C3000764B00221A60764B00221A6000237B61EB
:101C400000233B614FF4487001F0A0FE4FF4487050
:101C500007F0F4FB3B68002B59D14FF42F633B6135
:101C60004FF496737B61002208216A4802F0D0FF8E
:101C700001220421674802F0CBFF002210216548B1
:101C800002F0C6FF01222021624802F0C1FF624B30
:101C90001B683A695A63604B1B687A699A630A2029
:101CA00007F0CCFBF868FEF74FFC51A3D3E9002303
:101CB000FEF7A2FC02460B46104619464EA3D3E996
:101CC0000023FEF799FC02460B4610461946FEF724
:101CD00043FF02464E4B1B689A4204DC4FF47A7372
:101CE0003B6100237B61F868FEF72EFC40A3D3E93B
:101CF0000023FEF781FC02460B4610461946FEF70C
:101D00002BFF0246424B1B689A425DDDBFE73B68F2
:101D1000012B5CD140F628233B614FF496737B6125
:101D2000012208213B4802F073FF002204213948B8
:101D300002F06EFF01221021364802F069FF0022F6
:101D40002021344802F064FF334B1B683A695A6320
:101D5000314B1B687A699A630A2007F06FFBF868B9
:101D6000FEF7F2FB26A3D3E90023FEF745FC02466B
:101D70000B461046194620A3D3E90023FEF73CFC8E
:101D800002460B4610461946FEF7E6FE0246204B79
:101D90001B689A4204DC4FF47A733B6100237B6139
:101DA000F868FEF7D1FB16A3D3E90023FEF724FC65
:101DB00002460B4610461946FEF7CEFE0246144B6D
:101DC0001B689A4202DDBFE700BF00E000BF0E4B78
:101DD0001B688F221A64104B1B6800225A630E4B3B
:101DE0001B6800229A6300BF1837BD4680BD00BF44
:101DF000B81E85EB51383740CDCCCCCCCCCCEC3FA9
:101E000052B81E85EB913440BC030020D40500205D
:101E1000D80500200000024024050020000000003A
:101E200080B58AB000AF87ED010A38607B687B61BE
:101E3000754B00221A60754B00221A6000233B612B
:101E40000023FB60724B1B68D2221A644FF4487067
:101E500001F09CFD4FF4487007F0F0FA3B68002B4E
:101E600059D14FF42F637B624FF496733B6200228B
:101E70000821684802F0CCFE01220421654802F0E6
:101E8000C7FE00221021634802F0C2FE0122202179
:101E9000604802F0BDFE604B1B683A6A5A635E4BB5
:101EA0001B687A6A9A630A2007F0C8FA7869FEF715
:101EB0004BFB4FF00002594BFEF79EFB02460B46D0
:101EC000104619464CA3D3E90023FEF795FB0246C2
:101ED0000B4610461946FEF73FFE02464A4B1B686A
:101EE0009A4204DC00233B624FF461737B627869A1
:101EF000FEF72AFB4FF00002484BFEF77DFB02463F
:101F00000B4610461946FEF727FE02463E4B1B685D
:101F10009A425DDDBFE73B68012B5CD140F6282388
:101F2000FB614FF49673BB6101220821394802F02E
:101F30006FFE00220421374802F06AFE01221021C0
:101F4000344802F065FE00222021324802F060FE93
:101F5000314B1B68BA695A632F4B1B68FA699A6345
:101F60000A2007F06BFA7869FEF7EEFA24A3D3E9AA
:101F70000023FEF741FB02460B46104619461EA3FE
:101F8000D3E90023FEF738FB02460B4610461946FC
:101F9000FEF7E2FD02461C4B1B689A4204DC00235C
:101FA000BB614FF46173FB617868FEF7CDFA14A34F
:101FB000D3E90023FEF720FB02460B4610461946E4
:101FC000FEF7CAFD0246104B1B689A4202DDBFE7CE
:101FD00000BF00E000BF0E4B1B6882221A640E4B4C
:101FE0001B6800225A630C4B1B6800229A6300BFD7
:101FF0002837BD4680BD00BFCDCCCCCCCCCCEC3F8F
:10200000E17A14AE47E13540D4050020D805002020
:10201000BC030020000002402405002000403640A0
:10202000B0B58EB000AF7860A34B1B688B221A64EA
:1020300000233B63A14B7B63A14B00221A60A14BA1
:1020400000221A60A04BD3ED007AFDEEE77A17EE7E
:10205000903AFB629A4B1A689A4B1B68D31ABB6280
:102060007868FEF75FFA4FF00002984BFEF7EEFB40
:1020700002460B461046194683A3D3E90023FEF718
:10208000BBFA02460B4610461946FEF765FD0346AD
:102090007B627B680A2B22DC8D4B1B78DBB2732BB7
:1020A0001DD18C4B40F232521A608B4B40F2FB42F6
:1020B0001A608A4B1B6840F2FB425A63874B1B68CD
:1020C00040F232529A637F4B1B685B007A6A9A42F5
:1020D00000DBE6E700BF824B8B221A8058E27B6868
:1020E0000A2B22DC7A4B1B78DBB2772B1DD1794B84
:1020F00040F2EC421A60784B40F2EC421A60774BA7
:102100001B6840F2EC425A63744B1B6840F2EC428D
:102110009A636C4B1B685B007A6A9A4200DBE6E7C5
:1021200000BF6F4B8B221A8032E2674BD3ED007AEF
:10213000FB6A07EE103AB8EEC77AF0EE470AB0EE47
:10214000670A00F04DFA87ED080A614B1B78DBB295
:10215000772B18D1386AFEF7F7F94DA3D3E900239E
:10216000FEF74AFA02460B46104619464AA3D3E93F
:102170000023FEF78BF802460B4610461946FEF781
:1021800013FD034615E0386AFEF7DEF940A3D3E9F4
:102190000023FEF731FA02460B463FA1D1E90001C8
:1021A000FEF772F802460B4610461946FEF7FCFC95
:1021B0000346414A12681364454B1B78DBB2772B08
:1021C00059D1404B1B685B007A6AD41A7B6A07EED0
:1021D000903AF8EEE77A17EE900AFEF7B5F930A3D9
:1021E000D3E90023FEF708FA02460B4610461946CB
:1021F000FEF7B2FC03469C423DDD786BFEF7A4F986
:1022000029A3D3E90023FEF769FC0346002B0FD076
:10221000786BFEF799F926A3D3E90023FEF736F889
:1022200002460B4610461946FEF7DEFC03467B636A
:10223000D7ED0D7A9FED2B7A67EE877AFDEEE77A80
:1022400017EE902A234B1A60D7ED0D7A9FED267A70
:1022500067EE877AFDEEE77A17EE902A1E4B1A603A
:102260001D4B1A681D4B1B685A631A4B1A681B4B8F
:102270001B689A63ACE0164B1B78DBB2772B40F0FF
:10228000A7809DE0AFF30080000000000038984078
:1022900014AE47E17A14F03F000000000060614096
:1022A000333333333333D33FCDCCCCCCCCCCF83FEA
:1022B000613255302AA9333FBC030020CDCCCC3D40
:1022C000D4050020D8050020C805002000003540B6
:1022D000F8010020DC050020E00500202405002096
:1022E0000000002000005C4500305E45B24B1B68DA
:1022F0005B007A6AD31A07EE903AF8EEE77A17EEA7
:10230000900AFEF721F9A4A3D3E90023FEF774F99C
:1023100002460B4614461D467B6A07EE903AF8EEDD
:10232000E77A17EE900AFEF70FF902460B462046B1
:102330002946FEF78BFA02460B4610461946FEF771
:1023400053FC03467B63D7ED0D7A9FED9C7A67EED5
:10235000877A17EE900AFEF7F7F84FF00002984BD5
:10236000FDF794FF02460B4610461946FEF7F4FBB4
:102370000346944A1360D7ED0D7A9FED937A67EE8A
:10238000877A17EE900AFEF7DFF84FF000028C4BC9
:10239000FDF77CFF02460B4610461946FEF7DCFBB4
:1023A00003468A4A1360894B1A68894B1B685A6333
:1023B000844B1A68864B1B689A63322007F03EF8FC
:1023C0007D4B1B685A007B6ADE3B9A428EDBDBE06A
:1023D000804B1B78DBB2732B59D1774B1B685B00AA
:1023E0007A6AD41A7B6A07EE903AF8EEE77A17EE2B
:1023F000900AFEF7A9F86AA3D3E90023FEF7FCF8D8
:1024000002460B4610461946FEF7A6FB03469C42C1
:102410003DDD786BFEF798F863A3D3E90023FEF760
:102420005DFB0346002B0FD0786BFEF78DF860A3A1
:10243000D3E90023FDF72AFF02460B461046194652
:10244000FEF7D2FB03467B63D7ED0D7A9FED5B7AF7
:1024500067EE877AFDEEE77A17EE902A594B1A60FD
:10246000D7ED0D7A9FED5C7A67EE877AFDEEE77A1D
:1024700017EE902A554B1A60544B1A68544B1B6840
:102480005A63504B1A68524B1B689A637BE0514B5E
:102490001B78DBB2732B7FF448AE6CE0464B1B68B5
:1024A0005B007A6AD31A07EE903AF8EEE77A17EEF5
:1024B000900AFEF749F838A3D3E90023FEF79CF809
:1024C00002460B4614461D467B6A07EE903AF8EE2C
:1024D000E77A17EE900AFEF737F802460B462046D9
:1024E0002946FEF7B3F902460B4610461946FEF799
:1024F0007BFB03467B63D7ED0D7A9FED307A67EE69
:10250000877A17EE900AFEF71FF84FF000022C4B67
:10251000FDF7BCFE02460B4610461946FEF71CFBB3
:102520000346284A1360D7ED0D7A9FED2B7A67EEAC
:10253000877A17EE900AFEF707F84FF00002204B5B
:10254000FDF7A4FE02460B4610461946FEF704FBB3
:1025500003461E4A13601D4B1A681D4B1B685A63C5
:10256000184B1A681A4B1B689A63322006F066FFF4
:10257000114B1B683B63104B1B685A007B6ADE3BA8
:102580009A428BDB00E0D0E5144B8B221A8000BF0F
:102590003837BD46B0BD00BF9A9999999999E93FDE
:1025A000333333333333D33FCDCCCCCCCCCCF83FE7
:1025B000613255302AA9333FD805002000005C4520
:1025C00000208C40DC05002000305E45E005002046
:1025D00024050020F801002000E05D4500000020F7
:1025E00080B588B000AF87ED010AC7ED000A97ED0E
:1025F000017AD7ED007A77EE677AC7ED077AD7EDE3
:10260000077AF0EEE77A17EE900AFDF79DFF0AA32E
:10261000D3E90023FEF762FA0346002B02D04FF005
:102620000003FB61FB6907EE903AB0EE670A2037C2
:10263000BD4680BDAFF300809A9999999999A93FB9
:1026400080B582B000AF7860012006F0F7FEFBE7AE
:1026500080B58EB000AF78600C21B34804F09EFACC
:102660000021B24804F09AFA0421B04804F096FA26
:10267000AD4B1B688B221A644FF4FA737B630522FF
:10268000AB49AC4805F031FEA84B1B687A6B5A6326
:10269000A64B1B687A6B9A63A64AA749A748FFF71F
:1026A000BBF93863A64B1B78DBB2002B00F0A68188
:1026B000A44B00221A60A44B00221A60A04B0022F7
:1026C0001A70A24B1B78DBB2623B152B00F284819F
:1026D00001A252F823F000BF69290008D929000897
:1026E000D9290008D9290008B7280008D9290008E5
:1026F000D9290008D9290008D9290008D9290008B2
:10270000D9290008D9290008D9290008D9290008A1
:10271000D9290008D9290008D9290008312700083B
:102720007D280008D9290008D9290008D7270008E2
:10273000874B1B78DBB2782B40F057817A4B1B68B4
:102740008B221A644FF4FA7006F078FE01220821F9
:10275000804802F05DFA002204217E4802F058FA17
:10276000012210217B4802F053FA002220217948EF
:1027700002F04EFA784B40F27B121A60774B40F22F
:1027800061121A60694B1B6840F261125A63674B11
:102790001B6840F27B129A63714B1B78DBB21846C0
:1027A000FFF73EFC614B1B6800225A635F4B1B68BE
:1027B00000229A63684B00221A60684B00221A605C
:1027C0004FF0FF33032267495A4805F0FCFC6420B0
:1027D00001F0DCF812E15E4B1B78DBB2782B40F0A5
:1027E0000681514B1B688B221A644FF4FA7006F075
:1027F00025FE00220821574802F00AFA012204218E
:10280000544802F005FA00221021524802F000FA62
:10281000012220214F4802F0FBF94F4B4FF4AF72D9
:102820001A604E4B40F265121A604C4B1A683F4BCF
:102830001B685A63484B1A683C4B1B689A63484BA9
:102840001B78DBB21846FFF7EBFB384B1B68002206
:102850005A63364B1B6800229A633F4B00221A6072
:102860003E4B00221A604FF0FF3303223D493148AE
:1028700005F0A9FC642001F089F8BFE02A4B1B6831
:102880008B221A644FF4FA7006F0D8FD304B1B7897
:10289000DBB2612B04D1244B1B685A221A64A8E0D6
:1028A0002B4B1B78DBB2642B40F0A3801E4B1B68C4
:1028B000D2221A649DE0264B1B78DBB2612B16D125
:1028C000274B1B78DBB207EE903AF8EE677A0020D0
:1028D000B0EE670AFFF7A0F94FF0FF33032221495A
:1028E000144805F070FC642001F050F883E0184BA8
:1028F0001B78DBB2642B7ED1194B1B78DBB207EE61
:10290000903AF8EE677A0020B0EE670AFFF788FA8F
:102910004FF0FF3303221349064805F054FC6420AE
:1029200001F034F867E000BFBC030020240500205C
:10293000C00500206C0500200C020020FC010020D6
:10294000FB010020D4050020D8050020F80100205C
:10295000F901002000000240DC050020E005002015
:10296000FA01002018E70008274B1B78DBB2612B27
:1029700016D1264B1B78DBB207EE903AF8EE677A59
:102980000120B0EE670AFFF747F94FF0FF3303224B
:102990001F49204805F017FC642000F0F7FF2CE0E9
:1029A000194B1B78DBB2642B27D1184B1B78DBB299
:1029B00007EE903AF8EE677A0120B0EE670AFFF76B
:1029C0002FFA4FF0FF3303221149124805F0FBFBA9
:1029D000642000F0DBFF10E00F4B1B6800225A63FD
:1029E0000D4B1B6800229A6308E000BF06E000BFA1
:1029F00004E000BF02E000BF00E000BF4FF47A70C7
:102A000006F01CFD4EE600BFF9010020FA0100208F
:102A100018E700086C05002024050020B0B586B03A
:102A200000AF78603C21444804F075FA3C214348EB
:102A300004F071FA00233B610023FB603E4B1B68EE
:102A400000225A623D4B1B6800225A6200F092FF3E
:102A5000786100F08FFF02467B69D31A052BF8D905
:102A6000354B1B685B6A3B61334B1B6800225A6223
:102A70003B69B3F5FA4F21DD314B1B681846FDF772
:102A800051FD04460D463B69C3F580331846FDF7FA
:102A900049FD4FF000022B4BFDF7AEFD02460B4601
:102AA00020462946FDF7F2FB02460B461046194622
:102AB000FEF752F80346224A13601DE0204B1B68C4
:102AC0001846FDF72FFD04460D463869FDF72AFD2F
:102AD0004FF000021B4BFDF78FFD02460B462046D0
:102AE0002946FDF7D3FB02460B4610461946FEF772
:102AF00033F80346124A1360104B1B685B6AFB6095
:102B00000E4B1B6800225A62FB68B3F5FA4F08DDD2
:102B1000FB68C3F580320C4B1B6813440A4A1360F0
:102B200005E0094B1A68FB681344074A136000F07C
:102B300021FF78618DE700BF040400204C040020D1
:102B4000D80500200000E03FD40500200000000070
:102B50002DE9B0432DED028B8AB002AF786000F012
:102B600009FF0346564A1360564B1B78DBB2002B15
:102B700015D1554B186802230193544B0093012340
:102B80003722D02102F0C2FC03461A46504B1A707D
:102B90004F4B1B78002B02D14A4B02221A70494B33
:102BA0001B78DBB2022BDFD100F0E4FE0346494A7A
:102BB0001360484B1A68424B1B68D31A464A13608D
:102BC000424B1B781B021AB2404B5B781BB213437B
:102BD0001AB2424B1A80424B1B681846FDF7B4FCF0
:102BE00004460D463C4B1B681846FDF78BFC80469F
:102BF00089463A4BB3F900301846FDF793FC4FF085
:102C00000002384BFDF740FB02460B464046494662
:102C1000FDF7F2FC02460B461046194626A3D3E9FF
:102C20000023FDF713FE02460B4610461946FDF73A
:102C3000DBFF03461846FDF787FC4FF000022A4BE6
:102C4000FDF704FE02460B4620462946FDF71EFB13
:102C500002460B4610461946FDF7C6FF0346204ABA
:102C600013601F4B93ED008A1B4B1B681846FDF742
:102C700049FC4FF033321D4BFDF7BEFC02460B46BC
:102C8000104619464FF00002174BFDF7DFFD0246D4
:102C90000B4610461946FDF7A7FF07EE900A78EE9F
:102CA000677A0F4BC3ED007A064B00221A70094B6E
:102CB0001B68034A136057E7000000000060604093
:102CC000E8050020CC050020FC010020D0050020F4
:102CD000C5050020E4050020EC050020F0050020DB
:102CE000C805002000006E4000408F403333B33FE2
:102CF00080B400AF72B600BFFEE7000080B582B0BE
:102D000000AF0023FB7126E0FB79503BDBB20021D2
:102D1000184600F02BF80021002000F027F80021D1
:102D2000102000F023F80023BB710DE0BA79FB7985
:102D30000D49D2000A4413441B780121184600F0C3
:102D400015F8BB790133BB7197F90630002BEDDA2A
:102D5000FB790133FB71FB79072BD5D900BF00BF8D
:102D60000837BD4680BD00BFF405002080B584B0A3
:102D700000AF03460A46FB711346BB71BB79002BBB
:102D800006D001224FF480711C4801F041FF05E09C
:102D900000224FF48071194801F03AFF0023FB73C1
:102DA0001EE000222021154801F032FF97F907307C
:102DB000002B05DA01224021104801F029FF04E030
:102DC000002240210D4801F023FF012220210B4861
:102DD00001F01EFFFB795B00FB71FB7B0133FB7392
:102DE000FB7B072BDDD901224FF48071034801F0F2
:102DF0000FFF00BF1037BD4680BD00BF001002406E
:102E000080B582B000AF0023FB7114E00023BB71DA
:102E10000AE0BA79FB790C49D2000A441344002233
:102E20001A70BB790133BB7197F90630002BF0DAC9
:102E3000FB790133FB71FB79072BE7D9FFF75EFFC5
:102E400000BF0837BD4680BDF405002080B500AF47
:102E500003F086F9414B1B6F404A23F001031367CF
:102E60003E4B1B6F3D4A23F00403136703F08CF9BC
:102E7000002280213A4801F0CBFE642000F086FD5C
:102E800001228021364801F0C3FE0021AE20FFF769
:102E90006DFF0021D520FFF769FF00215020FFF7CB
:102EA00065FF0021A820FFF761FF00213F20FFF709
:102EB0005DFF0021D320FFF759FF00210020FFF71D
:102EC00055FF00214020FFF751FF00218D20FFF723
:102ED0004DFF00211420FFF749FF00212020FFF7BC
:102EE00045FF00210220FFF741FF0021A120FFF74D
:102EF0003DFF0021C020FFF739FF0021DA20FFF756
:102F000035FF00211220FFF731FF00218120FFF75C
:102F10002DFF0021EF20FFF729FF0021D920FFF727
:102F200025FF0021F120FFF721FF0021DB20FFF723
:102F30001DFF00213020FFF719FF0021A420FFF71B
:102F400015FF0021A620FFF711FF0021AF20FFF79A
:102F50000DFFFFF755FF00BF80BD00BF00380240E6
:102F60000010024080B582B000AF00237B60164B9A
:102F70005B6C154A43F480435364134B5B6C03F45E
:102F800080437B607B6800233B600F4B1B6C0E4AC9
:102F900043F0805313640C4B1B6C03F080533B6075
:102FA0003B6800220F216FF0010001F050F8002271
:102FB0000521052001F04BF8052001F064F800BF61
:102FC0000837BD4680BD00BF0038024080B58AB0DA
:102FD00000AF786007F1140300221A605A609A600B
:102FE000DA601A617B681B682E4A934256D100232F
:102FF0003B612D4B5B6C2C4A43F4807353642A4B2A
:103000005B6C03F480733B613B690023FB60264BE0
:103010001B6B254A43F004031363234B1B6B03F024
:103020000403FB60FB6806237B610323BB61002371
:10303000FB6107F1140319461C4801F04DFC1C4BC1
:103040001C4A1A601A4B00225A60194B00229A60DF
:10305000174B0022DA60164B4FF480621A61144B52
:103060004FF400625A61124B4FF400529A61104BB8
:103070000022DA610E4B00221A620D4B00225A62C6
:103080000B4801F01BF80346002B01D0FFF730FE80
:103090007B68074A9A63064A7B68936300BF2837B8
:1030A000BD4680BD002001400038024000080240BB
:1030B000A80200201064024080B58CB000AF786098
:1030C00007F11C0300221A605A609A60DA601A61E4
:1030D0007B681B684A4A93425BD10023BB61494B22
:1030E0001B6B484A43F002031363464B1B6B03F010
:1030F0000203BB61BB694FF44073FB6112233B6267
:1031000001237B620323BB620423FB6207F11C03E0
:1031100019463D4801F0E0FB00237B61394B1B6CF5
:10312000384A43F400131364364B1B6C03F400134A
:103130007B617B69354B364A1A60344B4FF0007225
:103140005A60324B00229A60304B0022DA602F4BDB
:103150004FF480621A612D4B00225A612B4B0022E2
:103160009A612A4B0022DA61284B00221A62274B0F
:1031700000225A62254800F0A1FF0346002B01D02F
:10318000FFF7B6FD7B68214A9A63204A7B68936308
:1031900031E07B681B681F4A93422CD100233B61BE
:1031A000184B1B6B174A43F002031363154B1B6B41
:1031B00003F002033B613B694FF44063FB61122360
:1031C0003B6200237B620323BB620423FB6207F1A3
:1031D0001C0319460C4801F07FFB0023FB60094BE0
:1031E0001B6C084A43F480031364064B1B6C03F406
:1031F0008003FB60FB6800BF3037BD4680BD00BF69
:103200000054004000380240000402405C030020EB
:10321000106002400058004080B485B000AF786074
:103220007B681B680B4A93420DD10023FB600A4B5D
:103230005B6C094A43F001035364074B5B6C03F07A
:103240000103FB60FB6800BF1437BD465DF8047BDB
:10325000704700BF000001400038024080B58CB0CC
:1032600000AF786007F11C0300221A605A609A6070
:10327000DA601A617B681B68B3F1804F4BD1002381
:10328000BB613F4B1B6C3E4A43F0010313643C4B54
:103290001B6C03F00103BB61BB6900237B61384BEE
:1032A0001B6B374A43F001031363354B1B6B03F071
:1032B00001037B617B6900233B61314B1B6B304A0F
:1032C00043F0020313632E4B1B6B03F002033B61BD
:1032D0003B694FF40043FB6102233B6200237B62A6
:1032E0000023BB620123FB6207F11C03194625483A
:1032F00001F0F2FA0823FB6102233B6200237B62A8
:103300000023BB620123FB6207F11C0319461E4820
:1033100001F0E2FA30E07B681B681C4A93422BD133
:103320000023FB60164B1B6C154A43F00203136429
:10333000134B1B6C03F00203FB60FB680023BB60B4
:103340000F4B1B6B0E4A43F0010313630C4B1B6BBB
:1033500003F00103BB60BB68C023FB6102233B6237
:1033600000237B620023BB620223FB6207F11C0384
:103370001946044801F0B0FA00BF3037BD4680BDA1
:1033800000380240000002400004024000040040F7
:1033900080B58AB000AF786007F1140300221A608C
:1033A0005A609A60DA601A617B681B681D4A934212
:1033B00034D100233B611C4B1B6C1B4A43F00403BC
:1033C0001364194B1B6C03F004033B613B6900233E
:1033D000FB60154B1B6B144A43F008031363124B3D
:1033E0001B6B03F00803FB60FB684FF480537B61A9
:1033F0000223BB610023FB6100233B6202237B624B
:1034000007F114031946094801F066FA0022052164
:103410001E2000F01CFE1E2000F035FE00BF2837E5
:10342000BD4680BD0008004000380240000C02404C
:1034300080B58AB000AF786007F1140300221A60EB
:103440005A609A60DA601A617B681B68234A93426B
:103450000ED100233B61224B1B6C214A43F0100329
:1034600013641F4B1B6C03F010033B613B6930E09E
:103470007B681B681B4A93422BD10023FB60184BCF
:103480005B6C174A43F002035364154B5B6C03F00B
:103490000203FB60FB680023BB60114B1B6B104AEF
:1034A00043F0040313630E4B1B6B03F00403BB6078
:1034B000BB68C0237B610223BB610023FB61002347
:1034C0003B6203237B6207F114031946064801F0AF
:1034D00003FA00BF2837BD4680BD00BF0010004082
:1034E00000380240000401400008024080B588B066
:1034F00000AF786007F10C0300221A605A609A60EE
:10350000DA601A617B681B68124A93421ED100235D
:10351000BB60114B1B6B104A43F0100313630E4B3F
:103520001B6B03F01003BB60BB684FF48043FB6070
:1035300002233B6100237B610023BB610123FB610C
:1035400007F10C031946054801F0C6F900BF203702
:10355000BD4680BD0000014000380240001002401E
:1035600080B58AB000AF786007F1140300221A60BA
:103570005A609A60DA601A617B681B681D4A934240
:1035800034D100233B611C4B1B6C1B4A43F480234A
:103590001364194B1B6C03F480233B613B690023CC
:1035A000FB60154B1B6B144A43F004031363124B6F
:1035B0001B6B03F00403FB60FB684FF440637B610B
:1035C0000223BB610023FB6103233B6207237B6271
:1035D00007F114031946094801F07EF9002205217C
:1035E000272000F034FD272000F04DFD00BF2837D4
:1035F000BD4680BD0048004000380240000802403F
:1036000080B400AFFEE780B400AFFEE780B400AF47
:10361000FEE780B400AFFEE780B400AFFEE780B401
:1036200000AF00BFBD465DF8047B704780B500AFBA
:1036300000F08CF907F010FB0346012B01D008F0D5
:10364000FBF800BF80BD80B400AF00BFBD465DF891
:10365000047B704780B500AF024800F0C7FE00BF92
:1036600080BD00BF5C03002080B500AF024803F0BE
:10367000E0FC00BF80BD00BF9404002080B500AF17
:10368000024804F063FE00BF80BD00BF6C0500204F
:1036900080B500AF024800F0A9FE00BF80BD00BFAA
:1036A000A802002080B400AF01231846BD465DF893
:1036B000047B704780B582B000AF7860396009F054
:1036C000F3F8034616221A604FF0FF331846083706
:1036D000BD4680BD80B582B000AF78604FF0FF314D
:1036E0007868FFF7E7FFFEE780B586B000AFF860C7
:1036F000B9607A6000237B610AE0AFF30080014685
:10370000BB685A1CBA60CAB21A707B6901337B610C
:103710007A697B689A42F0DB7B6818461837BD46A9
:1037200080BD80B586B000AFF860B9607A600023D4
:103730007B6109E0BB685A1CBA601B781846AFF37E
:1037400000807B6901337B617A697B689A42F1DB97
:103750007B6818461837BD4680BD80B483B000AF83
:1037600078604FF0FF3318460C37BD465DF8047B98
:10377000704780B483B000AF786039603B684FF425
:1037800000525A60002318460C37BD465DF8047B92
:10379000704780B483B000AF7860012318460C37BF
:1037A000BD465DF8047B704780B485B000AFF8601B
:1037B000B9607A60002318461437BD465DF8047B73
:1037C0007047000080B586B000AF7860144A154B92
:1037D000D31A7B617B693B61134B1B68002B02D1C1
:1037E000114B124A1A60104B1A687B6813443A69ED
:1037F0009A4207D209F058F803460C221A604FF09B
:10380000FF3309E0084B1B68FB60074B1A687B68B5
:103810001344054A1360FB6818461837BD4680BD3F
:103820000000022000040000F40900209854002049
:1038300080B400AF064BD3F88830054A43F47003D8
:10384000C2F8883000BFBD465DF8047B704700BFFA
:1038500000ED00E0DFF834D00D480E490E4A002399
:1038600002E0D458C4500433C4188C42F9D30B4A34
:103870000B4C002301E013600432A242FBD3FFF79C
:10388000D7FF09F017F8FDF77DFB70470000022015
:1038900000000020DC01002064EB0008DC010020B7
:1038A00098540020FEE7000080B500AF0E4B1B6867
:1038B0000D4A43F4007313600B4B1B680A4A43F430
:1038C00080631360084B1B68074A43F480731360DE
:1038D000032000F0B1FB0F2000F008F8FFF742FBD7
:1038E0000023184680BD00BF003C024080B582B076
:1038F00000AF7860124B1A68124B1B7819464FF4D0
:103900007A73B3FBF1F3B2FBF3F3184600F0C9FB93
:103910000346002B01D001230EE07B680F2B0AD851
:10392000002279684FF0FF3000F091FB064A7B6877
:103930001360002300E0012318460837BD4680BD10
:10394000040000200C0000200800002080B400AF1C
:10395000064B1B781A46064B1B681344044A136037
:1039600000BFBD465DF8047B704700BF0C0000201F
:10397000F809002080B400AF034B1B681846BD4611
:103980005DF8047B704700BFF809002080B584B063
:1039900000AF7860FFF7EEFFB8607B68FB60FB6804
:1039A000B3F1FF3F05D00A4B1B781A46FB6813445E
:1039B000FB6000BFFFF7DEFF0246BB68D31AFA6860
:1039C0009A42F7D800BF00BF1037BD4680BD00BF88
:1039D0000C00002080B584B000AF78600023FB733A
:1039E0007B68002B01D1012333E07B681B6C002B2B
:1039F00009D17868FFF7EAFA7B6800225A647B688D
:103A0000002283F83C207B681B6C03F01003002B22
:103A100018D17B681B6C23F4885323F0020343F016
:103A200002027B681A64786800F03AF97B68002229
:103A30005A647B681B6C23F0030343F001027B682C
:103A40001A6401E00123FB737B68002283F83C20A9
:103A5000FB7B18461037BD4680BD000080B485B0A2
:103A600000AF786039600023BB607B6893F83C301E
:103A7000012B01D1022305E17B68012283F83C2060
:103A80003B681B68092B25D97B681B68D9683B6894
:103A90001B689BB21A4613465B0013441E3B072269
:103AA00002FA03F3DA437B681B680A40DA607B683A
:103AB0001B68D9683B689A683B681B689BB21846CC
:103AC00003465B0003441E3B9A407B681B680A4325
:103AD000DA6022E07B681B6819693B681B689BB24F
:103AE0001A4613465B001344072202FA03F3DA4333
:103AF0007B681B680A401A617B681B6819693B6810
:103B00009A683B681B689BB2184603465B000344F7
:103B10009A407B681B680A431A613B685B68062B06
:103B200024D87B681B68596B3B685A6813469B0016
:103B30001344053B1F2202FA03F3DA437B681B6838
:103B40000A405A637B681B68596B3B681B689BB2D1
:103B500018463B685A6813469B001344053B00FA1D
:103B600003F27B681B680A435A634CE03B685B685E
:103B70000C2B24D87B681B68196B3B685A6813466A
:103B80009B001344233B1F2202FA03F3DA437B68B2
:103B90001B680A401A637B681B68196B3B681B68CB
:103BA0009BB218463B685A6813469B001344233B5C
:103BB00000FA03F27B681B680A431A6323E07B6800
:103BC0001B68D96A3B685A6813469B001344413B03
:103BD0001F2202FA03F3DA437B681B680A40DA62A9
:103BE0007B681B68D96A3B681B689BB218463B68B8
:103BF0005A6813469B001344413B00FA03F27B686A
:103C00001B680A43DA62224BFB607B681B68214A0F
:103C1000934209D13B681B68122B05D1FB685B6896
:103C200043F48002FB685A607B681B68194A934220
:103C300023D13B681B68102B03D03B681B68112BFA
:103C40001BD1FB685B6843F40002FB685A603B6869
:103C50001B68102B11D1104B1B68104AA2FB0323C9
:103C60009A0C13469B0013445B00BB6002E0BB68E8
:103C7000013BBB60BB68002BF9D17B68002283F855
:103C80003C20002318461437BD465DF8047B70477E
:103C900000230140002001400400002083DE1B437C
:103CA00080B485B000AF7860794BFB60FB685B68DF
:103CB00023F44032FB685A60FB685A687B685B6893
:103CC0001A43FB685A607B681B685A687B681B68EC
:103CD00022F480725A607B681B6859687B681B6994
:103CE0001A027B681B680A435A607B681B685A6823
:103CF0007B681B6822F040725A607B681B685968B9
:103D00007B689A687B681B680A435A607B681B68FB
:103D10009A687B681B6822F400629A607B681B6863
:103D200099687B68DA687B681B680A439A607B68DD
:103D30009B6A584A934222D07B681B689A687B68CA
:103D40001B6822F070629A607B681B6899687B68C8
:103D50009A6A7B681B680A439A607B681B689A684A
:103D60007B681B6822F040529A607B681B689968E8
:103D70007B68DA6A7B681B680A439A600FE07B689D
:103D80001B689A687B681B6822F070629A607B6887
:103D90001B689A687B681B6822F040529A607B68B7
:103DA0001B689A687B681B6822F002029A607B6835
:103DB0001B6899687B681B7E5A007B681B680A43F6
:103DC0009A607B6893F82030002B1BD07B681B68BF
:103DD0005A687B681B6842F400625A607B681B6803
:103DE0005A687B681B6822F460425A607B681B68D3
:103DF00059687B685B6A013B5A037B681B680A430E
:103E00005A6007E07B681B685A687B681B6822F46D
:103E100000625A607B681B68DA6A7B681B6822F460
:103E20007002DA627B681B68D96A7B68DB69013BD8
:103E30001A057B681B680A43DA627B681B689A680C
:103E40007B681B6822F400729A607B681B68996823
:103E50007B6893F830305A027B681B680A439A608B
:103E60007B681B689A687B681B6822F480629A6092
:103E70007B681B6899687B685B699A027B681B6832
:103E80000A439A6000BF1437BD465DF8047B704753
:103E9000002301400100000F80B485B000AF7860BE
:103EA0007B6803F00703FB600C4BDB68BB60BA6800
:103EB0004FF6FF031340BB60FB681A02BB68134355
:103EC00043F0BF6343F40033BB60044ABB68D36074
:103ED00000BF1437BD465DF8047B704700ED00E07D
:103EE00080B400AF044BDB681B0A03F007031846DD
:103EF000BD465DF8047B704700ED00E080B483B000
:103F000000AF0346FB7197F90730002B0BDBFB7901
:103F100003F01F02074997F907305B09012000FAF7
:103F200002F241F8232000BF0C37BD465DF8047B48
:103F3000704700BF00E100E080B483B000AF0346EB
:103F40003960FB7197F90730002B0ADB3B68DAB266
:103F50000C4997F907301201D2B20B4483F80023C1
:103F60000AE03B68DAB20849FB7903F00F03043B2F
:103F70001201D2B20B441A7600BF0C37BD465DF871
:103F8000047B704700E100E000ED00E080B489B000
:103F900000AFF860B9607A60FB6803F00703FB616B
:103FA000FB69C3F10703042B28BF0423BB61FB6932
:103FB0000433062B02D9FB69033B00E000237B613D
:103FC0004FF0FF32BB6902FA03F3DA43BB681A40D1
:103FD0007B699A404FF0FF317B6901FA03F3D943C3
:103FE0007B680B40134318462437BD465DF8047BBD
:103FF0007047000080B582B000AF78607B68013BFD
:10400000B3F1807F01D301230FE00A4A7B68013BB3
:1040100053600F214FF0FF30FFF78EFF054B00225A
:104020009A60044B07221A60002318460837BD46E1
:1040300080BD00BF10E000E080B582B000AF7860C6
:104040007868FFF729FF00BF0837BD4680BD80B5FF
:1040500086B000AF0346B9607A60FB7300237B61D2
:10406000FFF73EFF78617A68B9687869FFF78EFFDD
:10407000024697F90F3011461846FFF75DFF00BF63
:104080001837BD4680BD80B582B000AF0346FB71D6
:1040900097F907301846FFF731FF00BF0837BD46D4
:1040A00080BD80B582B000AF78607868FFF7A2FF6E
:1040B000034618460837BD4680BD000080B586B06F
:1040C00000AF786000237B61FFF754FC38617B68A8
:1040D000002B01D1012399E07B68022283F835206F
:1040E0007B68002283F834207B681B681A687B6831
:1040F0001B6822F001021A600FE0FFF73BFC02464A
:104100003B69D31A052B08D97B6820225A657B6846
:10411000032283F83520032378E07B681B681B6843
:1041200003F00103002BE8D17B681B681B687B61EF
:104130007A69384B13407B617B685A687B689B685F
:104140001A437B68DB681A437B681B691A437B68E8
:104150005B691A437B689B691A437B68DB691A4376
:104160007B681B6A13437A6913437B617B685B6AD4
:10417000042B07D17B68DA6A7B681B6B13437A696F
:1041800013437B617B681B687A691A607B681B68D4
:104190005B697B617B6923F007037B617B685B6AFA
:1041A0007A6913437B617B685B6A042B17D17B6858
:1041B0009B6A7A6913437B617B68DB6A002B0ED0B4
:1041C000786800F00DFB0346002B08D07B68402286
:1041D0005A657B68012283F83520012316E07B684D
:1041E0001B687A695A61786800F0C4FA0346FB607C
:1041F0007B68DB6D3F229A40FB689A607B680022F7
:104200005A657B68012283F8352000231846183749
:10421000BD4680BD3F8010F080B586B000AFF8602D
:10422000B9607A603B600023FB75FB689B6D3B6166
:10423000FB6893F83430012B01D1022340E0FB6886
:10424000012283F83420FB6893F83530DBB2012B70
:104250002FD1FB68022283F83520FB6800225A65C3
:104260003B687A68B968F86800F056FAFB68DB6D5D
:104270003F229A403B699A60FB681B681A68FB689A
:104280001B6842F016021A60FB681B6C002B07D0FB
:10429000FB681B681A68FB681B6842F008021A601A
:1042A000FB681B681A68FB681B6842F001021A6011
:1042B00005E0FB68002283F834200223FB75FB7DB8
:1042C00018461837BD4680BD80B584B000AF786011
:1042D0007B689B6DFB60FFF74DFBB8607B6893F8D4
:1042E0003530DBB2022B08D07B6880225A657B68B0
:1042F000002283F83420012352E07B681B681A688F
:104300007B681B6822F016021A607B681B685A697A
:104310007B681B6822F080025A617B681B6C002B53
:1043200003D17B689B6C002B07D07B681B681A68E5
:104330007B681B6822F008021A607B681B681A6899
:104340007B681B6822F001021A6013E0FFF712FB82
:104350000246BB68D31A052B0CD97B6820225A650C
:104360007B68032283F835207B68002283F83420A1
:10437000032315E07B681B681B6803F00103002B17
:10438000E4D17B68DB6D3F229A40FB689A607B68D2
:10439000012283F835207B68002283F83420002333
:1043A00018461037BD4680BD80B483B000AF78603A
:1043B0007B6893F83530DBB2022B04D07B68802217
:1043C0005A6501230CE07B68052283F835207B6861
:1043D0001B681A687B681B6822F001021A600023C0
:1043E00018460C37BD465DF8047B704780B586B033
:1043F00000AF78600023BB608E4B1B688E4AA2FB27
:1044000003239B0A7B617B689B6D3B613B691B6857
:10441000FB607B68DB6D08229A40FB681340002B31
:104420001AD07B681B681B6803F00403002B13D0B1
:104430007B681B681A687B681B6822F004021A609C
:104440007B68DB6D08229A403B699A607B685B6DF4
:1044500043F001027B685A657B68DB6D01229A405C
:10446000FB681340002B12D07B681B685B6903F06C
:104470008003002B0BD07B68DB6D01229A403B69E7
:104480009A607B685B6D43F002027B685A657B68CB
:10449000DB6D04229A40FB681340002B12D07B682E
:1044A0001B681B6803F00203002B0BD07B68DB6DDD
:1044B00004229A403B699A607B685B6D43F004027A
:1044C0007B685A657B68DB6D10229A40FB6813405D
:1044D000002B43D07B681B681B6803F00803002B8C
:1044E0003CD07B68DB6D10229A403B699A607B6808
:1044F0001B681B6803F48023002B18D07B681B68A3
:104500001B6803F40023002B08D17B681B6C002B75
:1045100024D07B681B6C786898471FE07B689B6C95
:10452000002B1BD07B689B6C7868984716E07B68F3
:104530001B681B6803F48073002B07D17B681B6822
:104540001A687B681B6822F008021A607B681B6C83
:10455000002B03D07B681B6C786898477B68DB6D09
:1045600020229A40FB681340002B00F08F807B686C
:104570001B681B6803F01003002B00F087807B682A
:10458000DB6D20229A403B699A607B6893F8353056
:10459000DBB2052B36D17B681B681A687B681B6809
:1045A00022F016021A607B681B685A697B681B68D8
:1045B00022F080025A617B681B6C002B03D17B6860
:1045C0009B6C002B07D07B681B681A687B681B6894
:1045D00022F008021A607B68DB6D3F229A403B693B
:1045E0009A607B68012283F835207B68002283F87B
:1045F00034207B681B6D002B7ED07B681B6D786838
:10460000984779E07B681B681B6803F48023002BC4
:104610001DD07B681B681B6803F40023002B0DD1A1
:104620007B685B6C002B31D07B685B6C786898474B
:104630002CE000BF04000020B5814E1B7B68DB6BC3
:10464000002B23D07B68DB6B786898471EE07B6883
:104650001B681B6803F48073002B0FD17B681B68F9
:104660001A687B681B6822F010021A607B680122BE
:1046700083F835207B68002283F834207B68DB6B6D
:10468000002B03D07B68DB6B786898477B685B6D99
:10469000002B32D07B685B6D03F00103002B22D02E
:1046A0007B68052283F835207B681B681A687B6865
:1046B0001B6822F001021A60BB680133BB607A6993
:1046C0009A4207D37B681B681B6803F00103002B29
:1046D000F2D100E000BF7B68012283F835207B68BF
:1046E000002283F834207B68DB6C002B05D07B68CC
:1046F000DB6C7868984700E000BF1837BD4680BD86
:1047000080B483B000AF78607B685B6D18460C376F
:10471000BD465DF8047B704780B485B000AFF8609B
:10472000B9607A603B60FB681B681A68FB681B68AD
:1047300022F480221A60FB681B683A685A60FB68A2
:104740009B68402B08D1FB681B687A689A60FB68FD
:104750001B68BA68DA6007E0FB681B68BA689A6091
:10476000FB681B687A68DA6000BF1437BD465DF8E5
:10477000047B704780B485B000AF78607B681B68AD
:10478000DBB2103B144AA2FB03231B09FB60134A54
:10479000FB6813441B781A467B68DA65FB68032BB9
:1047A00009D97B681B6823F47F7323F003031A1D68
:1047B0007B689A6507E07B681B6823F47F7323F0AE
:1047C00003037A6893657B689B6D18461437BD4672
:1047D0005DF8047B704700BFABAAAAAADCE700081B
:1047E00080B485B000AF78600023FB737B689B6A60
:1047F000BB607B689B69002B1FD1BB68032B56D81D
:1048000001A252F823F000BF194800082B48000805
:1048100019480008AF4800087B68DB6A03F0807322
:10482000002B46D00123FB7343E07B68DB6AB3F1C6
:10483000C07F40D10123FB733DE07B689B69B3F5EA
:10484000005F21D1BB68032B37D801A252F823F0B7
:104850006148000867480008614800087948000876
:104860000123FB7330E07B68DB6A03F08073002B6D
:1048700025D00123FB7322E07B68DB6AB3F1C07FA4
:104880001FD10123FB731CE0BB68022B03D9BB685B
:10489000032B03D018E00123FB7315E07B68DB6A70
:1048A00003F08073002B0ED00123FB730BE000BFDD
:1048B0000AE000BF08E000BF06E000BF04E000BF60
:1048C00002E000BF00E000BFFB7B18461437BD4686
:1048D0005DF8047B704700BF80B489B000AF78609A
:1048E000396000237B6100233B610023BB6100230F
:1048F000FB616BE10122FB6902FA03F37B613B6818
:104900001B687A6913403B613A697B699A4240F0BF
:104910005A813B685B6803F00303012B05D03B68B9
:104920005B6803F00303022B30D17B689B68BB619B
:10493000FB695B00032202FA03F3DB43BA6913400D
:10494000BB613B68DA68FB695B0002FA03F3BA6992
:104950001343BB617B68BA699A607B685B68BB6123
:104960000122FB6902FA03F3DB43BA691340BB611E
:104970003B685B681B0903F00102FB6902FA03F361
:10498000BA691343BB617B68BA695A603B685B686C
:1049900003F00303032B17D07B68DB68BB61FB6963
:1049A0005B00032202FA03F3DB43BA691340BB61E5
:1049B0003B689A68FB695B0002FA03F3BA69134328
:1049C000BB617B68BA69DA603B685B6803F003032C
:1049D000022B23D1FB69DA087B68083253F82230B6
:1049E000BB61FB6903F007039B000F2202FA03F38C
:1049F000DB43BA691340BB613B681A69FB6903F08A
:104A000007039B0002FA03F3BA691343BB61FB6916
:104A1000DA087B680832B96943F822107B681B68A2
:104A2000BB61FB695B00032202FA03F3DB43BA6953
:104A30001340BB613B685B6803F00302FB695B00EA
:104A400002FA03F3BA691343BB617B68BA691A605F
:104A50003B685B6803F44033002B00F0B480002314
:104A6000FB60604B5B6C5F4A43F4804353645D4B77
:104A70005B6C03F48043FB60FB685B4AFB699B084B
:104A8000023352F82330BB61FB6903F003039B0040
:104A90000F2202FA03F3DB43BA691340BB617B6860
:104AA000524A93422BD07B68514A934225D07B686F
:104AB000504A93421FD07B684F4A934219D07B687B
:104AC0004E4A934213D07B684D4A93420DD07B6887
:104AD0004C4A934207D07B684B4A934201D107234B
:104AE0000EE008230CE006230AE0052308E0042377
:104AF00006E0032304E0022302E0012300E0002398
:104B0000FA6902F0030292009340BA691343BB6151
:104B10003549FB699B080233BA6941F823203B4BB6
:104B20009B68BB613B69DB43BA691340BB613B686F
:104B30005B6803F48013002B03D0BA693B6913430D
:104B4000BB61324ABB699360304BDB68BB613B6938
:104B5000DB43BA691340BB613B685B6803F4001335
:104B6000002B03D0BA693B691343BB61274ABB6979
:104B7000D360264B5B68BB613B69DB43BA6913407A
:104B8000BB613B685B6803F40033002B03D0BA6958
:104B90003B691343BB611D4ABB6953601B4B1B68D8
:104BA000BB613B69DB43BA691340BB613B685B682F
:104BB00003F48033002B03D0BA693B691343BB6114
:104BC000124ABB691360FB690133FB61FB690F2B60
:104BD0007FF690AE00BF00BF2437BD465DF8047B72
:104BE000704700BF0038024000380140000002401A
:104BF0000004024000080240000C02400010024085
:104C00000014024000180240001C0240003C014019
:104C100080B483B000AF78600B467B8013467B7016
:104C20007B78002B03D07A887B689A6103E07B88CD
:104C30001A047B689A6100BF0C37BD465DF8047B9F
:104C40007047000080B584B000AF78607B68002BAF
:104C500001D101232BE17B6893F83D30DBB2002BBF
:104C600006D17B68002283F83C207868FEF724FA9E
:104C70007B68242283F83D207B681B681A687B6868
:104C80001B6822F001021A607B681B681A687B6847
:104C90001B6842F400421A607B681B681A687B68D4
:104CA0001B6822F400421A6001F0B2FEF8607B68D3
:104CB0005B68814A934207D8FB68804A934294BF5D
:104CC00001230023DBB206E0FB687D4A934294BFD8
:104CD00001230023DBB2002B01D00123E7E0FB68B6
:104CE000784AA2FB03239B0CBB607B681B685B6854
:104CF00023F03F017B681B68BA680A435A607B68EF
:104D00001B681B6A23F03F017B685B686A4A934219
:104D100002D8BB68013309E0BB684FF4967202FB0E
:104D200003F3694AA2FB03239B0901337A681268E3
:104D30000B4313627B681B68DB6923F44F4222F04C
:104D4000FF027B685B685C498B4219D8FB68591E7F
:104D50007B685B685B00B1FBF3F3591C40F6FC73A6
:104D60000B40002B0AD0FB68591E7B685B685B0018
:104D7000B1FBF3F30133C3F30B0351E004234FE022
:104D80007B689B68002B11D1FB68581E7B685968B3
:104D90000B465B000B44B0FBF3F30133C3F30B038F
:104DA000002B0CBF01230023DBB212E0FB68581E6E
:104DB0007B6859680B469B000B4499000B44B0FB81
:104DC000F3F30133C3F30B03002B0CBF01230023C8
:104DD000DBB2002B01D0012322E07B689B68002B13
:104DE0000ED1FB68581E7B6859680B465B000B446C
:104DF000B0FBF3F30133C3F30B0343F400430FE0C1
:104E0000FB68581E7B6859680B469B000B44990051
:104E10000B44B0FBF3F30133C3F30B0343F4404300
:104E2000796809681343CB617B681B681B6823F0B2
:104E3000C0017B68DA697B681B6A1A437B681B6860
:104E40000A431A607B681B689B6823F4034323F0C2
:104E5000FF037A6811697A68D26811437A68126828
:104E60000B4393607B681B68DB6823F0FF017B6862
:104E70005A697B689B691A437B681B680A43DA603E
:104E80007B681B681A687B681B6842F001021A6025
:104E90007B6800221A647B68202283F83D207B68AF
:104EA00000221A637B68002283F83E200023184604
:104EB0001037BD4680BD00BFA08601007F841E0064
:104EC000FF083D0083DE1B43D34D621080B588B0E0
:104ED00002AFF860084611461A4603467B810B462E
:104EE0003B811346FB80FEF745FD7861FB6893F834
:104EF0003D30DBB2202B40F0D9807B690093192331
:104F000001226D49F86800F04DFF0346002B01D0E7
:104F10000223CCE0FB6893F83C30012B01D1022343
:104F2000C5E0FB68012283F83C20FB681B681B6816
:104F300003F00103012B07D0FB681B681A68FB68AC
:104F40001B6842F001021A60FB681B681A68FB6864
:104F50001B6822F400621A60FB68212283F83D205E
:104F6000FB68402283F83E20FB6800221A64FB683D
:104F70003A6A5A62FB68BA8C5A85FB685B8D9AB2B2
:104F8000FB681A85FB684D4ADA62F8883A897989A4
:104F90007B690193BB6A00930346F86800F072FCDA
:104FA0000346002B52D0012381E07A69B96AF86880
:104FB00000F0CEFF0346002B0DD0FB681B6C042BCA
:104FC00007D1FB681B681A68FB681B6842F4007213
:104FD0001A6001236BE0FB685B6A1A78FB681B6848
:104FE0001A61FB685B6A5A1CFB685A62FB681B8D7E
:104FF000013B9AB2FB681A85FB685B8D9BB2013B53
:105000009AB2FB685A85FB681B685B6903F004036E
:10501000042B1BD1FB681B8D002B17D0FB685B6A30
:105020001A78FB681B681A61FB685B6A5A1CFB688C
:105030005A62FB681B8D013B9AB2FB681A85FB68BC
:105040005B8D9BB2013B9AB2FB685A85FB681B8D56
:10505000002BAAD17A69B96AF86800F0BAFF034652
:10506000002B0DD0FB681B6C042B07D1FB681B6861
:105070001A68FB681B6842F400721A60012316E08C
:10508000FB681B681A68FB681B6842F400721A60B0
:10509000FB68202283F83D20FB68002283F83E2035
:1050A000FB68002283F83C20002300E0022318461E
:1050B0001837BD4680BD00BF020010000000FFFF92
:1050C00080B58CB002AFF860084611461A46034618
:1050D0007B810B463B811346FB80FEF74BFC7862DD
:1050E000FB6893F83D30DBB2202B40F008827B6AEE
:1050F0000093192301227B49F86800F053FE034610
:10510000002B01D00223FBE1FB6893F83C30012B1C
:1051100001D10223F4E1FB68012283F83C20FB6803
:105120001B681B6803F00103012B07D0FB681B6899
:105130001A68FB681B6842F001021A60FB681B6872
:105140001A68FB681B6822F400621A60FB6822225E
:1051500083F83D20FB68402283F83E20FB68002254
:105160001A64FB683A6B5A62FB68BA8E5A85FB6810
:105170005B8D9AB2FB681A85FB685B4ADA62F88835
:105180003A8979897B6A0193BB6B00930346F8687F
:1051900000F00EFC0346002B01D00123B0E1FB68B8
:1051A0001B8D002B13D100233B62FB681B685B69DE
:1051B0003B62FB681B689B693B623B6AFB681B6840
:1051C0001A68FB681B6842F400721A6084E1FB688D
:1051D0001B8D012B1BD1FB681B681A68FB681B68C1
:1051E00022F480621A600023FB61FB681B685B6924
:1051F000FB61FB681B689B69FB61FB69FB681B68C3
:105200001A68FB681B6842F400721A6064E1FB686C
:105210001B8D022B1BD1FB681B681A68FB681B687F
:1052200022F480621A60FB681B681A68FB681B68BE
:1052300042F400621A600023BB61FB681B685B6973
:10524000BB61FB681B689B69BB61BB6944E10023D0
:105250007B61FB681B685B697B61FB681B689B6902
:105260007B617B6938E1FB681B8D032B00F2F180C9
:10527000FB681B8D012B23D17A6AB96BF86800F0AB
:10528000E9FE0346002B01D0012339E1FB681B68CE
:105290001A69FB685B6AD2B21A70FB685B6A5A1CB7
:1052A000FB685A62FB681B8D013B9AB2FB681A854A
:1052B000FB685B8D9BB2013B9AB2FB685A850BE1A0
:1052C000FB681B8D022B4ED17B6A0093BB6B0022C7
:1052D0000649F86800F066FD0346002B08D001235C
:1052E0000EE100BF020010000000FFFF04000100FB
:1052F000FB681B681A68FB681B6842F400721A603E
:10530000FB681B681A69FB685B6AD2B21A70FB689B
:105310005B6A5A1CFB685A62FB681B8D013B9AB2A0
:10532000FB681A85FB685B8D9BB2013B9AB2FB68F8
:105330005A85FB681B681A69FB685B6AD2B21A70EF
:10534000FB685B6A5A1CFB685A62FB681B8D013B59
:105350009AB2FB681A85FB685B8D9BB2013B9AB2DF
:10536000FB685A85B8E07B6A0093BB6B00226649F4
:10537000F86800F017FD0346002B01D00123BFE0C1
:10538000FB681B681A68FB681B6822F480621A605D
:10539000FB681B681A69FB685B6AD2B21A70FB680B
:1053A0005B6A5A1CFB685A62FB681B8D013B9AB210
:1053B000FB681A85FB685B8D9BB2013B9AB2FB6868
:1053C0005A857B6A0093BB6B00224F49F86800F056
:1053D000E9FC0346002B01D0012391E0FB681B6828
:1053E0001A68FB681B6842F400721A60FB681B684D
:1053F0001A69FB685B6AD2B21A70FB685B6A5A1C56
:10540000FB685A62FB681B8D013B9AB2FB681A85E8
:10541000FB685B8D9BB2013B9AB2FB685A85FB68C7
:105420001B681A69FB685B6AD2B21A70FB685B6A18
:105430005A1CFB685A62FB681B8D013B9AB2FB68E1
:105440001A85FB685B8D9BB2013B9AB2FB685A855B
:1054500042E07A6AB96BF86800F0FCFD0346002B65
:1054600001D001234CE0FB681B681A69FB685B6A8A
:10547000D2B21A70FB685B6A5A1CFB685A62FB68FE
:105480001B8D013B9AB2FB681A85FB685B8D9BB252
:10549000013B9AB2FB685A85FB681B685B6903F0A5
:1054A0000403042B18D1FB681B681A69FB685B6A4C
:1054B000D2B21A70FB685B6A5A1CFB685A62FB68BE
:1054C0001B8D013B9AB2FB681A85FB685B8D9BB212
:1054D000013B9AB2FB685A85FB681B8D002B7FF459
:1054E000C2AEFB68202283F83D20FB68002283F8CF
:1054F0003E20FB68002283F83C20002300E00223CA
:1055000018462837BD4680BD0400010080B58CB028
:1055100002AFF860084611461A4603467B810B46E7
:105520003B811346FB80FEF725FA78620023FB617E
:10553000FB6893F83D30DBB2202B40F07681954B31
:105540001B68DB08944AA2FB03231A0A13469B003C
:1055500013449A001344FB61FB69013BFB61FB6947
:10556000002B16D1FB6800221A63FB68202283F807
:105570003D20FB68002283F83E20FB681B6C43F053
:105580002002FB681A64FB68002283F83C20012398
:105590004CE1FB681B689B6903F00203022BDBD024
:1055A000FB6893F83C30012B01D102233EE1FB68FC
:1055B000012283F83C20FB681B681B6803F0010391
:1055C000012B07D0FB681B681A68FB681B6842F058
:1055D00001021A60FB681B681A68FB681B6822F4EA
:1055E00000621A60FB68222283F83D20FB6840229B
:1055F00083F83E20FB6800221A64FB683A6B5A620B
:10560000FB68BA8E5A85FB685B8D9AB2FB681A8577
:10561000FB68624ADA627A89FB685A643A89FB68F5
:105620009A64FA88FB68DA64FB6800221A65FB68F2
:105630001B8D002B00F0CC80FB689B6B002B2DD0CA
:10564000FB689B6B564ADA63FB689B6B554ADA64CE
:10565000FB689B6B00221A64FB689B6B00225A64F8
:10566000FB689B6B00229A64FB689B6B00221A65A7
:10567000FB68986BFB681B6810331946FB685B6A14
:105680001A46FB681B8DFEF7C7FD034687F82330DB
:1056900097F82330002B40F0878013E0FB6820222E
:1056A00083F83D20FB68002283F83E20FB681B6CDA
:1056B00043F08002FB681A64FB68002283F83C20F8
:1056C0000123B3E0F8883A8979897B6A019323231F
:1056D00000930346F86800F06BF90346002B23D0D3
:1056E000FB689B6B1846FEF75FFE034687F8233086
:1056F000FB689B6B0022DA63FB681B681A68FB6817
:105700001B6822F480621A60FB6800221A85FB681D
:1057100000225A85FB681B681A68FB681B6822F028
:1057200001021A60012381E0FB681B8D012B08D167
:10573000FB681B681A68FB681B6822F480621A60A9
:1057400007E0FB681B685A68FB681B6842F48052DC
:105750005A600023BB61FB681B685B69BB61FB6827
:105760001B689B69BB61BB69FB68002283F83C2016
:10577000FB681B685A68FB681B6842F480725A60B9
:10578000FB681B685A68FB681B6842F400625A6039
:1057900049E000BF0400002089B5F8140000FFFFB5
:1057A000815B00082B5D0008FB68202283F83D2008
:1057B000FB68002283F83E20FB681B6C43F010025C
:1057C000FB681A64FB68002283F83C2001232DE06B
:1057D000F8883A8979897B6A0193232300930346E9
:1057E000F86800F0E5F80346002B01D001231DE026
:1057F00000237B61FB681B685B697B61FB681B683E
:105800009B697B617B69FB681B681A68FB681B6886
:1058100042F400721A60FB68202283F83D20FB6886
:10582000002283F83C20002300E00223184628379A
:10583000BD4680BD80B483B000AF786000BF0C3738
:10584000BD465DF8047B704780B483B000AF7860DC
:1058500000BF0C37BD465DF8047B704780B483B051
:1058600000AF786000BF0C37BD465DF8047B704721
:1058700080B483B000AF786000BF0C37BD465DF8E0
:10588000047B704780B588B002AFF86008461146C7
:105890001A4603467B810B463B811346FB80FB681F
:1058A0001B681A68FB681B6842F480721A607B6A86
:1058B00000933B6A00224FF00111F86800F072FA81
:1058C0000346002B0DD0FB681B681B6803F4807334
:1058D000B3F5807F03D1FB684FF400721A64032391
:1058E0005FE07B89DBB21A46FB681B6802F0FE02B0
:1058F0001A617B6A3A6A2D49F86800F0AAFA0346F1
:10590000002B01D001234CE000237B61FB681B6866
:105910005B697B61FB681B689B697B617B697A6A59
:10592000396AF86800F014FB0346002B0DD0FB68C1
:105930001B6C042B07D1FB681B681A68FB681B688B
:1059400042F400721A6001232BE0FB88012B05D181
:105950003B89DAB2FB681B681A6121E03B891B0AAC
:105960009BB2DAB2FB681B681A617A6A396AF86816
:1059700000F0EEFA0346002B0DD0FB681B6C042BE5
:1059800007D1FB681B681A68FB681B6842F4007249
:105990001A60012305E03B89DAB2FB681B681A61D3
:1059A000002318461837BD4680BD00BF0200010025
:1059B00080B588B002AFF860084611461A46034623
:1059C0007B810B463B811346FB80FB681B681A6892
:1059D000FB681B6842F480621A60FB681B681A68E7
:1059E000FB681B6842F480721A607B6A00933B6A12
:1059F00000224FF00111F86800F0D4F90346002BA3
:105A00000DD0FB681B681B6803F48073B3F5807FBF
:105A100003D1FB684FF400721A640323AAE07B8968
:105A2000DBB21A46FB681B6802F0FE021A617B6A51
:105A30003A6A5249F86800F00CFA0346002B01D08C
:105A4000012397E000237B61FB681B685B697B6136
:105A5000FB681B689B697B617B697A6A396AF868B5
:105A600000F076FA0346002B0DD0FB681B6C042B6C
:105A700007D1FB681B681A68FB681B6842F4007258
:105A80001A60012376E0FB88012B05D13B89DAB24D
:105A9000FB681B681A6121E03B891B0A9BB2DAB2E2
:105AA000FB681B681A617A6A396AF86800F050FA74
:105AB0000346002B0DD0FB681B6C042B07D1FB6841
:105AC0001B681A68FB681B6842F400721A600123A5
:105AD00050E03B89DAB2FB681B681A617A6A396A5E
