:020000040800F2
:100000000000022041520008ED4F0008F34F0008A5
:10001000F94F0008FF4F00080550000800000000DD
:1000200000000000000000000000000061D5000892
:100030000B50000800000000B1D70008195000085C
:100040009152000891520008915200089152000804
:100050009152000833500008915200089152000854
:100060009152000891520008915200084150000836
:1000700091520008915200089152000891520008D4
:1000800091520008915200089152000891520008C4
:1000900091520008915200089152000891520008B4
:1000A00091520008915200089152000891520008A4
:1000B00091520008915200085550000891520008D2
:1000C0009152000891520008915200089152000884
:1000D000915200089152000891520008695000089E
:1000E0009152000891520008915200089152000864
:1000F0009152000891520008915200089152000854
:100100009152000891520008915200089152000843
:100110009152000891520008915200089152000833
:100120007D50000891520008915200089152000839
:100130009152000891520008915200089152000813
:100140009152000891520008915200089152000803
:1001500091520008915200089152000891520008F3
:1001600091520008915200089152000891520008E3
:1001700091520008915200089152000800000000BE
:080180009152000891520008A1
:1001900010B5054C237833B9044B13B10448AFF3C1
:1001A00000800123237010BDE80100200000000042
:1001B0009018010808B5034B1BB103490348AFF37E
:1001C000008008BD00000000EC010020901801082C
:1001D00001F0FF01102A2BDB10F0070F08D010F8F8
:1001E000013B013A8B422DD010F0070F42B3F6D1FC
:1001F000F0B441EA012141EA014122F007047FF015
:1002000000070023F0E80256083C85EA010586EA6B
:10021000010685FA47F5A3FA87F586FA47F6A5FAA7
:1002200087F68EB9EED1F0BC01F0FF0102F00702B3
:1002300032B110F8013B013A83EA010313B1F8D15E
:100240000020704701387047002D06BF354603383F
:10025000073815F0010F07D1013015F4807F02BF78
:10026000013015F4C03F0130F0BC0138704700BFC9
:10027000034613F8012B002AFBD1181A01387047E6
:1002800081F0004102E000BF83F0004330B54FEA47
:1002900041044FEA430594EA050F08BF90EA020FB4
:1002A0001FBF54EA000C55EA020C7FEA645C7FEA47
:1002B000655C00F0E2804FEA5454D4EB5555B8BF6A
:1002C0006D420CDD2C4480EA020281EA030382EADB
:1002D000000083EA010180EA020281EA0303362D6D
:1002E00088BF30BD11F0004F4FEA01314FF4801C40
:1002F0004CEA113102D0404261EB410113F0004F52
:100300004FEA03334CEA133302D0524263EB430308
:1003100094EA050F00F0A780A4F10104D5F1200EA6
:100320000DDB02FA0EFC22FA05F2801841F1000101
:1003300003FA0EF2801843FA05F359410EE0A5F1D5
:1003400020050EF1200E012A03FA0EFC28BF4CF006
:10035000020C43FA05F3C01851EBE37101F00045BC
:1003600007D54FF0000EDCF1000C7EEB00006EEBC9
:100370000101B1F5801F1BD3B1F5001F0CD3490853
:100380005FEA30004FEA3C0C04F101044FEA4452AA
:1003900012F5800F80F09A80BCF1004F08BF5FEA31
:1003A000500C50F1000041EB045141EA050130BD11
:1003B0005FEA4C0C404141EB0101013C28BFB1F523
:1003C000801FE9D291F0000F04BF01460020B1FA6E
:1003D00081F308BF2033A3F10B03B3F120020CDA41
:1003E0000C3208DD02F1140CC2F10C0201FA0CF01F
:1003F00021FA02F10CE002F11402D8BFC2F1200C84
:1004000001FA02F120FA0CFCDCBF41EA0C01904039
:10041000E41AA2BF01EB0451294330BD6FEA040482
:100420001F3C1CDA0C340EDC04F11404C4F120026D
:1004300020FA04F001FA02F340EA030021FA04F37F
:1004400045EA030130BDC4F10C04C4F1200220FAD6
:1004500002F001FA04F340EA0300294630BD21FA14
:1004600004F0294630BD94F0000F83F4801306BFDA
:1004700081F480110134013D4EE77FEA645C18BFCE
:100480007FEA655C29D094EA050F08BF90EA020F65
:1004900005D054EA000C04BF1946104630BD91EA5D
:1004A000030F1EBF0021002030BD5FEA545C05D160
:1004B0004000494128BF41F0004130BD14F580049F
:1004C0003CBF01F5801130BD01F0004545F0FE4113
:1004D00041F470014FF0000030BD7FEA645C1ABF48
:1004E000194610467FEA655C1CBF0B46024650EA7F
:1004F000013406BF52EA033591EA030F41F40021AB
:1005000030BD00BF90F0000F04BF0021704730B530
:100510004FF4806404F132044FF000054FF0000105
:1005200050E700BF90F0000F04BF0021704730B5C6
:100530004FF4806404F1320410F0004548BF40429B
:100540004FF000013EE700BF42004FEAE2014FEAF0
:1005500031014FEA02701FBF12F07F4393F07F4FCB
:1005600081F06051704732F07F4208BF704793F0CE
:100570007F4F04BF41F40021704730B54FF46074E1
:1005800001F0004521F000411CE700BF50EA0102E4
:1005900008BF704730B54FF000050AE050EA01028D
:1005A00008BF704730B511F0004502D5404261EBFD
:1005B00041014FF4806404F132045FEA915C3FF43E
:1005C000D8AE4FF003025FEADC0C18BF03325FEADB
:1005D000DC0C18BF033202EBDC02C2F1200300FA8C
:1005E00003FC20FA02F001FA03FE40EA0E0021FAB1
:1005F00002F11444BDE600BF70B54FF0FF0C4CF49F
:10060000E06C1CEA11541DBF1CEA135594EA0C0F50
:1006100095EA0C0F00F0DEF82C4481EA030621EA8B
:100620004C5123EA4C5350EA013518BF52EA0335C6
:1006300041F4801143F4801338D0A0FB02CE4FF078
:100640000005E1FB02E506F00042E0FB03E54FF0A8
:100650000006E1FB03569CF0000F18BF4EF0010EA0
:10066000A4F1FF04B6F5007F64F5407404D25FEA9C
:100670004E0E6D4146EB060642EAC62141EA55514F
:100680004FEAC52040EA5E504FEACE2EB4F1FD0C91
:1006900088BFBCF5E06F1ED8BEF1004F08BF5FEA0F
:1006A000500E50F1000041EB045170BD06F00046C1
:1006B00046EA010140EA020081EA0301B4EB5C046E
:1006C000C2BFD4EB0C0541EA045170BD41F4801166
:1006D0004FF0000E013C00F3AB8014F1360FDEBF8B
:1006E000002001F0004170BDC4F10004203C35DA67
:1006F0000C341BDC04F11404C4F1200500FA05F3EA
:1007000020FA04F001FA05F240EA020001F000428A
:1007100021F0004110EBD37021FA04F642EB060100
:100720005EEA430E08BF20EAD37070BDC4F10C042A
:10073000C4F1200500FA04F320FA05F001FA04F2EE
:1007400040EA020001F0004110EBD37041F10001DA
:100750005EEA430E08BF20EAD37070BDC4F12005E5
:1007600000FA05F24EEA020E20FA04F301FA05F24D
:1007700043EA020321FA04F001F0004121FA04F2F5
:1007800020EA020000EBD3705EEA430E08BF20EAC5
:10079000D37070BD94F0000F0FD101F000464000FF
:1007A00041EB010111F4801F08BF013CF7D041EA81
:1007B000060195F0000F18BF704703F00046520085
:1007C00043EB030313F4801F08BF013DF7D043EA56
:1007D0000603704794EA0C0F0CEA135518BF95EA0C
:1007E0000C0F0CD050EA410618BF52EA4306D1D193
:1007F00081EA030101F000414FF0000070BD50EAB2
:10080000410606BF1046194652EA430619D094EA3B
:100810000C0F02D150EA013613D195EA0C0F05D125
:1008200052EA03361CBF104619460AD181EA030179
:1008300001F0004141F0FE4141F470014FF0000031
:1008400070BD41F0FE4141F4780170BD70B54FF0CC
:10085000FF0C4CF4E06C1CEA11541DBF1CEA13554C
:1008600094EA0C0F95EA0C0F00F0A7F8A4EB05042E
:1008700081EA030E52EA03354FEA013100F0888025
:100880004FEA03334FF0805545EA131343EA1263EE
:100890004FEA022245EA111545EA10654FEA0026A3
:1008A0000EF000419D4208BF964244F1FD0404F55C
:1008B000407402D25B084FEA3202B61A65EB0305B8
:1008C0005B084FEA32024FF480104FF4002CB6EB75
:1008D000020E75EB030E22BFB61A754640EA0C00F5
:1008E0005B084FEA3202B6EB020E75EB030E22BF35
:1008F000B61A754640EA5C005B084FEA3202B6EB76
:10090000020E75EB030E22BFB61A754640EA9C0034
:100910005B084FEA3202B6EB020E75EB030E22BF04
:10092000B61A754640EADC0055EA060E18D04FEAC2
:10093000051545EA16754FEA06164FEAC30343EA62
:1009400052734FEAC2025FEA1C1CC0D111F4801F2F
:100950000BD141EA00014FF000004FF0004CB6E728
:1009600011F4801F04BF01430020B4F1FD0C88BFC7
:10097000BCF5E06F3FF6AFAEB5EB030C04BFB6EBD2
:10098000020C5FEA500C50F1000041EB045170BDC5
:100990000EF0004E4EEA113114EB5C04C2BFD4EBF2
:1009A0000C0541EA045170BD41F480114FF0000E76
:1009B000013C90E645EA060E8DE60CEA135594EAF2
:1009C0000C0F08BF95EA0C0F3FF43BAF94EA0C0FF5
:1009D0000AD150EA01347FF434AF95EA0C0F7FF46A
:1009E00025AF104619462CE795EA0C0F06D152EABE
:1009F00003353FF4FDAE1046194622E750EA4106A2
:100A000018BF52EA43067FF4C5AE50EA41047FF4B2
:100A10000DAF52EA43057FF4EBAE12E74FF0FF3C17
:100A200006E000BF4FF0010C02E000BF4FF0010CE8
:100A30004DF804CD4FEA410C7FEA6C5C4FEA430C61
:100A400018BF7FEA6C5C1BD001B050EA410C0CBFB0
:100A500052EA430C91EA030F02BF90EA020F002012
:100A6000704710F1000F91EA030F58BF994208BF79
:100A700090422CBFD8176FEAE37040F00100704736
:100A80004FEA410C7FEA6C5C02D150EA013C07D18D
:100A90004FEA430C7FEA6C5CD6D152EA033CD3D0D8
:100AA0005DF8040B704700BF8446104662468C46D2
:100AB0001946634600E000BF01B5FFF7B7FF002805
:100AC00048BF10F1000F01BD4DF808EDFFF7F4FF2E
:100AD0000CBF012000205DF808FB00BF4DF808EDB9
:100AE000FFF7EAFF34BF012000205DF808FB00BFDC
:100AF0004DF808EDFFF7E0FF94BF012000205DF8FE
:100B000008FB00BF4DF808EDFFF7CEFF94BF0120B2
:100B100000205DF808FB00BF4DF808EDFFF7C4FFAB
:100B200034BF012000205DF808FB00BF4FEA410CF4
:100B30007FEA6C5C02D150EA013C0AD14FEA430CD7
:100B40007FEA6C5C02D152EA033C02D14FF0000014
:100B500070474FF0010070474FEA410212F5001252
:100B600015D211D56FF47873B3EB625212D94FEAF4
:100B7000C12343F0004343EA505311F0004F23FADE
:100B800002F018BF404270474FF00000704750EA33
:100B9000013005D111F0004008BF6FF000407047F0
:100BA0004FF00000704700BF4A0011D212F500124A
:100BB00011D20DD56FF47873B3EB62520ED44FEAB5
:100BC000C12343F0004343EA505323FA02F0704735
:100BD0004FF00000704750EA013002D14FF0FF3073
:100BE00070474FF0000070474FEA4102B2F1E04316
:100BF00024BFB3F5001CDCF1FE5C0DD901F0004C04
:100C00004FEAC0024CEA5070B2F1004F40EB830053
:100C100008BF20F00100704711F0804F21D113F17F
:100C20003872BCBF01F00040704741F480114FEAB8
:100C30005252C2F11802C2F1200C10FA0CF320FA41
:100C400002F018BF40F001004FEAC1234FEAD3235E
:100C500003FA0CFC40EA0C0023FA02F34FEA4303C8
:100C6000CCE77FEA625307D150EA01331EBF4FF051
:100C7000FE4040F44000704701F0004040F0FE406C
:100C800040F40000704700BF53B94AB9002908BFBB
:100C900000281CBF4FF0FF314FF0FF3000F070B95B
:100CA000ADF1080C6DE904CE00F006F8DDF804E0C3
:100CB000DDE9022304B070472DE9F047089E0D4698
:100CC00004460F46002B4AD18A42944665D9B2FAAF
:100CD00082F343B102FA03FCC3F120029F4020FAE1
:100CE00002F217439C404FEA1C4E1FFA8CF5B7FBEB
:100CF000FEF1220C0EFB117742EA074201FB05F0E0
:100D000090420AD91CEB020201F1FF3780F01C81EE
:100D1000904240F2198102396244121AA4B2B2FB25
:100D2000FEF00EFB102244EA024400FB05F5A5424A
:100D30000AD91CEB040400F1FF3280F00781A542C0
:100D400040F204816444023840EA0140641B0021FF
:100D50001EB1DC400023C6E90043BDE8F0878B42AA
:100D600008D9002E00F0ED800021C6E900050846F4
:100D7000BDE8F087B3FA83F1002949D1AB4202D331
:100D8000824200F2F880841A65EB030201201746C4
:100D9000002EE2D0C6E90047DFE702B9FFDEB2FA73
:100DA00082F3002B40F090808A1A4FEA1C471FFA0A
:100DB0008CFE0121B2FBF7F507FB1520220C42EA5D
:100DC00000420EFB05F0904208D91CEB020205F12F
:100DD000FF3802D2904200F2CB804546121AA4B2EC
:100DE000B2FBF7F007FB102244EA02440EFB00FEC0
:100DF000A64508D91CEB040400F1FF3202D2A64537
:100E000000F2BB801046A4EB0E0440EA05409FE7C9
:100E1000C1F120078B4022FA07FC4CEA030C05FACB
:100E200001F420FA07F3FD404FEA1C492343B5FBC8
:100E3000F9F81FFA8CFE09FB18551C0C44EA05440E
:100E400008FB0EF5A54202FA01F200FA01F00BD9F7
:100E50001CEB040408F1FF3A80F08880A54240F2C0
:100E60008580A8F102086444641B9DB2B4FBF9F3C9
:100E700009FB134445EA044403FB0EFEA64508D9CA
:100E80001CEB040403F1FF356CD2A6456AD9023B82
:100E9000644443EA0843A3FB0295A4EB0E04AC426E
:100EA000C846AE4656D353D056B1B0EB080264EBF9
:100EB0000E0404FA07F7CA40CC401743C6E9007491
:100EC00018460021BDE8F087C3F1200102FA03FCB7
:100ED00020FA01F225FA01F19D402A434FEA1C470E
:100EE0001FFA8CFEB1FBF7F007FB1015110C41EA5D
:100EF000054100FB0EF58D4204FA03F408D91CEB02
:100F0000010100F1FF382FD28D422DD90238614402
:100F1000491B92B2B1FBF7F507FB151142EA0142FA
:100F200005FB0EF1914208D91CEB020205F1FF38D6
:100F300016D2914214D9023D6244521A45EA004148
:100F400038E73146304608E73946E6E61046FBE624
:100F50004845A9D2B9EB020865EB0C0E013BA3E7AB
:100F60004546EAE72B4694E74046D1E7D0467BE783
:100F7000023D624432E708460AE76444023842E729
:100F8000704700BF80B500AF04F084F900F074F83A
:100F900000F04AFC00F012FC00F03CFB00F008FA04
:100FA00000F05AFA00F082F900F0FEFA00F0DCFBE3
:100FB00000F020F900F04CF900F0A2FA00F0BAF8C5
:100FC00003F03AFC0AF052F9194A002119480AF0D4
:100FD00097F90346184A1360184A002118480AF086
:100FE0008FF90346174A1360174A002117480AF081
:100FF00087F90346164A1360164A002116480AF07C
:101000007FF90346154A1360154A002115480AF076
:1010100077F90346144A1360144A002114480AF071
:101020006FF90346134A13600AF044F9FEE700BF64
:101030003819010859320008BC0500205C19010864
:1010400069320008C0050020801901081941000814
:10105000C4050020A419010861420008C805002049
:10106000C819010839440008CC050020EC19010812
:1010700071440008D005002080B594B000AF07F19E
:1010800020033022002118460DF0CFFB07F10C039E
:1010900000221A605A609A60DA601A610023BB600D
:1010A000224B1B6C214A43F0805313641F4B1B6C73
:1010B00003F08053BB60BB6800237B601C4B1B6844
:1010C0001B4A43F480431360194B1B6803F48043AD
:1010D0007B607B6802233B620123FB6210233B633E
:1010E0000023BB6307F12003184606F0F3FE034616
:1010F000002B01D003F0F4F90F23FB6000233B61C8
:1011000000237B610023BB610023FB6107F10C031B
:101110000021184607F056F90346002B01D003F0D2
:10112000DFF900BF5037BD4680BD00BF0038024028
:101130000070004080B584B000AF3B4600221A60CA
:101140005A609A60DA60284B284A1A60264B0022BF
:101150005A60254B00229A60234B01221A61224BD0
:1011600001221A76204B002283F820201E4B0022F9
:10117000DA621D4B1E4A9A621B4B0022DA601A4B40
:101180000222DA61184B002283F83020164B01222C
:101190005A61154804F014F90346002B01D003F0FE
:1011A0009FF90B233B6001237B600023BB603B4620
:1011B00019460D4804F062FA0346002B01D003F0F3
:1011C0008FF90C233B6002237B603B46194606489F
:1011D00004F054FA0346002B01D003F081F900BF5C
:1011E0001037BD4680BD00BF6C02002000200140CA
:1011F0000100000F80B500AF124B134A1A60114B6B
:10120000124A5A600F4B00229A600E4B0022DA609D
:101210000C4B4FF480421A610A4B00225A61094B71
:1012200000229A61074B0022DA61064B00221A6203
:10123000044805F099FB0346002B01D003F050F958
:1012400000BF80BD1802002000540040801A060034
:1012500080B500AF124B134A1A60114B124A5A6004
:101260000F4B00229A600E4B0022DA600C4B4FF4B9
:1012700080421A610A4B00225A61094B00229A618E
:10128000074B0022DA61064B00221A62044805F07F
:101290006BFB0346002B01D003F022F900BF80BD99
:1012A0001403002000580040A086010080B592B0D1
:1012B00000AF07F1400300221A605A6007F12403CF
:1012C00000221A605A609A60DA601A615A619A6163
:1012D0003B1D2022002118460DF0A7FA324B334A5D
:1012E0001A60314BA0225A602F4B00229A602E4B7D
:1012F0004FF6FF72DA602C4B00221A612A4B002253
:101300005A61294B00229A61274807F08AFA03465E
:10131000002B01D003F0E4F800233B6400237B643E
:1013200007F140031946204808F012FE0346002B3F
:1013300001D003F0D5F860237B620023BB62002359
:10134000FB6200237B630023BB630023FB6307F185
:1013500024030C221946144807F0CAFF0346002B49
:1013600001D003F0BDF800237B600023BB600023A5
:10137000FB6000233B6100237B614FF40053BB61A2
:1013800000233B623B1D1946074808F05DFE0346FB
:10139000002B01D003F0A4F8034803F09DFD00BF2B
:1013A0004837BD4680BD00BFC80300200000014093
:1013B00080B58CB000AF07F10C0324220021184641
:1013C0000DF033FA3B1D00221A605A60214B4FF09A
:1013D00080421A601F4B00225A601E4B00229A6006
:1013E0001C4B4FF6FF72DA601A4B00221A61194B40
:1013F00000229A610323FB6000233B6101237B6190
:101400000023BB610A23FB6100233B6201237B6253
:101410000023BB620A23FB6207F10C0319460D4847
:1014200007F08EFC0346002B01D003F059F800238F
:101430007B600023BB603B1D1946064808F088FD11
:101440000346002B01D003F04BF800BF3037BD46F8
:1014500080BD00BF1004002080B58CB000AF07F144
:101460000C032422002118460DF0DFF93B1D002259
:101470001A605A60204B214A1A601F4B00225A60A2
:101480001D4B00229A601C4B4FF6FF72DA601A4B1C
:1014900000221A61184B00229A610323FB6000238B
:1014A0003B6101237B610023BB610A23FB610023B5
:1014B0003B6201237B620023BB620A23FB6207F1CC
:1014C0000C0319460C4807F03BFC0346002B01D0E7
:1014D00003F006F800237B600023BB603B1D194628
:1014E000054808F035FD0346002B01D002F0F8FF57
:1014F00000BF3037BD4680BD5804002000040040C6
:1015000080B586B000AF07F1100300221A605A6060
:101510003B4600221A605A609A60DA60204B214AEA
:101520001A601F4B47225A601D4B00229A601C4BC9
:101530004FF6FF72DA601A4B00221A61184B002234
:101540009A61174807F084FA0346002B01D002F095
:10155000C7FF00233B6100237B6107F1100319469D
:101560000F4808F0F5FC0346002B01D002F0B8FF4D
:1015700000233B6001237B600023BB600023FB60F2
:101580003B4600221946064807F016FE0346002B8C
:1015900001D002F0A5FF00BF1837BD4680BD00BFD7
:1015A000A00400200008004080B582B000AF3B4698
:1015B00000221A605A60154B154A1A60134B00221C
:1015C0005A60124B00229A60104B4FF6FF72DA609D
:1015D0000E4B00229A610D4807F0D4F80346002B09
:1015E00001D002F07DFF00233B6000237B603B467F
:1015F0001946064808F0ACFC0346002B01D002F067
:101600006FFF00BF0837BD4680BD00BFE804002063
:101610000010004080B596B000AF07F148030022EB
:101620001A605A609A60DA6007F1400300221A607B
:101630005A6007F1240300221A605A609A60DA6047
:101640001A615A619A613B1D2022002118460DF053
:10165000ECF8434B434A1A60414B00225A60404B1E
:1016600000229A603E4B41F61F42DA603C4B00225A
:101670001A613B4B00225A61394B00229A6138486B
:1016800007F080F80346002B01D002F029FF4FF449
:101690008053BB6407F148031946314807F0EAFE5E
:1016A0000346002B01D002F01BFF2D4807F0B9F8CC
:1016B0000346002B01D002F013FF00233B640023FC
:1016C0007B6407F140031946254808F041FC0346B6
:1016D000002B01D002F004FF60237B620023BB6279
:1016E0000023FB6200233B6300237B630023BB6377
:1016F0000023FB6307F1240300221946184807F072
:10170000F7FD0346002B01D002F0EAFE07F12403A7
:1017100004221946124807F0EBFD0346002B01D0C6
:1017200002F0DEFE00237B600023BB600023FB6031
:1017300000233B6100237B614FF40053BB61002316
:101740003B623B1D1946064808F07EFC0346002B11
:1017500001D002F0C5FE00BF5837BD4680BD00BFB6
:10176000300500200004014080B500AF114B124A43
:101770001A60104B4FF4E1325A600E4B00229A600F
:101780000C4B0022DA600B4B00221A61094B0C2231
:101790005A61084B00229A61064B0022DA61054823
:1017A00008F0B8FC0346002B01D002F099FE00BF00
:1017B00080BD00BF780500200048004080B582B0A1
:1017C00000AF00237B60174B1B6B164A43F40013DA
:1017D0001363144B1B6B03F400137B607B680023C3
:1017E0003B60104B1B6B0F4A43F4800313630D4B9C
:1017F0001B6B03F480033B603B68002205210B2038
:1018000004F0B7FA0B2004F0D0FA002205213820AA
:1018100004F0AFFA382004F0C8FA00BF0837BD461C
:1018200080BD00BF0038024080B58CB000AF07F12A
:101830001C0300221A605A609A60DA601A61002361
:10184000BB615A4B1B6B594A43F010031363574B50
:101850001B6B03F01003BB61BB6900237B61534B1F
:101860001B6B524A43F080031363504B1B6B03F016
:1018700080037B617B6900233B614C4B1B6B4B4AB4
:1018800043F004031363494B1B6B03F004033B61F8
:101890003B690023FB60454B1B6B444A43F001034B
:1018A0001363424B1B6B03F00103FB60FB680023D7
:1018B000BB603E4B1B6B3D4A43F0020313633B4B43
:1018C0001B6B03F00203BB60BB6800237B60374BDC
:1018D0001B6B364A43F008031363344B1B6B03F056
:1018E00008037B607B6800224FF4BC61304805F040
:1018F00021F800223C212F4805F01CF800224FF46B
:1019000000512D4805F016F8002210212B4805F053
:1019100011F84FF4BC63FB6101233B6200237B623F
:101920000023BB6207F11C031946214804F066FE40
:101930003C23FB6101233B6200237B620223BB62E9
:1019400007F11C0319461B4804F058FE4FF40073BE
:10195000FB614FF488133B6200237B6207F11C0399
:101960001946134804F04AFE4FF40053FB6101236B
:101970003B6200237B620023BB6207F11C03194614
:101980000D4804F03BFE1023FB6101233B62002362
:101990007B620023BB6207F11C031946074804F071
:1019A0002DFE00BF3037BD4680BD00BF003802406D
:1019B0000010024000000240000C024000040240FF
:1019C00080B582B000AF78607B68414A934277D19E
:1019D0007B681B7F012B73D13E4B1B78002B1AD1E8
:1019E0000021786807F00EFE03463B4A1360394B2E
:1019F00001221A707B681B681A6A7B681B6822F0D8
:101A00000A021A627B681B681A6A7B681B6842F0CC
:101A100002021A6254E02F4B1B78012B50D1002197
:101A2000786807F0EFFD03462C4A13602B4B1A68C9
:101A3000294B1B689A4207D9284B1A68264B1B680A
:101A4000D31A274A13600FE0234B1A68234B1B68F5
:101A50009A4209D9214B1A681F4B1B68D31A03F508
:101A60007F43FF331E4A13601D4B1B681846FEF769
:101A700049FD15A3D3E90023FEF7E8FE02460B4615
:101A800010461946FFF790F80346164A1360114BAB
:101A900000221A707B681B681A6A7B681B6822F038
:101AA0000A021A627B681A687B681B68126A1A62EB
:101AB000074B1B68DA68064B1B6822F00202DA60EB
:101AC00000BF0837BD4680BD9A99999999992A40D7
:101AD000A0040020F4050020E8050020EC0500200B
:101AE000F0050020F805002080B483B000AF034665
:101AF000FB80094B1B6800225A6200BF064B1B6823
:101B00005A6AFB889A42F9D300BF00BF0C37BD4622
:101B10005DF8047B704700BFA004002080B500AFD3
:101B200001224FF400510B4804F004FF1420FFF78A
:101B3000DBFF00224FF40051064804F0FBFE064B89
:101B40001B68DA68044B1B6842F00202DA6000BFCF
:101B500080BD00BF000C0240A004002080B582B010
:101B600000AF78607B681B68194A93422CD1194BEF
:101B70001A78194B1A70174B5A78184B1A70154B64
:101B80009B781A46920013441A4691001A460B4657
:101B900013449B00DAB20F4BDB78194689000B44E3
:101BA0005B00DBB21344DAB20A4B1B791344DBB29D
:101BB0003033DAB20A4B1A700A4B01221A7005222E
:101BC0000449094808F085FB00BF0837BD4680BDC1
:101BD00000480040D4050020040200200502002037
:101BE00006020020070200207805002080B483B0A0
:101BF00000AF78601B4B1B889AB21A4B9B889BB234
:101C000013449AB2174B1B899BB213449AB2154BDB
:101C10009B899BB213449AB2124B1B8A9BB213440A
:101C20009AB2114B1A800F4B5B889AB20D4BDB882E
:101C30009BB213449AB20B4B5B899BB213449AB28A
:101C4000084BDB899BB213449AB2064B5B8A9BB26A
:101C500013449AB2054B1A8000BF0C37BD465DF89D
:101C6000047B704728060020500600205206002002
:101C700080B483B000AF78601B4B9B8A9AB21A4B3A
:101C80001B8B9BB213449AB2174B9B8B9BB2134492
:101C90009AB2154B1B8C9BB213449AB2124B9B8C7D
:101CA0009BB213449AB2114B1A800F4BDB8A9AB243
:101CB0000D4B5B8B9BB213449AB20B4BDB8B9BB2ED
:101CC00013449AB2084B5B8C9BB213449AB2064BF6
:101CD000DB8C9BB213449AB2054B1A8000BF0C37C1
:101CE000BD465DF8047B70472806002050060020A2
:101CF000520600200000000080B584B000AF03460B
:101D0000FB80FB881846FEF70DFC20A3D3E90023D7
:101D1000FEF772FC02460B46104619464FF00002D1
:101D2000194BFEF793FD02460B4610461946FEF787
:101D30005BFF0346FB60F868FEF706FC02460B46B5
:101D40009FED0D1B43EC102B0EF068FE51EC100BB9
:101D50000BA3D3E90023FEF74FFC02460B461046C7
:101D60001946FEF721FF03469BB218461037BD46C1
:101D700080BD00BFAFF30080F853E3A59BC4F2BF62
:101D8000B0726891EDFC3D400000B040666666664A
:101D900066660A4090B58DB000AFF860B9607A60B1
:101DA0004D4B07F118040FCB07C4238002341B0CE2
:101DB000237007F1270300221A601A71FB68BA68C2
:101DC0001A60FB687A685A6007F117031A46002107
:101DD000F86800F085F803461A46404B1A70002256
:101DE0007F21F86800F09EF803461A463B4B1A70B4
:101DF00020220321F86800F095F803461A46374B75
:101E00001A7009220621F86800F08CF803461A4679
:101E1000324B1A703E220721F86800F083F803461F
:101E20001A462E4B1A7040220521F86800F07AF805
:101E300003461A46294B1A7000220321F86800F065
:101E400071F803461A46254B1A7020227F21F86844
:101E500000F068F803461A46204B1A703922012117
:101E6000F86800F05FF803461A461C4B1A7000220F
:101E70000221F86800F056F803461A46174B1A700C
:101E800039221421F86800F04DF803461A46134B26
:101E90001A7000221521F86800F044F803461A462B
:101EA0000E4B1A7008220021F86800F03BF8034638
:101EB0001A460A4B1A7000227F21F86800F032F8A7
:101EC00003461A46054B1A700A2003F055FA002300
:101ED00018463437BD4690BD00190108D9050020C9
:101EE00080B588B004AFF8600B467A60FB72FB687F
:101EF0001868FB7A9AB24FF0FF33029301230193E3
:101F00007B6800930123D02104F06CFF03461A463E
:101F1000034B1A70024B1B7818461037BD4680BD24
:101F2000D905002080B588B004AF78600B46FB70FF
:101F30001346BB70BB78FB737B681868FB789AB25A
:101F40004FF0FF3302930123019307F10F03009336
:101F50000123D02104F04CFE034618461037BD463D
:101F600080BD000080B483B000AF78607B681B68E0
:101F7000054A934202D1054B02221A7000BF0C376A
:101F8000BD465DF8047B704700540040E00500202A
:101F9000B0B584B000AF87ED010A3860A04B4FF0B8
:101FA00000021A609F4B1B685A221A640023FB60D0
:101FB0000023BB604FF4487003F0DEF94FF4487023
:101FC00009F030FA3B68002B40F048814FF42F6352
:101FD000BB604FF49673FB6000220821924804F026
:101FE000A9FC01220421904804F0A4FC0022102145
:101FF0008D4804F09FFC012220218B4804F09AFCBC
:102000008A4B1B68BA685A63884B1B68FA689A63E4
:102010000A2009F007FAD7ED017AF0EEE77A17EE19
:10202000900AFEF791FA04460D467D4BD3ED007AF7
:10203000F0EEE77A17EE900AFEF786FA02460B46B4
:1020400020462946FEF720F902460B46104619465F
:102050004FF00002764BFEF74BFD0346002B04D0F9
:102060004FF46173BB600023FB60D7ED017AF0EEA3
:10207000E77A17EE900AFEF767FA04460D46684BBA
:10208000D3ED007AF0EEE77A17EE900AFEF75CFAED
:1020900002460B4620462946FEF7F6F802460B4656
:1020A000104619464FF00002624BFEF721FD034631
:1020B000002B00D1A4E700BFD7ED017A9FED5E7A37
:1020C000F4EEC77AF1EE10FA73DBD7ED017A9FEDEB
:1020D0005B7AF4EEC77AF1EE10FA6AD8584B1B68B7
:1020E000022B36D0022B4CDC002B02D0012B18D057
:1020F00047E0544BD3ED007A9FED537A77EEC77AE1
:10210000504BC3ED007A514BD3ED007AB3EE067A13
:1021100077EE877A4D4BC3ED007A494B03221A6064
:1021200047E0484BD3ED007AB3EE067A77EE877A34
:10213000444BC3ED007A454BD3ED007A9FED427AD4
:1021400077EE877A414BC3ED007A3D4B00221A604F
:102150002FE03C4BD3ED007A9FED3B7A77EE877A08
:10216000384BC3ED007A394BD3ED007AB3EE067AE3
:1021700077EEC77A354BC3ED007A314B01221A60F6
:1021800017E0304BD3ED007AB3EE067A77EEC77ADC
:102190002C4BC3ED007A2D4BD3ED007A9FED2A7ABC
:1021A00077EEC77A294BC3ED007A254B02221A60DD
:1021B00000BFD7ED017A9FED267AF4EEC77AF1EEF3
:1021C00010FAC0F2C480D7ED017A9FED227AF4EEC6
:1021D000C77AF1EE10FA00F2BA801C4BD3ED007A08
:1021E0009FED1D7A77EE877A184BC3ED007A154B79
:1021F0001B681846FEF7A8F907A3D3E90023FEF7EA
:1022000043F802460B4610461946FEF7EDFC03461E
:102210000C4A13609BE000BF333333333333D33F77
:10222000DC050020C803002000000240300500202B
:10223000000039400000F03F000096420000BE421E
:102240000C060020040600200000184208060020AA
:102250000000344200005042000028423B68012B3D
:1022600075D140F62823BB604FF49673FB600122C2
:1022700008213F4804F05EFB002204213C4804F0A2
:1022800059FB012210213A4804F054FB002220217E
:10229000374804F04FFB374B1B68BA685A63354B1D
:1022A0001B68FA689A630A2009F0BCF8D7ED017A36
:1022B000F0EEE77A17EE900AFEF746F904460D466F
:1022C0002D4BD3ED007AF0EEE77A17EE900AFEF789
:1022D0003BF902460B4620462946FDF7D5FF02464C
:1022E0000B46104619464FF00002244BFEF700FC47
:1022F0000346002B04D04FF46173BB600023FB60E6
:10230000D7ED017AF0EEE77A17EE900AFEF71CF9A6
:1023100004460D46184BD3ED007AF0EEE77A17EE3F
:10232000900AFEF711F902460B4620462946FDF7B2
:10233000ABFF02460B46104619464FF00002104B09
:10234000FEF7D6FB0346002B00D1A4E700BF0D4BE0
:102350001B6893221A64074B1B6800225A63054BC3
:102360001B6800229A6300BF1037BD46B0BD00BF96
:102370000000024030050020DC050020000039404C
:102380000000F03FC8030020B0B584B000AF87ED77
:10239000010A3860A04B4FF000021A609F4B1B6887
:1023A000D2221A640023FB600023BB604FF4487004
:1023B00002F0E2FF4FF4487009F034F83B68002B5C
:1023C00040F044814FF42F63FB604FF49673BB6081
:1023D00000220821924804F0ADFA0122042190481D
:1023E00004F0A8FA002210218D4804F0A3FA01227B
:1023F00020218B4804F09EFA8A4B1B68BA685A6306
:10240000884B1B68FA689A630A2009F00BF8D7ED2D
:10241000017AF0EEE77A17EE900AFEF795F8044697
:102420000D467D4BD3ED007AF0EEE77A17EE900A79
:10243000FEF78AF802460B4620462946FDF724FFA0
:1024400002460B46104619464FF00002764BFEF747
:102450004FFB0346002B04D00023BB604FF4617395
:10246000FB60D7ED017AF0EEE77A17EE900AFEF7FF
:102470006BF804460D46684BD3ED007AF0EEE77A30
:1024800017EE900AFEF760F802460B4620462946F2
:10249000FDF7FAFE02460B46104619464FF00002C1
:1024A000624BFEF725FB0346002B00D1A4E700BFDB
:1024B000D7ED017A9FED5E7AF4EEC77AF1EE10FA6D
:1024C00073DBD7ED017A9FED5B7AF4EEC77AF1EE1C
:1024D00010FA6AD8584B1B68022B36D0022B4CDC02
:1024E000002B02D0012B18D047E0544BD3ED007ADB
:1024F000B3EE0F7A77EE877A504BC3ED007A504BEC
:10250000D3ED007AB3EE007A77EE877A4C4BC3EDC9
:10251000007A494B01221A6047E0484BD3ED007A1C
:10252000B3EE007A77EE877A444BC3ED007A444BE2
:10253000D3ED007AB3EE0F7A77EEC77A404BC3ED56
:10254000007A3D4B02221A602FE03C4BD3ED007A1B
:10255000B3EE0F7A77EEC77A384BC3ED007A384B7B
:10256000D3ED007AB3EE007A77EEC77A344BC3ED41
:10257000007A314B03221A6017E0304BD3ED007A1A
:10258000B3EE007A77EEC77A2C4BC3ED007A2C4B72
:10259000D3ED007AB3EE0F7A77EE877A284BC3ED4E
:1025A000007A254B00221A6000BFD7ED017A9FED1B
:1025B000257AF4EEC77AF1EE10FAC0F2C080D7EDBA
:1025C000017A9FED217AF4EEC77AF1EE10FA00F26B
:1025D000B6801B4B1B681846FDF7B6FF0CA3D3E96A
:1025E0000023FDF753FE02460B4610461946FEF740
:1025F000FBFA0346124A1360104BD3ED007AB6EE95
:10260000007A77EE877A0D4BC3ED007A97E000BF32
:102610003333333333B34340DC050020C803002099
:102620000000024030050020000039400000F03F6B
:102630000000AA420000D2420C060020040600203E
:10264000080600200000504200006C423B68012B4D
:1026500075D140F62823FB604FF49673BB600122CE
:1026600008213F4804F066F9002204213C4804F0A8
:1026700061F9012210213A4804F05CF9002220217E
:10268000374804F057F9374B1B68BA685A63354B23
:102690001B68FA689A630A2008F0C4FED7ED017A35
:1026A000F0EEE77A17EE900AFDF74EFF04460D466E
:1026B0002D4BD3ED007AF0EEE77A17EE900AFDF796
:1026C00043FF02460B4620462946FDF7DDFD024644
:1026D0000B46104619464FF00002244BFEF708FA4D
:1026E0000346002B04D00023BB604FF46173FB60F2
:1026F000D7ED017AF0EEE77A17EE900AFDF724FFA6
:1027000004460D46184BD3ED007AF0EEE77A17EE4B
:10271000900AFDF719FF02460B4620462946FDF7B1
:10272000B3FD02460B46104619464FF00002104B0F
:10273000FEF7DEF90346002B00D1A4E700BF0D4BE6
:102740001B688A221A64074B1B6800225A63054BD8
:102750001B6800229A6300BF1037BD46B0BD00BFA2
:102760000000024030050020DC0500200000394058
:102770000000F03FC8030020B0B58CB000AF786017
:1027800039609D4B1B688D221A649C4BFB629C4BED
:1027900000221A609B4B00221A609B4B1B68BB6295
:1027A0007868FDF7BFFE4FF00002984BFEF74EF839
:1027B00002460B461046194683A3D3E90023FDF7D2
:1027C0001BFF02460B4610461946FEF7C5F90346A5
:1027D0007B623B68002B22D17B680A2B1FDC8C4B71
:1027E0001B78DBB2732B1AD18A4B40F23C521A6031
:1027F000894B40F2FB421A60874B1A68874B1B6873
:102800005A63844B1A68854B1B689A637D4B1B681F
:102810005B007A6A9A4200DBE6E700BFE1E23B68D0
:10282000002B22D17B680A2B1FDC794B1B78DBB293
:10283000772B1AD1774B40F2F6421A60764B40F272
:10284000EC421A60744B1A68744B1B685A63714BE4
:102850001A68724B1B689A636A4B1B685B007A6A42
:102860009A4200DBE6E700BFBBE2674BD3ED007A9C
:10287000D7ED0A0AB0EE670A00F0BEFC87ED080A41
:10288000634B1B78DBB2772B18D1386AFDF75CFEFF
:102890004FA3D3E90023FDF7AFFE02460B461046D7
:1028A00019464DA3D3E90023FDF7F0FC02460B4681
:1028B00010461946FEF778F9034615E0386AFDF729
:1028C00043FE43A3D3E90023FDF796FE02460B46E1
:1028D00041A1D1E90001FDF7D7FC02460B461046A5
:1028E0001946FEF761F90346434A126813643B68D0
:1028F000002B5ED1464B1B78DBB2772B59D1414B75
:102900001B685B007A6AD41A7B6A07EE903AF8EE8D
:10291000E77A17EE900AFDF717FE31A3D3E90023FB
:10292000FDF76AFE02460B4610461946FEF714F9FB
:1029300003469C423DDDF86AFDF706FE2AA3D3E973
:102940000023FEF7CBF80346002B0FD0F86AFDF703
:10295000FBFD27A3D3E90023FDF798FC02460B46B5
:1029600010461946FEF740F90346FB62D7ED0B7A95
:102970009FED2B7A67EE877AFDEEE77A17EE902AC5
:10298000244B1A60D7ED0B7A9FED267A67EE877A93
:10299000FDEEE77A17EE902A1F4B1A601E4B1A685D
:1029A0001E4B1B685A631B4B1A681C4B1B689A63AF
:1029B000ACE03B68002B40F0A980154B1B78DBB2E4
:1029C000772B40F0A38099E0000000000038984089
:1029D00054E3A59BC420F03F0000000000A061402C
:1029E000333333333333D33FCDCCCCCCCCCCF83FA3
:1029F000613255302AA9333FC8030020CDCCCC3DED
:102A0000FC05002000060020DC0500200000354009
:102A100004020020100600201406002030050020CB
:102A200000005C4500305E45B34B1B685B007A6A72
:102A3000D31A07EE903AF8EEE77A17EE900AFDF710
:102A400083FDA5A3D3E90023FDF7D6FD02460B467F
:102A500014461D467B6A07EE903AF8EEE77A17EEC9
:102A6000900AFDF771FD02460B4620462946FDF708
:102A7000EDFE02460B4610461946FEF7B5F8034632
:102A8000FB62D7ED0B7A9FED9D7A67EE877A17EEA2
:102A9000900AFDF759FD4FF00002994BFDF7F6FB48
:102AA00002460B4610461946FEF756F80346954A6D
:102AB0001360D7ED0B7A9FED947A67EE877A17EE65
:102AC000900AFDF741FD4FF000028D4BFDF7DEFB54
:102AD00002460B4610461946FEF73EF803468B4A5F
:102AE00013608A4B1A688A4B1B685A63854B1A68B5
:102AF000874B1B689A63322008F094FC7E4B1B685E
:102B00005A007B6ADE3B9A428EDB6AE13B68002B0F
:102B10005ED1804B1B78DBB2732B59D1764B1B688F
:102B20005B007A6AD41A7B6A07EE903AF8EEE77A8D
:102B300017EE900AFDF708FD69A3D3E90023FDF71E
:102B40005BFD02460B4610461946FEF705F80346A4
:102B50009C423DDDF86AFDF7F7FC63A3D3E900234F
:102B6000FDF7BCFF0346002B0FD0F86AFDF7ECFC25
:102B70005FA3D3E90023FDF789FB02460B4610460D
:102B80001946FEF731F80346FB62D7ED0B7A9FED4D
:102B90005B7A67EE877AFDEEE77A17EE902A594B5B
:102BA0001A60D7ED0B7A9FED5C7A67EE877AFDEEBF
:102BB000E77A17EE902A554B1A60544B1A68544B1B
:102BC0001B685A634F4B1A68514B1B689A637AE033
:102BD0003B68002B77D14F4B1B78DBB2732B72D144
:102BE00069E0454B1B685B007A6AD31A07EE903A9E
:102BF000F8EEE77A17EE900AFDF7A6FC36A3D3E9C4
:102C00000023FDF7F9FC02460B4614461D467B6A7D
:102C100007EE903AF8EEE77A17EE900AFDF794FC8B
:102C200002460B4620462946FDF710FE02460B469B
:102C300010461946FDF7D8FF0346FB62D7ED0B7A25
:102C40009FED2E7A67EE877A17EE900AFDF77CFCEF
:102C50004FF000022A4BFDF719FB02460B461046C7
:102C60001946FDF779FF0346264A1360D7ED0B7A24
:102C70009FED297A67EE877A17EE900AFDF764FCDC
:102C80004FF000021E4BFDF701FB02460B461046BB
:102C90001946FDF761FF03461C4A13601B4B1A6877
:102CA0001B4B1B685A63174B1A68194B1B689A63B6
:102CB000322008F0B7FB104B1B685A007B6ADE3BE2
:102CC0009A428EDB8DE03B68012B41D1114B1B7882
:102CD000DBB2772B3CD12FE09A9999999999E93FEA
:102CE000333333333333D33FCDCCCCCCCCCCF83FA0
:102CF000613255302AA9333F0006002000005C45B0
:102D000000208C401006002000305E451406002094
:102D1000300500200402002000E05D45AE4B1B683A
:102D2000192B09D8AD4B1B684FF470725A63AB4B2B
:102D30001B6840F2CA329A63A74B1B680F2BEDD871
:102D40004FF0FF330322A649A64807F030FA48E0C7
:102D50003B68012B11D1A44B1B78DBB2732B0CD138
:102D600000BF9D4B1B68182BFBD94FF0FF3303228C
:102D70009B499C4807F01BFA33E03B68022B1AD1B1
:102D8000994B1B78DBB2772B15D1984B1B889BB2E4
:102D900042F2273293420ED8954B1B889BB242F2E7
:102DA0002732934207D84FF0FF3303228C498D48D6
:102DB00007F0FDF915E03B68032B7FF456AD8A4B15
:102DC0001B78DBB2772B7FF450AD834B1B68132B42
:102DD0003FF64BAD4FF0FF3303228149814807F0A6
:102DE000E6F97E4B1B6800225A637C4B1B6800226D
:102DF0009A63804B1B688D221A64C82002F0BCFACB
:102E0000C82008F00FFB7C4B1B68022B00F0FE80F3
:102E1000022B00F36B81002B02D0012B6BD065E1FC
:102E2000714B1B78DBB2772B2FD1744B1B68184684
:102E3000FDF78AFB04460D46714B1B685B0007EEED
:102E4000903AF8EEE77A17EE900AFDF77DFB60A363
:102E5000D3E90023FDF7FAFC02460B46104619465B
:102E60004FF00002674BFDF7C7FB02460B462046BA
:102E70002946FDF70BFA02460B4610461946FDF7A8
:102E8000B3FE03465D4A13609AE1574B1B78DBB2F1
:102E9000732B40F09581594B1B681846FDF754FB86
:102EA00004460D46564B1B685B0007EE903AF8EE61
:102EB000E77A17EE900AFDF747FB45A3D3E9002315
:102EC000FDF7C4FC02460B46104619464FF00002BF
:102ED0004C4BFDF791FB02460B4620462946FDF779
:102EE000D3F902460B4610461946FDF77DFE034610
:102EF000424A136064E13C4B1B78DBB2772B2FD145
:102F0000414B1B681846FDF71FFB04460D463C4B22
:102F10001B685B0007EE903AF8EEE77A17EE900A2E
:102F2000FDF712FB2AA3D3E90023FDF78FFC02462D
:102F30000B46104619464FF00002324BFDF75CFB82
:102F400002460B4620462946FDF7A0F902460B46ED
:102F500010461946FDF748FE03462B4A136031E13F
:102F6000214B1B78DBB2732B40F02C81264B1B6866
:102F70001846FDF7E9FA04460D46214B1B685B0035
:102F800007EE903AF8EEE77A17EE900AFDF7DCFAD2
:102F90000FA3D3E90023FDF759FC02460B46104668
:102FA00019464FF00002174BFDF726FB02460B4671
:102FB00020462946FDF768F902460B461046194699
:102FC000FDF712FE0346104A1360FBE0AFF30080EA
:102FD0000000000000389840F8050020300500206F
:102FE0001419010878050020040200205006002072
:102FF00052060020C80300200C060020080600200E
:10300000000600200000354004060020744B1B78A9
:10301000DBB2772B04D0724B1B78DBB2412B2FD164
:10302000704B1B681846FDF78FFA04460D466E4B31
:103030001B685B0007EE903AF8EEE77A17EE900A0D
:10304000FDF782FA64A3D3E90023FDF7FFFB0246F4
:103050000B46104619464FF00002644BFDF7CCFAC0
:1030600002460B4620462946FDF70EF902460B465E
:1030700010461946FDF7B8FD03465A4A1360A3E00F
:10308000574B1B78DBB2732B40F09E80554B1B686F
:103090001846FDF759FA04460D46534B1B685B0072
:1030A00007EE903AF8EEE77A17EE900AFDF74CFA41
:1030B00049A3D3E90023FDF7C9FB02460B4610469E
:1030C00019464FF00002494BFDF796FA02460B46AF
:1030D00020462946FDF7DAF802460B461046194607
:1030E000FDF782FD03463F4A13606DE03C4B1B78C1
:1030F000DBB2772B2FD13E4B1B681846FDF724FA25
:1031000004460D46384B1B685B0007EE903AF8EE1C
:10311000E77A17EE900AFDF717FA2FA3D3E90023F9
:10312000FDF794FB02460B46104619464FF000028D
:103130002E4BFDF761FA02460B4620462946FDF765
:10314000A3F802460B4610461946FDF74DFD03460F
:10315000274A13603AE0224B1B78DBB2732B35D140
:10316000234B1B681846FDF7EFF904460D461E4B2E
:103170001B685B0007EE903AF8EEE77A17EE900ACC
:10318000FDF7E2F914A3D3E90023FDF75FFB024644
:103190000B46104619464FF00002144BFDF72CFA6F
:1031A00002460B4620462946FDF770F802460B46BC
:1031B00010461946FDF718FD03460D4A136005E059
:1031C00000BF04E000BF02E000BF00E000BF00BF9E
:1031D0003037BD46B0BD00BF000000000038984049
:1031E00004020020080600200006002000003540F0
:1031F000040600200000000080B584B000AF87ED19
:10320000010AC7ED000A97ED017AD7ED007A77EE53
:10321000677AC7ED037AD7ED037AF0EEE77A17EE17
:10322000900AFDF791F90AA3D3E90023FDF756FCB4
:103230000346002B02D04FF00003FB60FB6807EE53
:10324000903AB0EE670A1037BD4680BDAFF30080FC
:103250009A9999999999B93F80B582B000AF7860F1
:10326000012008F0DFF8FBE780B58AB000AF786096
:103270000C21994805F024FB0021984805F020FB1B
:103280000421964805F01CFB934B1B688D221A64A1
:103290004FF4FA733B6205229149924807F019F8FE
:1032A0008E4B1B683A6A5A638C4B1B683A6A9A6366
:1032B0008C4A8D498D48FEF76DFDF8618C4B1A687C
:1032C0008C4B1B6813447B628B4B1B78DBB2002B4F
:1032D00000F00A87864B00221A60864B00221A6093
:1032E000854B00221A70854B1B78DBB2412B00F016
:1032F000AB82412BC0F2E886772B00F3E586622B88
:10330000C0F2E286623B152B00F2DE8601A252F883
:1033100023F000BF7B370008C9400008C9400008FF
:10332000C9400008DF360008C9400008C94000084D
:10333000C9400008C9400008C9400008C940000849
:10334000C9400008C9400008C9400008C940000839
:10335000C9400008C94000086D330008A1360008C4
:10336000C9400008C94000081D3500085A4B1B68B9
:103370008D221A644FF4FA7008F054F801220821E3
:103380005F4803F0D7FA002204215D4803F0D2FA27
:10339000012210215A4803F0CDFA0022202158487A
:1033A00003F0C8FA574B1B78DBB2782B19D1564B78
:1033B00040F27D121A60554B40F261121A60534B75
:1033C0001A68464B1B685A634F4B1A68434B1B687D
:1033D0009A634F4B1B78DBB200211846FFF7CCF9FC
:1033E0005FE0484B1B78DBB27A2B1DD1494B1B6841
:1033F000182B19D8444B4FF4FA621A60434B4FF420
:10340000FD621A60414B1A68344B1B685A633E4B8D
:103410001A68324B1B689A633D4B1B78DBB2012163
:103420001846FFF7A9F93CE0364B1B78DBB2692B55
:1034300019D1354B40F638621A60344B40F63F5292
:103440001A60324B1A68254B1B685A632E4B1A6858
:10345000224B1B689A632E4B1B78DBB20221184665
:10346000FFF78AF91DE0274B1B78DBB2652B18D1DB
:10347000254B40F638621A60244B40F63F521A60E2
:10348000224B1A68154B1B685A631F4B1A68134B63
:103490001B689A631E4B1B78DBB203211846FFF7AB
:1034A0006BF90E4B1B6800225A630C4B1B68002201
:1034B0009A63154B00221A60144B00221A604FF0D9
:1034C000FF3303221449074806F071FE642001F01F
:1034D00053FF00F009BE00BFC803002030050020E4
:1034E000D4050020780500201802002008020020E2
:1034F000FC05002000060020070200200402002036
:1035000000000240050200201006002014060020E2
:1035100006020020F805002018190108A54B1B68B9
:103520008D221A644FF4FA7007F07CFF0022082104
:10353000A14803F0FFF9012204219F4803F0FAF9A2
:10354000002210219C4803F0F5F9012220219A481D
:1035500003F0F0F9994B1B78DBB2782B19D1984B1B
:103560004FF4B0721A60974B40F265121A60954B97
:103570001A68954B1B685A63914B1A68924B1B68EB
:103580009A63924B1B78DBB200211846FFF7F4F8E0
:103590006CE08A4B1B78DBB27A2B2AD18C4B1B68F0
:1035A0000F2B26D98A4B1B68192B08D9844B40F660
:1035B000CA521A60834B40F6DE521A6007E0804B15
:1035C00040F2CA321A607F4B4FF470721A607D4B22
:1035D0001A687D4B1B685A63794B1A687A4B1B68D3
:1035E0009A637A4B1B78DBB201211846FFF7C4F8C7
:1035F0003CE0724B1B78DBB2692B19D1704B40F267
:10360000FA521A606F4B40F20E621A606D4B1A68E4
:103610006D4B1B685A636A4B1A686B4B1B689A6345
:103620006A4B1B78DBB202211846FFF7A5F81DE0B4
:10363000624B1B78DBB2652B18D1614B40F6CA5246
:103640001A60604B40F6DE521A605E4B1A685E4BA1
:103650001B685A635A4B1A685B4B1B689A635B4B37
:103660001B78DBB203211846FFF786F8564B1B6820
:1036700000225A63544B1B6800229A63504B00226D
:103680001A60504B00221A604FF0FF330322514959
:10369000514806F08CFD642001F06EFE00F024BD60
:1036A000444B1B688D221A644FF4FA7007F0BAFE7F
:1036B000424B1B78DBB2612B05D13E4B1B685A2273
:1036C0001A6400F010BD3D4B1B78DBB2642B40F058
:1036D0000A85384B1B68D2221A6400F004BD374BB0
:1036E0001B78DBB2612B16D1384B1B78DBB207EEAF
:1036F000903AF8EE677A0020B0EE670AFEF748FCD1
:103700004FF0FF3303223349334806F050FD642065
:1037100001F032FE24E0294B1B78DBB2642B1FD171
:103720002A4B1B78DBB207EE903AF8EE677A00205E
:10373000B0EE670AFEF728FE4FF0FF33032225495B
:10374000254806F034FD642001F016FE08E0234B06
:103750001A68234B1B6813447B620A2007F062FE41
:103760001E4B1A681E4B1B6813447A6A9A42EED1AC
:10377000C82007F057FE00F0B7BC104B1B78DBB237
:10378000612B2FD1114B1B78DBB207EE903AF8EE8C
:10379000677A0120B0EE670AFEF7FAFB4FF0FF33BD
:1037A00003220C490C4806F002FD642001F0E4FD00
:1037B0003DE000BFC80300200000024005020020D9
:1037C000100600201406002030050020060200200C
:1037D000F80500201819010878050020FC050020D4
:1037E00000060020974B1B78DBB2642B1FD1964B51
:1037F0001B78DBB207EE903AF8EE677A0120B0EE64
:10380000670AFEF7C1FD4FF0FF3303228F4990484E
:1038100006F0CDFC642001F0AFFD08E08D4B1A6886
:103820008D4B1B6813447B620A2007F0FBFD894B1C
:103830001A68894B1B6813447A6A9A42EED1C820F1
:1038400007F0F0FD00F050BC844BD3ED007AF5EEAC
:10385000C07AF1EE10FA40F30082814B1B688D2292
:103860001A644FF4FA7007F0DDFD7E4B77221A7070
:10387000002208217C4803F05DF8012204217A48E7
:1038800003F058F800221021774803F053F8012282
:103890002021754803F04EF8744B4FF4B0721A6053
:1038A000734B40F265121A60714B1A68714B1B68BA
:1038B0005A636E4B1A686F4B1B689A636E4BD3ED5D
:1038C000007A9FED6E7A77EEC77AB3EE097A77EEDB
:1038D000877AF5EEC07AF1EE10FA11DD664BD3ED82
:1038E000007A9FED667A77EEC77AB3EE097A77EEC3
:1038F000877AFDEEE77A002117EE900AFEF73CFF8B
:103900005C4B1B6800225A635A4B1B6800229A6367
:10391000564B00221A60564B00221A6008E04D4BAD
:103920001A684D4B1B6813447B620A2007F07AFD2E
:10393000484B1A68484B1B6813447A6A9A42EED186
:1039400000209FED4F0AFEF71FFD4FF4FA7007F0BD
:1039500069FD08E03F4B1A683F4B1B6813447B62CC
:103960000A2007F05FFD3B4B1A683B4B1B68134472
:103970007A6A9A42EED1394BD3ED007A9FED417AC3
:1039800077EEC77AF5EEC07AF1EE10FA7CDD344BB3
:103990001B688D221A644FF4FA7007F043FD314B17
:1039A00077221A70002208212F4802F0C3FF01225B
:1039B00004212D4802F0BEFF002210212A4802F007
:1039C000B9FF01222021284802F0B4FF274B4FF411
:1039D000B0721A60264B40F265121A60244B1A68C6
:1039E000244B1B685A63214B1A68224B1B689A634D
:1039F0001A4BD3ED007A9FED237A77EEC77AF5EE76
:103A0000C07AF1EE10FA0DDD144BD3ED007A9FED84
:103A10001D7A77EEC77AFDEEE77A002117EE900A5D
:103A2000FEF7AAFE134B1B6800225A63114B1B685A
:103A300000229A630D4B00221A600D4B00221A607F
:103A400085E000BF050200200602002018190108C9
:103A500078050020FC050020000600200406002058
:103A6000C8030020040200200000024010060020CD
:103A700014060020300500200806002000005842EF
:103A80000000C84200002C42A14B1B688D221A6422
:103A90004FF4FA7007F0C6FC9E4B73221A70012295
:103AA00008219D4802F046FF002204219A4802F0B6
:103AB00041FF01221021984802F03CFF0022202102
:103AC000954802F037FF954B40F27D121A60944BF7
:103AD00040F261121A60924B1A68924B1B685A634B
:103AE0008E4B1A688F4B1B689A638F4BD3ED007A0D
:103AF0009FED8E7A77EE677AF5EEC07AF1EE10FAE6
:103B00000DDD894BD3ED007A9FED887A77EE677AE9
:103B1000FDEEE77A002117EE900AFEF72DFE814BAD
:103B20001B6800225A637F4B1B6800229A637B4B01
:103B300000221A607A4B00221A6008E07C4B1A6857
:103B40007C4B1B6813447B620A2007F06BFC784BAC
:103B50001A68784B1B6813447A6A9A42EED10020A7
:103B60009FED750AFEF714FA4FF4FA7007F05AFC4D
:103B700008E06F4B1A686F4B1B6813447B620A2086
:103B800007F050FC6A4B1A686A4B1B6813447A6A48
:103B90009A42EED15E4B1B688D221A644FF4FA7084
:103BA00007F040FC5B4B77221A70002208215A482C
:103BB00002F0C0FE01220421574802F0BBFE0022A1
:103BC0001021554802F0B6FE01222021524802F091
:103BD000B1FE5A4B1B68192B08D9504B40F6CA52FC
:103BE0001A604F4B40F6DE521A6007E04B4B40F232
:103BF000CA321A604A4B4FF470721A60484B1A6806
:103C0000484B1B685A63454B1A68464B1B689A63BE
:103C100001213220FEF7B0FD424B1B6800225A639F
:103C2000404B1B6800229A633C4B00221A603C4BBD
:103C300000221A6008E03E4B1A683E4B1B68134492
:103C40007B620A2007F0EEFB394B1A68394B1B6880
:103C500013447A6A9A42EED146E22D4B1B688D22BC
:103C60001A644FF4FA7007F0DDFB2A4B77221A70C2
:103C700000220821284802F05DFE01220421264886
:103C800002F058FE00221021234802F053FE0122C8
:103C90002021214802F04EFE204B4FF4B0721A60F2
:103CA0001F4B40F265121A601D4B1A681D4B1B68B2
:103CB0005A631A4B1A681B4B1B689A63204BD3ED4F
:103CC000007A9FED207A77EEC77AF5EEC07AF1EEB2
:103CD00010FA0DDD1A4BD3ED007A9FED1A7A77EECC
:103CE000C77AFDEEE77A002117EE900AFEF744FD51
:103CF0000C4B1B6800225A630A4B1B6800229A6314
:103D0000064B00221A60064B00221A6025E000BF15
:103D1000C80300200402002000000240100600201A
:103D200014060020300500200406002000002C426C
:103D3000FC050020000600200000AE42F80500202F
:103D40000806002000005442994B1A68994B1B68E2
:103D500013447B620A2007F065FB954B1A68954B6C
:103D60001B6813447A6A9A42EED100209FED920AB2
:103D7000FEF70EF94FF4FA7007F054FB08E08C4B95
:103D80001A688C4B1B6813447B620A2007F04AFBBD
:103D9000874B1A68874B1B6813447A6A9A42EED1A4
:103DA000864BD3ED007A9FED867A77EE877A17EE11
:103DB000900AFCF7C9FB02460B4643EC102B09F0B6
:103DC000A5FF0346102B6ADD7E4B1B688D221A640B
:103DD0004FF4FA7007F026FB7B4B77221A70002213
:103DE00008217A4802F0A6FD01220421774802F05A
:103DF000A1FD00221021754802F09CFD0122202126
:103E0000724802F097FD724B4FF4B0721A60714B1A
:103E100040F265121A606F4B1A686F4B1B685A6349
:103E20006B4B1A686C4B1B689A63644BD3ED007A3A
:103E30009FED637A77EE877A17EE900AFCF784FBA2
:103E400002460B4643EC102B09F060FF0346102B93
:103E500016DD5A4BD3ED007A9FED597A77EE877ACB
:103E600017EE900AFCF770FB02460B4643EC102B52
:103E700009F04CFF0346103B00211846FEF77CFC7E
:103E8000554B1B6800225A63534B1B6800229A63F0
:103E90004F4B00221A604F4B00221A6076E0494BCC
:103EA0001B688D221A644FF4FA7007F0BBFA464B78
:103EB00073221A7001220821444802F03BFD0022BF
:103EC0000421424802F036FD012210213F4802F051
:103ED00031FD002220213D4802F02CFD3C4B40F2F8
:103EE0007D121A603B4B40F261121A60394B1A681E
:103EF000394B1B685A63364B1A68374B1B689A63F9
:103F00002E4BD3ED007A9FED2E7A77EE877A17EE5F
:103F1000900AFCF719FB02460B4643EC102B09F004
:103F2000F5FE0346C3F11003002B17DD234BD3ED41
:103F3000007A9FED237A77EE877A17EE900AFCF7E6
:103F400003FB02460B4643EC102B09F0DFFE034651
:103F5000C3F1100300211846FEF70EFC1E4B1B6830
:103F600000225A631C4B1B6800229A63184B0022E4
:103F70001A60184B00221A6008E00D4B1A680D4BAE
:103F80001B6813447B620A2007F04CFA084B1A683E
:103F9000084B1B6813447A6A9A42EED100209FEDC9
:103FA0000F0AFEF7F1F94FF4FA7007F03BFA20E040
:103FB000FC050020000600200000AE4204060020A0
:103FC00000001842C8030020040200200000024044
:103FD0001006002014060020300500200000C84212
:103FE000444B1A68444B1B6813447B620A2007F059
:103FF00019FA404B1A68404B1B6813447A6A9A427C
:10400000EED13E4B1B688D221A644FF4FA7007F014
:1040100009FA3B4B77221A7000220821394802F036
:1040200089FC01220421374802F084FC002210217F
:10403000344802F07FFC01222021324802F07AFC51
:10404000314B1B68192B08D9304B40F6CA521A6005
:104050002F4B40F6DE521A6007E02C4B40F2CA327A
:104060001A602B4B4FF470721A60294B1A68294B57
:104070001B685A63254B1A68264B1B689A630121FB
:104080003220FEF779FB234B1B6800225A63214B39
:104090001B6800229A631D4B00221A601C4B0022F1
:1040A0001A6008E0134B1A68134B1B6813447B62B9
:1040B0000A2007F0B7F90F4B1A680F4B1B6813441F
:1040C0007A6A9A42EED10FE0124B1B6800225A63C3
:1040D000104B1B6800229A630C4B00221A600C4B99
:1040E00000221A6000E000BF4FF4FA7007F09AF95E
:1040F000FFF7EAB8FC05002000060020C8030020F6
:104100000402002000000240F805002010060020F4
:10411000140600203005002080B588B000AF78601C
:104120003C214A4804F0B2FE3C21494804F0AEFE6E
:1041300000237B6100233B614FF00003FB604FF0E5
:104140000003FB61414B1B6800225A62404B1B6815
:1041500000225A6201F004F9B86101F001F9024647
:10416000BB69D31A0A2BF8D9384B1B685B6A7B6191
:10417000364B1B6800225A627B69B3F5FA4F18DD93
:104180007B69C3F5803307EE903AF8EEE77AB6EE36
:10419000007A67EE877AC7ED037AD7ED037AFDEEF2
:1041A000E77A17EE902A2B4B1B681344294A1360B9
:1041B00015E07B6907EE903AF8EEE77AB6EE007A02
:1041C00067EE877AC7ED037AD7ED037AFDEEE77ADB
:1041D00017EE902A1F4B1B6813441E4A13601C4B9A
:1041E0001B685B6A3B611A4B1B6800225A623B6981
:1041F000B3F5FA4F14DD3B69C3F5803307EE903A0F
:10420000F8EEE77AC7ED077AD7ED077AFDEEE77AA1
:1042100017EE902A104B1B6813440F4A136010E0EE
:104220003B6907EE903AF8EEE77A97ED077A77EE7A
:10423000277AC7ED077A084B1A683B691344064A88
:10424000136001F08DF8B86187E700BF100400200B
:104250005804002000060020FC050020000000009B
:104260002DE9B0432DED028B8AB002AF786001F0EA
:1042700077F80346644A1360644B1B78DBB2002B6B
:1042800015D1634B186802230193624B00930123FD
:104290003722D02102F0CCFF03461A465E4B1A703B
:1042A0005D4B1B78002B02D1584B02221A70574BE2
:1042B0001B78DBB2022BDFD101F052F80346574ADC
:1042C0001360564B1A68504B1B68D31A544A13603C
:1042D000504B1B781B021AB24E4B5B781BB2134338
:1042E0001AB2504B1A80504B1B681846FCF72CF939
:1042F00004460D464A4B1B681846FCF703F98046F6
:104300008946484BB3F900301846FCF70BF94FF0DB
:104310000002464BFBF7B8FF02460B4640464946B3
:10432000FCF76AF902460B461046194632A3D3E958
:104330000023FCF78BFA02460B4610461946FCF7A1
:1043400053FC03461846FCF7FFF84FF00002384BC9
:10435000FCF77CFA02460B4620462946FBF796FFFF
:1043600002460B4610461946FCF73EFC03462E4A11
:1043700013602D4B93ED008A294B1B681846FCF700
:10438000C1F81FA3D3E90023FCF736F902460B4618
:10439000104619464FF00002254BFCF757FA02462B
:1043A0000B4610461946FCF71FFC07EE900A78EE04
:1043B000677A1D4BC3ED007A144B00221A70174B1D
:1043C0001B68114A1360184B1B681846FCF7BCF8B1
:1043D00002460B4607F10C0016490AF0C3F907F133
:1043E0000C031A461E21142000F0F4F900F07EF8A8
:1043F00042E700BFAFF300800000000000606040B3
:10440000295C8FC2F528AC3F1C060020E005002087
:1044100008020020E4050020D9050020180600202D
:104420002006002024060020DC05002000006E404D
:1044300000408F401C19010880B582B000AF786041
:104440000021094804F054FB00224FF400510748B2
:1044500002F070FAFDF762FB322000F08DFF0120C0
:1044600006F0E0FFF0E700BFA0040020000C0240CF
:1044700080B582B000AF786014231A461249134801
:1044800000F0E2FF124B1B889BB2124AA2FB0323EF
:104490009B089BB21846FDF72FFC03461A460E4BAD
:1044A0001A600E4B1B889BB20A4AA2FB03239B088F
:1044B0009BB21846FDF720FC03461A46064B5A608D
:1044C000642006F0AFFFD7E7280600206C0200202A
:1044D00052060020CDCCCCCC540600205006002043
:1044E00080B400AF72B600BFFEE7000080B582B0B6
:1044F00000AF0023FB7126E0FB79503BDBB20021CB
:10450000184600F02BF80021002000F027F80021C9
:10451000102000F023F80023BB710DE0BA79FB797D
:104520000D49D2000A4413441B780121184600F0BB
:1045300015F8BB790133BB7197F90630002BEDDA22
:10454000FB790133FB71FB79072BD5D900BF00BF85
:104550000837BD4680BD00BF5C06002080B584B032
:1045600000AF03460A46FB711346BB71BB79002BB3
:1045700006D001224FF480711C4802F0DBF905E0FF
:1045800000224FF48071194802F0D4F90023FB7324
:104590001EE000222021154802F0CCF997F90730DF
:1045A000002B05DA01224021104802F0C3F904E093
:1045B000002240210D4802F0BDF9012220210B48C4
:1045C00002F0B8F9FB795B00FB71FB7B0133FB73F5
:1045D000FB7B072BDDD901224FF48071034802F0E9
:1045E000A9F900BF1037BD4680BD00BF00100240D2
:1045F00080B582B000AF0023FB7114E00023BB71D3
:104600000AE0BA79FB790C49D2000A44134400222B
:104610001A70BB790133BB7197F90630002BF0DAC1
:10462000FB790133FB71FB79072BE7D9FFF75EFFBD
:1046300000BF0837BD4680BD5C06002080B485B051
:1046400000AF0346FB710B46BB7113467B71002321
:10465000FB7397F90730002B41DBBB793F2B3ED82A
:10466000BB79DB08DBB2C3F10703BB73BB7903F093
:1046700007037B737B7BC3F10703012202FA03F379
:10468000FB737B79002B12D0FA79BB7B1749D200E0
:104690000A4413441878FA79BB7BF97B0143C8B20A
:1046A0001249D2000A44134402461A7018E0FA79FB
:1046B000BB7B0E49D2000A4413441B785AB297F9C7
:1046C0000F30DB435BB2134059B2FA79BB7BC8B2FF
:1046D0000649D2000A44134402461A7000E000BFA3
:1046E0001437BD465DF8047B704700BF5C060020B0
:1046F00090B585B000AF0446084611461A462346D9
:10470000FB710346BB710B467B7113463B71BB7952
:104710003B737B79203B7B710023BB734DE03B797E
:104720000C2B0BD17A79B97B284813465B001344D4
:104730009B0003440B441B78FB7307E07A79BB7B37
:10474000234912010A4413441B78FB7300237B7333
:104750002DE097F90F30002B07DA97F82020B97970
:10476000FB791846FFF76AFF0CE097F82030002B22
:104770000CBF01230023DBB21A46B979FB79184636
:10478000FFF75CFFFB7B5B00FB73BB790133BB7105
:10479000BA793B7BD21A3B799A4205D13B7BBB71FC
:1047A000FB790133FB7105E07B7B01337B737B7B02
:1047B000072BCED9BB7B0133BB73BA7B3B799A42C3
:1047C000ADD300BF00BF1437BD4690BD101A01081D
:1047D000841E010880B584B002AF03463A60FB71C5
:1047E0000B46BB711FE0FB797A2B04D90023FB71C8
:1047F000BB791033BB71BB793A2B05D90023FB7110
:10480000FB79BB71FFF7F4FE3B681A78B979F87948
:10481000012300930C23FFF76BFFFB790833FB7137
:104820003B6801333B603B681B78002BDBD100BF4A
:1048300000BF0837BD4680BD80B500AF03F022FB46
:10484000414B1B6F404A23F0010313673E4B1B6F24
:104850003D4A23F00403136703F028FB0022802164
:104860003A4802F067F8642000F086FD01228021BA
:10487000364802F05FF80021AE20FFF76FFE0021FE
:10488000D520FFF76BFE00215020FFF767FE0021C7
:10489000A820FFF763FE00213F20FFF75FFE002105
:1048A000D320FFF75BFE00210020FFF757FE002119
:1048B0004020FFF753FE00218D20FFF74FFE00211F
:1048C0001420FFF74BFE00212020FFF747FE0021B8
:1048D0000220FFF743FE0021A120FFF73FFE002149
:1048E000C020FFF73BFE0021DA20FFF737FE002152
:1048F0001220FFF733FE00218120FFF72FFE002159
:10490000EF20FFF72BFE0021D920FFF727FE002123
:10491000F120FFF723FE0021DB20FFF71FFE00211F
:104920003020FFF71BFE0021A420FFF717FE002117
:10493000A620FFF713FE0021AF20FFF70FFEFFF7C1
:1049400057FE00BF80BD00BF00380240001002408B
:1049500080B582B000AF00237B60164B5B6C154ABC
:1049600043F480435364134B5B6C03F480437B60DC
:104970007B6800233B600F4B1B6C0E4A43F0805357
:1049800013640C4B1B6C03F080533B603B680022AC
:104990000F216FF0010001F0ECF900220521052044
:1049A00001F0E7F9052001F000FA00BF0837BD4625
:1049B00080BD00BF0038024080B58AB000AF78608B
:1049C00007F1140300221A605A609A60DA601A61D3
:1049D0007B681B682E4A934256D100233B612D4BC6
:1049E0005B6C2C4A43F4807353642A4B5B6C03F476
:1049F00080733B613B690023FB60264B1B6B254AA0
:104A000043F004031363234B1B6B03F00403FB60AD
:104A1000FB6806237B610323BB610023FB6107F175
:104A2000140319461C4801F0E9FD1C4B1C4A1A608E
:104A30001A4B00225A60194B00229A60174B002231
:104A4000DA60164B4FF480621A61144B4FF4006227
:104A50005A61124B4FF400529A61104B0022DA61F6
:104A60000E4B00221A620D4B00225A620B4801F0D5
:104A7000B7F90346002B01D0FFF732FD7B68074AE8
:104A80009A63064A7B68936300BF2837BD4680BDA2
:104A9000002001400038024000080240B40200201B
:104AA0001064024080B58CB000AF786007F11C0341
:104AB00000221A605A609A60DA601A617B681B688B
:104AC0004A4A93425BD10023BB61494B1B6B484A66
:104AD00043F002031363464B1B6B03F00203BB61FD
:104AE000BB694FF44073FB6112233B6201237B627D
:104AF0000323BB620423FB6207F11C0319463D48F4
:104B000001F07CFD00237B61394B1B6C384A43F478
:104B100000131364364B1B6C03F400137B617B6939
:104B2000354B364A1A60344B4FF000725A60324BA4
:104B300000229A60304B0022DA602F4B4FF48062E3
:104B40001A612D4B00225A612B4B00229A612A4B8D
:104B50000022DA61284B00221A62274B00225A6297
:104B6000254801F03DF90346002B01D0FFF7B8FCC2
:104B70007B68214A9A63204A7B68936331E07B68B3
:104B80001B681F4A93422CD100233B61184B1B6BBF
:104B9000174A43F002031363154B1B6B03F0020328
:104BA0003B613B694FF44063FB6112233B6200238E
:104BB0007B620323BB620423FB6207F11C031946DB
:104BC0000C4801F01BFD0023FB60094B1B6C084ADD
:104BD00043F480031364064B1B6C03F48003FB60F7
:104BE000FB6800BF3037BD4680BD00BF00540040A9
:104BF00000380240000402406803002010600240B8
:104C00000058004080B485B000AF78607B681B68B6
:104C10000B4A93420DD10023FB600A4B5B6C094A9F
:104C200043F001035364074B5B6C03F00103FB602B
:104C3000FB6800BF1437BD465DF8047B704700BFBA
:104C4000000001400038024080B58CB000AF7860B1
:104C500007F11C0300221A605A609A60DA601A6138
:104C60007B681B68B3F1804F4BD10023BB613F4B86
:104C70001B6C3E4A43F0010313643C4B1B6C03F076
:104C80000103BB61BB6900237B61384B1B6B374A57
:104C900043F001031363354B1B6B03F001037B618E
:104CA0007B6900233B61314B1B6B304A43F00203AD
:104CB00013632E4B1B6B03F002033B613B694FF404
:104CC0000043FB6102233B6200237B620023BB6243
:104CD0000123FB6207F11C031946254801F08EFCF5
:104CE0000823FB6102233B6200237B620023BB623B
:104CF0000123FB6207F11C0319461E4801F07EFCEC
:104D000030E07B681B681C4A93422BD10023FB6078
:104D1000164B1B6C154A43F002031364134B1B6CB8
:104D200003F00203FB60FB680023BB600F4B1B6BAF
:104D30000E4A43F0010313630C4B1B6B03F001039A
:104D4000BB60BB68C023FB6102233B6200237B6224
:104D50000023BB620223FB6207F11C0319460448CF
:104D600001F04CFC00BF3037BD4680BD003802402A
:104D700000000240000402400004004080B58AB0F8
:104D800000AF786007F1140300221A605A609A603D
:104D9000DA601A617B681B681D4A934234D1002394
:104DA0003B611C4B1B6C1B4A43F004031364194BFF
:104DB0001B6C03F004033B613B690023FB60154B54
:104DC0001B6B144A43F008031363124B1B6B03F075
:104DD0000803FB60FB684FF480537B610223BB61D7
:104DE0000023FB6100233B6202237B6207F1140373
:104DF0001946094801F002FC002205211E2000F09E
:104E0000B8FF1E2000F0D1FF00BF2837BD4680BD8F
:104E10000008004000380240000C024080B58AB013
:104E200000AF786007F1140300221A605A609A609C
:104E3000DA601A617B681B68234A93420ED1002313
:104E40003B61224B1B6C214A43F0100313641F4B40
:104E50001B6C03F010033B613B6930E07B681B680F
:104E60001B4A93422BD10023FB60184B5B6C174A03
:104E700043F002035364154B5B6C03F00203FB60C9
:104E8000FB680023BB60114B1B6B104A43F004030B
:104E900013630E4B1B6B03F00403BB60BB68C023A2
:104EA0007B610223BB610023FB6100233B62032380
:104EB0007B6207F114031946064801F09FFB00BF0F
:104EC0002837BD4680BD00BF0010004000380240BA
:104ED000000401400008024080B588B000AF78604F
:104EE00007F10C0300221A605A609A60DA601A61B6
:104EF0007B681B68124A93421ED10023BB60114B92
:104F00001B6B104A43F0100313630E4B1B6B03F033
:104F10001003BB60BB684FF48043FB6002233B611E
:104F200000237B610023BB610123FB6107F10C03BC
:104F30001946054801F062FB00BF2037BD4680BD21
:104F400000000140003802400010024080B58AB0E5
:104F500000AF786007F1140300221A605A609A606B
:104F6000DA601A617B681B681D4A934234D10023C2
:104F70003B611C4B1B6C1B4A43F480231364194B8D
:104F80001B6C03F480233B613B690023FB60154BE2
:104F90001B6B144A43F004031363124B1B6B03F0A7
:104FA0000403FB60FB684FF440637B610223BB6139
:104FB0000023FB6103233B6207237B6207F1140399
:104FC0001946094801F01AFB00220521272000F0AC
:104FD000D0FE272000F0E9FE00BF2837BD4680BD87
:104FE00000480040003802400008024080B400AF92
:104FF000FEE780B400AFFEE780B400AFFEE780B408
:1050000000AFFEE780B400AFFEE780B400AF00BFA2
:10501000BD465DF8047B704780B500AF00F08CF9A9
:1050200007F00EFE0346012B01D008F0F5FB00BF90
:1050300080BD80B400AF00BFBD465DF8047B704703
:1050400080B500AF024801F063F800BF80BD00BF2B
:105050006803002080B500AF024803F0A5FF00BF41
:1050600080BD00BFA004002080B500AF024805F05D
:1050700061F900BF80BD00BF7805002080B500AF9A
:10508000024801F045F800BF80BD00BFB402002017
:1050900080B400AF01231846BD465DF8047B70471D
:1050A00080B582B000AF7860396009F011FC03462A
:1050B00016221A604FF0FF3318460837BD4680BDF0
:1050C00080B582B000AF78604FF0FF317868FFF7AD
:1050D000E7FFFEE780B586B000AFF860B9607A60A0
:1050E00000237B610AE0AFF300800146BB685A1CD5
:1050F000BA60CAB21A707B6901337B617A697B68D6
:105100009A42F0DB7B6818461837BD4680BD80B5F3
:1051100086B000AFF860B9607A6000237B6109E077
:10512000BB685A1CBA601B781846AFF300807B69D5
:1051300001337B617A697B689A42F1DB7B681846B0
:105140001837BD4680BD80B483B000AF78604FF0A3
:10515000FF3318460C37BD465DF8047B704780B4BA
:1051600083B000AF786039603B684FF400525A60FA
:10517000002318460C37BD465DF8047B704780B4A9
:1051800083B000AF7860012318460C37BD465DF848
:10519000047B704780B485B000AFF860B9607A6076
:1051A000002318461437BD465DF8047B70470000A5
:1051B00080B586B000AF7860144A154BD31A7B6176
:1051C0007B693B61134B1B68002B02D1114B124AC8
:1051D0001A60104B1A687B6813443A699A4207D2E6
:1051E00009F076FB03460C221A604FF0FF3309E00A
:1051F000084B1B68FB60074B1A687B681344054A21
:105200001360FB6818461837BD4680BD00000220B9
:10521000000400005C0A00200055002080B400AFAC
:10522000064BD3F88830054A43F47003C2F888303F
:1052300000BFBD465DF8047B704700BF00ED00E095
:10524000DFF834D00D480E490E4A002302E0D4584E
:10525000C4500433C4188C42F9D30B4A0B4C0023BE
:1052600001E013600432A242FBD3FFF7D7FF09F03D
:1052700035FBFBF787FE704700000220000000208E
:10528000E801002048280108E8010020005500201E
:10529000FEE7000080B500AF0E4B1B680D4A43F4DB
:1052A000007313600B4B1B680A4A43F4806313605E
:1052B000084B1B68074A43F480731360032000F017
:1052C0004DFD0F2000F008F8FFF742FB00231846C1
:1052D00080BD00BF003C024080B582B000AF786066
:1052E000124B1A68124B1B7819464FF47A73B3FBB2
:1052F000F1F3B2FBF3F3184600F065FD0346002B13
:1053000001D001230EE07B680F2B0AD800227968B8
:105310004FF0FF3000F02DFD064A7B68136000233C
:1053200000E0012318460837BD4680BD000000207C
:10533000080000200400002080B400AF064B1B785A
:105340001A46064B1B681344044A136000BFBD464F
:105350005DF8047B704700BF08000020600A002051
:1053600080B400AF034B1B681846BD465DF8047B54
:10537000704700BF600A002080B584B000AF78603D
:10538000FFF7EEFFB8607B68FB60FB68B3F1FF3F9F
:1053900005D00A4B1B781A46FB681344FB6000BF1C
:1053A000FFF7DEFF0246BB68D31AFA689A42F7D8C5
:1053B00000BF00BF1037BD4680BD00BF0800002001
:1053C00080B584B000AF78600023FB737B68002B4E
:1053D00001D1012333E07B681B6C002B09D1786875
:1053E000FFF7EAFA7B6800225A647B68002283F8A0
:1053F0003C207B681B6C03F01003002B18D17B68EA
:105400001B6C23F4885323F0020343F002027B68F1
:105410001A64786800F054FA7B6800225A647B684A
:105420001B6C23F0030343F001027B681A6401E064
:105430000123FB737B68002283F83C20FB7B18462A
:105440001037BD4680BD000080B586B000AFF86063
:10545000B9607A6000233B61FB6893F83C30012B14
:1054600001D10223E9E0FB68012283F83C20FB68BC
:105470001B689B6803F00103012B18D0FB681B68B5
:105480009A68FB681B6842F001029A606D4B1B68CA
:105490006D4AA2FB03239A0C13465B0013443B6145
:1054A00002E03B69013B3B613B69002BF9D1FB68A2
:1054B0001B689B6803F48073B3F5807F07D1FB689A
:1054C0001B689A68FB681B6822F480729A60FB680C
:1054D0001B689B6803F00103012B40F0A180FB686F
:1054E0001B6C23F4E06323F0010343F48072FB6838
:1054F0001A64FB681B685B6803F48063002B07D0A9
:10550000FB681B6C23F4405343F48052FB681A641D
:10551000FB681B6C03F48053B3F5805F06D1FB6816
:105520005B6C23F00602FB685A6402E0FB68002211
:105530005A64FB68002283F83C20444B7B61FB6883
:105540009B6B434ADA63FB689B6B424A1A64FB68B5
:105550009B6B414ADA64FB681B686FF022021A6099
:10556000FB681B685A68FB681B6842F080625A60DF
:10557000FB681B689A68FB681B6842F480729A603B
:10558000FB68986BFB681B684C331946BA687B68EC
:1055900000F0D4FC7B695B6803F01F03002B2AD169
:1055A000FB681B682D4A934215D0FB681B682C4A88
:1055B000934205D1254B5B6803F01F03002B0AD0F3
:1055C000FB681B68274A934236D1204B5B6803F087
:1055D0001003002B30D1FB681B689B6803F040531D
:1055E000002B29D1FB681B689A68FB681B6842F096
:1055F00080429A6020E0FB681B68184A93421BD1E6
:10560000FB681B689B6803F04053002B14D1FB68B8
:105610001B689A68FB681B6842F080429A600BE046
:10562000FB681B6C43F01002FB681A64FB685B6C40
:1056300043F00102FB685A64002318461837BD4640
:1056400080BD00BF0000002083DE1B43002301401B
:10565000B95A0008735B00088F5B00080020014006
:10566000002101400022014080B483B000AF786087
:1056700000BF0C37BD465DF8047B704780B485B031
:1056800000AF786039600023BB607B6893F83C30E2
:10569000012B01D1022305E17B68012283F83C2024
:1056A0003B681B68092B25D97B681B68D9683B6858
:1056B0001B689BB21A4613465B0013441E3B07222D
:1056C00002FA03F3DA437B681B680A40DA607B68FE
:1056D0001B68D9683B689A683B681B689BB2184690
:1056E00003465B0003441E3B9A407B681B680A43E9
:1056F000DA6022E07B681B6819693B681B689BB213
:105700001A4613465B001344072202FA03F3DA43F6
:105710007B681B680A401A617B681B6819693B68D3
:105720009A683B681B689BB2184603465B000344BB
:105730009A407B681B680A431A613B685B68062BCA
:1057400024D87B681B68596B3B685A6813469B00DA
:105750001344053B1F2202FA03F3DA437B681B68FC
:105760000A405A637B681B68596B3B681B689BB295
:1057700018463B685A6813469B001344053B00FAE1
:1057800003F27B681B680A435A634CE03B685B6822
:105790000C2B24D87B681B68196B3B685A6813462E
:1057A0009B001344233B1F2202FA03F3DA437B6876
:1057B0001B680A401A637B681B68196B3B681B688F
:1057C0009BB218463B685A6813469B001344233B20
:1057D00000FA03F27B681B680A431A6323E07B68C4
:1057E0001B68D96A3B685A6813469B001344413BC7
:1057F0001F2202FA03F3DA437B681B680A40DA626D
:105800007B681B68D96A3B681B689BB218463B687B
:105810005A6813469B001344413B00FA03F27B682D
:105820001B680A43DA62224BFB607B681B68214AD3
:10583000934209D13B681B68122B05D1FB685B685A
:1058400043F48002FB685A607B681B68194A9342E4
:1058500023D13B681B68102B03D03B681B68112BBE
:105860001BD1FB685B6843F40002FB685A603B682D
:105870001B68102B11D1104B1B68104AA2FB03238D
:105880009A0C13469B0013445B00BB6002E0BB68AC
:10589000013BBB60BB68002BF9D17B68002283F819
:1058A0003C20002318461437BD465DF8047B704742
:1058B00000230140002001400000002083DE1B4344
:1058C00080B485B000AF7860794BFB60FB685B68A3
:1058D00023F44032FB685A60FB685A687B685B6857
:1058E0001A43FB685A607B681B685A687B681B68B0
:1058F00022F480725A607B681B6859687B681B6958
:105900001A027B681B680A435A607B681B685A68E6
:105910007B681B6822F040725A607B681B6859687C
:105920007B689A687B681B680A435A607B681B68BF
:105930009A687B681B6822F400629A607B681B6827
:1059400099687B68DA687B681B680A439A607B68A1
:105950009B6A584A934222D07B681B689A687B688E
:105960001B6822F070629A607B681B6899687B688C
:105970009A6A7B681B680A439A607B681B689A680E
:105980007B681B6822F040529A607B681B689968AC
:105990007B68DA6A7B681B680A439A600FE07B6861
:1059A0001B689A687B681B6822F070629A607B684B
:1059B0001B689A687B681B6822F040529A607B687B
:1059C0001B689A687B681B6822F002029A607B68F9
:1059D0001B6899687B681B7E5A007B681B680A43BA
:1059E0009A607B6893F82030002B1BD07B681B6883
:1059F0005A687B681B6842F400625A607B681B68C7
:105A00005A687B681B6822F460425A607B681B6896
:105A100059687B685B6A013B5A037B681B680A43D1
:105A20005A6007E07B681B685A687B681B6822F431
:105A300000625A607B681B68DA6A7B681B6822F424
:105A40007002DA627B681B68D96A7B68DB69013B9C
:105A50001A057B681B680A43DA627B681B689A68D0
:105A60007B681B6822F400729A607B681B689968E7
:105A70007B6893F830305A027B681B680A439A604F
:105A80007B681B689A687B681B6822F480629A6056
:105A90007B681B6899687B685B699A027B681B68F6
:105AA0000A439A6000BF1437BD465DF8047B704717
:105AB000002301400100000F80B584B000AF786082
:105AC0007B689B6BFB60FB681B6C03F05003002B37
:105AD0003CD1FB681B6C43F40072FB681A64FB68E2
