:020000040800F2
:1000000000000220592C00083D2B00083F2B00085F
:10001000412B0008432B0008452B0008000000007E
:100020000000000000000000000000003171000826
:10003000472B000800000000C1710008492B000890
:10004000A92C0008A92C0008A92C0008A92C00083C
:10005000A92C0008612B0008A92C0008A92C000875
:10006000A92C0008A92C0008A92C0008652B000861
:10007000A92C0008A92C0008A92C0008A92C00080C
:10008000A92C0008A92C0008A92C0008A92C0008FC
:10009000A92C0008A92C0008A92C0008A92C0008EC
:1000A000A92C0008A92C0008A92C0008A92C0008DC
:1000B000A92C0008A92C0008712B0008A92C000805
:1000C000A92C0008A92C0008A92C0008A92C0008BC
:1000D000A92C0008A92C0008A92C00087D2B0008D9
:1000E000A92C0008A92C0008A92C0008A92C00089C
:1000F000A92C0008A92C0008A92C0008A92C00088C
:10010000A92C0008A92C0008A92C0008A92C00087B
:10011000A92C0008A92C0008A92C0008A92C00086B
:10012000892B0008A92C0008A92C0008A92C00087C
:10013000A92C0008A92C0008A92C0008A92C00084B
:10014000A92C0008A92C0008A92C0008A92C00083B
:10015000A92C0008A92C0008A92C0008A92C00082B
:10016000A92C0008A92C0008A92C0008A92C00081B
:10017000A92C0008A92C0008A92C000800000000E8
:08018000A92C0008A92C0008BD
:1001900010B5054C237833B9044B13B10448AFF3C1
:1001A00000800123237010BDE80100200000000042
:1001B00050B1000808B5034B1BB103490348AFF326
:1001C000008008BD00000000EC01002050B10008D4
:1001D00001F0FF01102A2BDB10F0070F08D010F8F8
:1001E000013B013A8B422DD010F0070F42B3F6D1FC
:1001F000F0B441EA012141EA014122F007047FF015
:1002000000070023F0E80256083C85EA010586EA6B
:10021000010685FA47F5A3FA87F586FA47F6A5FAA7
:1002200087F68EB9EED1F0BC01F0FF0102F00702B3
:1002300032B110F8013B013A83EA010313B1F8D15E
:100240000020704701387047002D06BF354603383F
:10025000073815F0010F07D1013015F4807F02BF78
:10026000013015F4C03F0130F0BC0138704700BFC9
:10027000034613F8012B002AFBD1181A01387047E6
:1002800081F0004102E000BF83F0004330B54FEA47
:1002900041044FEA430594EA050F08BF90EA020FB4
:1002A0001FBF54EA000C55EA020C7FEA645C7FEA47
:1002B000655C00F0E2804FEA5454D4EB5555B8BF6A
:1002C0006D420CDD2C4480EA020281EA030382EADB
:1002D000000083EA010180EA020281EA0303362D6D
:1002E00088BF30BD11F0004F4FEA01314FF4801C40
:1002F0004CEA113102D0404261EB410113F0004F52
:100300004FEA03334CEA133302D0524263EB430308
:1003100094EA050F00F0A780A4F10104D5F1200EA6
:100320000DDB02FA0EFC22FA05F2801841F1000101
:1003300003FA0EF2801843FA05F359410EE0A5F1D5
:1003400020050EF1200E012A03FA0EFC28BF4CF006
:10035000020C43FA05F3C01851EBE37101F00045BC
:1003600007D54FF0000EDCF1000C7EEB00006EEBC9
:100370000101B1F5801F1BD3B1F5001F0CD3490853
:100380005FEA30004FEA3C0C04F101044FEA4452AA
:1003900012F5800F80F09A80BCF1004F08BF5FEA31
:1003A000500C50F1000041EB045141EA050130BD11
:1003B0005FEA4C0C404141EB0101013C28BFB1F523
:1003C000801FE9D291F0000F04BF01460020B1FA6E
:1003D00081F308BF2033A3F10B03B3F120020CDA41
:1003E0000C3208DD02F1140CC2F10C0201FA0CF01F
:1003F00021FA02F10CE002F11402D8BFC2F1200C84
:1004000001FA02F120FA0CFCDCBF41EA0C01904039
:10041000E41AA2BF01EB0451294330BD6FEA040482
:100420001F3C1CDA0C340EDC04F11404C4F120026D
:1004300020FA04F001FA02F340EA030021FA04F37F
:1004400045EA030130BDC4F10C04C4F1200220FAD6
:1004500002F001FA04F340EA0300294630BD21FA14
:1004600004F0294630BD94F0000F83F4801306BFDA
:1004700081F480110134013D4EE77FEA645C18BFCE
:100480007FEA655C29D094EA050F08BF90EA020F65
:1004900005D054EA000C04BF1946104630BD91EA5D
:1004A000030F1EBF0021002030BD5FEA545C05D160
:1004B0004000494128BF41F0004130BD14F580049F
:1004C0003CBF01F5801130BD01F0004545F0FE4113
:1004D00041F470014FF0000030BD7FEA645C1ABF48
:1004E000194610467FEA655C1CBF0B46024650EA7F
:1004F000013406BF52EA033591EA030F41F40021AB
:1005000030BD00BF90F0000F04BF0021704730B530
:100510004FF4806404F132044FF000054FF0000105
:1005200050E700BF90F0000F04BF0021704730B5C6
:100530004FF4806404F1320410F0004548BF40429B
:100540004FF000013EE700BF42004FEAE2014FEAF0
:1005500031014FEA02701FBF12F07F4393F07F4FCB
:1005600081F06051704732F07F4208BF704793F0CE
:100570007F4F04BF41F40021704730B54FF46074E1
:1005800001F0004521F000411CE700BF50EA0102E4
:1005900008BF704730B54FF000050AE050EA01028D
:1005A00008BF704730B511F0004502D5404261EBFD
:1005B00041014FF4806404F132045FEA915C3FF43E
:1005C000D8AE4FF003025FEADC0C18BF03325FEADB
:1005D000DC0C18BF033202EBDC02C2F1200300FA8C
:1005E00003FC20FA02F001FA03FE40EA0E0021FAB1
:1005F00002F11444BDE600BF70B54FF0FF0C4CF49F
:10060000E06C1CEA11541DBF1CEA135594EA0C0F50
:1006100095EA0C0F00F0DEF82C4481EA030621EA8B
:100620004C5123EA4C5350EA013518BF52EA0335C6
:1006300041F4801143F4801338D0A0FB02CE4FF078
:100640000005E1FB02E506F00042E0FB03E54FF0A8
:100650000006E1FB03569CF0000F18BF4EF0010EA0
:10066000A4F1FF04B6F5007F64F5407404D25FEA9C
:100670004E0E6D4146EB060642EAC62141EA55514F
:100680004FEAC52040EA5E504FEACE2EB4F1FD0C91
:1006900088BFBCF5E06F1ED8BEF1004F08BF5FEA0F
:1006A000500E50F1000041EB045170BD06F00046C1
:1006B00046EA010140EA020081EA0301B4EB5C046E
:1006C000C2BFD4EB0C0541EA045170BD41F4801166
:1006D0004FF0000E013C00F3AB8014F1360FDEBF8B
:1006E000002001F0004170BDC4F10004203C35DA67
:1006F0000C341BDC04F11404C4F1200500FA05F3EA
:1007000020FA04F001FA05F240EA020001F000428A
:1007100021F0004110EBD37021FA04F642EB060100
:100720005EEA430E08BF20EAD37070BDC4F10C042A
:10073000C4F1200500FA04F320FA05F001FA04F2EE
:1007400040EA020001F0004110EBD37041F10001DA
:100750005EEA430E08BF20EAD37070BDC4F12005E5
:1007600000FA05F24EEA020E20FA04F301FA05F24D
:1007700043EA020321FA04F001F0004121FA04F2F5
:1007800020EA020000EBD3705EEA430E08BF20EAC5
:10079000D37070BD94F0000F0FD101F000464000FF
:1007A00041EB010111F4801F08BF013CF7D041EA81
:1007B000060195F0000F18BF704703F00046520085
:1007C00043EB030313F4801F08BF013DF7D043EA56
:1007D0000603704794EA0C0F0CEA135518BF95EA0C
:1007E0000C0F0CD050EA410618BF52EA4306D1D193
:1007F00081EA030101F000414FF0000070BD50EAB2
:10080000410606BF1046194652EA430619D094EA3B
:100810000C0F02D150EA013613D195EA0C0F05D125
:1008200052EA03361CBF104619460AD181EA030179
:1008300001F0004141F0FE4141F470014FF0000031
:1008400070BD41F0FE4141F4780170BD70B54FF0CC
:10085000FF0C4CF4E06C1CEA11541DBF1CEA13554C
:1008600094EA0C0F95EA0C0F00F0A7F8A4EB05042E
:1008700081EA030E52EA03354FEA013100F0888025
:100880004FEA03334FF0805545EA131343EA1263EE
:100890004FEA022245EA111545EA10654FEA0026A3
:1008A0000EF000419D4208BF964244F1FD0404F55C
:1008B000407402D25B084FEA3202B61A65EB0305B8
:1008C0005B084FEA32024FF480104FF4002CB6EB75
:1008D000020E75EB030E22BFB61A754640EA0C00F5
:1008E0005B084FEA3202B6EB020E75EB030E22BF35
:1008F000B61A754640EA5C005B084FEA3202B6EB76
:10090000020E75EB030E22BFB61A754640EA9C0034
:100910005B084FEA3202B6EB020E75EB030E22BF04
:10092000B61A754640EADC0055EA060E18D04FEAC2
:10093000051545EA16754FEA06164FEAC30343EA62
:1009400052734FEAC2025FEA1C1CC0D111F4801F2F
:100950000BD141EA00014FF000004FF0004CB6E728
:1009600011F4801F04BF01430020B4F1FD0C88BFC7
:10097000BCF5E06F3FF6AFAEB5EB030C04BFB6EBD2
:10098000020C5FEA500C50F1000041EB045170BDC5
:100990000EF0004E4EEA113114EB5C04C2BFD4EBF2
:1009A0000C0541EA045170BD41F480114FF0000E76
:1009B000013C90E645EA060E8DE60CEA135594EAF2
:1009C0000C0F08BF95EA0C0F3FF43BAF94EA0C0FF5
:1009D0000AD150EA01347FF434AF95EA0C0F7FF46A
:1009E00025AF104619462CE795EA0C0F06D152EABE
:1009F00003353FF4FDAE1046194622E750EA4106A2
:100A000018BF52EA43067FF4C5AE50EA41047FF4B2
:100A10000DAF52EA43057FF4EBAE12E74FF0FF3C17
:100A200006E000BF4FF0010C02E000BF4FF0010CE8
:100A30004DF804CD4FEA410C7FEA6C5C4FEA430C61
:100A400018BF7FEA6C5C1BD001B050EA410C0CBFB0
:100A500052EA430C91EA030F02BF90EA020F002012
:100A6000704710F1000F91EA030F58BF994208BF79
:100A700090422CBFD8176FEAE37040F00100704736
:100A80004FEA410C7FEA6C5C02D150EA013C07D18D
:100A90004FEA430C7FEA6C5CD6D152EA033CD3D0D8
:100AA0005DF8040B704700BF8446104662468C46D2
:100AB0001946634600E000BF01B5FFF7B7FF002805
:100AC00048BF10F1000F01BD4DF808EDFFF7F4FF2E
:100AD0000CBF012000205DF808FB00BF4DF808EDB9
:100AE000FFF7EAFF34BF012000205DF808FB00BFDC
:100AF0004DF808EDFFF7E0FF94BF012000205DF8FE
:100B000008FB00BF4DF808EDFFF7CEFF94BF0120B2
:100B100000205DF808FB00BF4DF808EDFFF7C4FFAB
:100B200034BF012000205DF808FB00BF4FEA410CF4
:100B30007FEA6C5C02D150EA013C0AD14FEA430CD7
:100B40007FEA6C5C02D152EA033C02D14FF0000014
:100B500070474FF0010070474FEA410212F5001252
:100B600015D211D56FF47873B3EB625212D94FEAF4
:100B7000C12343F0004343EA505311F0004F23FADE
:100B800002F018BF404270474FF00000704750EA33
:100B9000013005D111F0004008BF6FF000407047F0
:100BA0004FF00000704700BF4A0011D212F500124A
:100BB00011D20DD56FF47873B3EB62520ED44FEAB5
:100BC000C12343F0004343EA505323FA02F0704735
:100BD0004FF00000704750EA013002D14FF0FF3073
:100BE00070474FF0000070474FEA4102B2F1E04316
:100BF00024BFB3F5001CDCF1FE5C0DD901F0004C04
:100C00004FEAC0024CEA5070B2F1004F40EB830053
:100C100008BF20F00100704711F0804F21D113F17F
:100C20003872BCBF01F00040704741F480114FEAB8
:100C30005252C2F11802C2F1200C10FA0CF320FA41
:100C400002F018BF40F001004FEAC1234FEAD3235E
:100C500003FA0CFC40EA0C0023FA02F34FEA4303C8
:100C6000CCE77FEA625307D150EA01331EBF4FF051
:100C7000FE4040F44000704701F0004040F0FE406C
:100C800040F40000704700BF53B94AB9002908BFBB
:100C900000281CBF4FF0FF314FF0FF3000F070B95B
:100CA000ADF1080C6DE904CE00F006F8DDF804E0C3
:100CB000DDE9022304B070472DE9F047089E0D4698
:100CC00004460F46002B4AD18A42944665D9B2FAAF
:100CD00082F343B102FA03FCC3F120029F4020FAE1
:100CE00002F217439C404FEA1C4E1FFA8CF5B7FBEB
:100CF000FEF1220C0EFB117742EA074201FB05F0E0
:100D000090420AD91CEB020201F1FF3780F01C81EE
:100D1000904240F2198102396244121AA4B2B2FB25
:100D2000FEF00EFB102244EA024400FB05F5A5424A
:100D30000AD91CEB040400F1FF3280F00781A542C0
:100D400040F204816444023840EA0140641B0021FF
:100D50001EB1DC400023C6E90043BDE8F0878B42AA
:100D600008D9002E00F0ED800021C6E900050846F4
:100D7000BDE8F087B3FA83F1002949D1AB4202D331
:100D8000824200F2F880841A65EB030201201746C4
:100D9000002EE2D0C6E90047DFE702B9FFDEB2FA73
:100DA00082F3002B40F090808A1A4FEA1C471FFA0A
:100DB0008CFE0121B2FBF7F507FB1520220C42EA5D
:100DC00000420EFB05F0904208D91CEB020205F12F
:100DD000FF3802D2904200F2CB804546121AA4B2EC
:100DE000B2FBF7F007FB102244EA02440EFB00FEC0
:100DF000A64508D91CEB040400F1FF3202D2A64537
:100E000000F2BB801046A4EB0E0440EA05409FE7C9
:100E1000C1F120078B4022FA07FC4CEA030C05FACB
:100E200001F420FA07F3FD404FEA1C492343B5FBC8
:100E3000F9F81FFA8CFE09FB18551C0C44EA05440E
:100E400008FB0EF5A54202FA01F200FA01F00BD9F7
:100E50001CEB040408F1FF3A80F08880A54240F2C0
:100E60008580A8F102086444641B9DB2B4FBF9F3C9
:100E700009FB134445EA044403FB0EFEA64508D9CA
:100E80001CEB040403F1FF356CD2A6456AD9023B82
:100E9000644443EA0843A3FB0295A4EB0E04AC426E
:100EA000C846AE4656D353D056B1B0EB080264EBF9
:100EB0000E0404FA07F7CA40CC401743C6E9007491
:100EC00018460021BDE8F087C3F1200102FA03FCB7
:100ED00020FA01F225FA01F19D402A434FEA1C470E
:100EE0001FFA8CFEB1FBF7F007FB1015110C41EA5D
:100EF000054100FB0EF58D4204FA03F408D91CEB02
:100F0000010100F1FF382FD28D422DD90238614402
:100F1000491B92B2B1FBF7F507FB151142EA0142FA
:100F200005FB0EF1914208D91CEB020205F1FF38D6
:100F300016D2914214D9023D6244521A45EA004148
:100F400038E73146304608E73946E6E61046FBE624
:100F50004845A9D2B9EB020865EB0C0E013BA3E7AB
:100F60004546EAE72B4694E74046D1E7D0467BE783
:100F7000023D624432E708460AE76444023842E729
:100F8000704700BF08B5012004F07FFEFBE70000BA
:100F90002DE9F84F454D464E464C3C21284603F07E
:100FA00029FD3C21304603F025FD2B6800275F62B8
:100FB00033685F6201F0C4FE804601F0C1FEA0EB21
:100FC00008000A28F9D92B68D3F824B05F62BBF572
:100FD000FA4F3ADDCBF58030FFF7A4FA364BDFF855
:100FE000DCA00022FFF708FB8046DAF80000894603
:100FF000FFF798FA02460B4640464946FFF746F986
:10100000FFF7AAFDCAF800003368D3F824905F62A6
:10101000B9F5FA4F2FDDC9F58030FFF783FA264B7B
:101020000022FFF7E9FA804620688946FFF77AFA3E
:1010300002460B4640464946FFF728F9FFF78CFD6C
:10104000206001F07DFE8046B7E72068FFF76AFA6E
:10105000804658468946FFF765FA174B0022FFF78E
:10106000CBFA02460B4640464946FFF70FF9FFF719
:1010700073FD2060C8E7DFF84480D8F80000FFF770
:1010800051FA824648468B46FFF74CFA0A4B00223B
:10109000FFF7B2FA02460B4650465946FFF7F6F8FC
:1010A000FFF75AFDC8F80000CBE700BF640400203A
:1010B000AC040020680200200000E03F6402002031
:1010C0002DE9874801F03CFEDFF8FCB00446364EBF
:1010D000364D3460364C2B786BB90223CDE900B322
:1010E000372201232068D02102F0B2FF314B187063
:1010F00008B901232B702B78022BECD101F020FED4
:10110000BBF800302C4ADFF8C4A0044630685BBA54
:101110001380201A0FFA83F8FFF7F4F906464046C9
:101120000F46FFF7FFF9254B0022FFF7ADF83246D7
:101130003B46FFF761FA1AA3D3E90023FFF786FBCA
:10114000FFF752FDFFF700FA1D4B0022FFF77EFB71
:101150008046DAF800008946FFF7F6F902460B46AA
:1011600040464946FFF792F8FFF73EFD154B08EE63
:10117000100A4FF0333230463946FFF73DFA104B34
:101180000022FFF763FBFFF72FFD07EE900A38EE12
:10119000678A00238AED008A2B7098E7AFF30080FE
:1011A0000000000000606040300600205E02002069
:1011B00010060020360600200402002000006E40C9
:1011C00000408F403333B33F340600203C060020FC
:1011D00000B595B02C22002109A806F086FF142244
:1011E000002103A806F081FF0023194A0193116C26
:1011F00041F080511164126C02F080520192019A08
:10120000144A0293116841F48041116012680E93F0
:1012100002F480420292029A0222089201201022D5
:10122000CDE90B0208A803F0C3F8014608B172B675
:10123000FEE70F23CDE90330CDE90500079003A8B1
:1012400003F090FA08B172B6FEE715B05DF804FB42
:10125000003802400070004080B59EB00024AE4DC2
:1012600001F048FDFFF7B4FF1422002115A806F095
:101270003CFF02942B6BA94843F010032B632B6BAC
:1012800003F010030293029B03942B6B43F0800343
:101290002B632B6B03F080030393039B04942B6B52
:1012A00043F004032B632B6B03F004030493049BB0
:1012B00005942B6B43F001032B632B6B03F00103AD
:1012C0000593059B06942B6B43F002032B632B6B5A
:1012D00003F002030693069B07942B6B43F008036D
:1012E0002B632B6B03F00803079322464FF4BC617A
:1012F000079B02F08BFA8A4822463C2102F086FACC
:10130000884822464FF4005102F080FA224686486F
:10131000102102F07BFA01264FF4BC637F4815A927
:10132000CDE91536CDE9174402F096F93C23CDE915
:1013300015367B481794022315A918934FF40077AC
:1013400002F08AF94FF488137448179415A9CDE96F
:10135000157302F081F94FF40057724815A94FF048
:101360001008CDE91576CDE9174402F075F96E48FD
:1013700015A9CDE91586CDE9174402F06DF9009461
:101380002B6B43F400132B632B6B03F400130093BC
:10139000009B01942B6B43F480032B632B6B634DF9
:1013A00003F480032246052101930B20019B01F0E9
:1013B0001FFF0B2001F04EFF22460521382001F0CF
:1013C00017FF382001F046FF424621460AA806F0E2
:1013D0008CFE1C2221460EA8CDE9084406F085FEAD
:1013E0002022214615A806F080FE514BAC60C5E9CD
:1013F0000034284641F61F43C5E90334C5E90544D6
:1014000003F074FC08B172B6FEE74FF480530AA9EA
:1014100028460A9303F0ABFE08B172B6FEE72846F1
:1014200003F090FC08B172B6FEE7CDE9080008A908
:10143000284604F02DF8024608B172B6FEE7602394
:10144000CDE90E30CDE91000CDE9120014900EA9BF
:10145000284603F059FD08B172B6FEE704220EA932
:10146000284603F051FD08B172B6FEE7CDE915003C
:10147000CDE91700CDE919071C9015A9284604F0FD
:1014800045F8044608B172B6FEE72A4D01461C2213
:1014900016A806F02AFE0A274FF080434FF6FF7881
:1014A0004FF0030915A92846CDE90E44C5E90034DB
:1014B000C5E90384AC60AC61CDF8549017961997D8
:1014C0001B961D9703F096FC08B172B6FEE7CDE9B6
:1014D0000E000EA9284603F0DBFF044608B172B6E1
:1014E000FEE701461C2216A806F0FFFD1248134B2A
:1014F000046115A9CDE90E44C0E90034C0E90248F1
:101500008461CDF85490179619971B961D9703F098
:1015100071FCA8B172B6FEE700380240001002402C
:1015200000000240000C024000040240840500203C
:101530000004014064040020AC04002000040040CA
:1015400000239C480EA9CDE90E3303F0A1FF054608
:1015500008B172B6FEE70146CDE90A001C220EA8CA
:1015600006F0C3FD944C954E2022294615A806F09E
:10157000BCFDA023C4E9006320464FF6FF76C4E912
:101580000365C4E90555A56003F0DCFB08B172B63C
:10159000FEE7CDE90A000AA9204603F079FF08B169
:1015A00072B6FEE76023CDE90E30CDE9120010904F
:1015B00014900C220EA9204603F0A6FC08B172B6C6
:1015C000FEE7CDE91500CDE9170019904FF400535F
:1015D0001C9015A920461A9303F098FF054608B100
:1015E00072B6FEE72046764C01F03EFA754BA561D7
:1015F0002046CDE91555C4E90035C4E9025603F08B
:1016000075FB08B172B6FEE7CDE9150015A92046B5
:1016100003F03EFF08B172B6FEE76B4B6B4D1861ED
:101620004FF4E132C3E900520C22C3E90200C3E9DE
:101630000520D861184604F053F808B172B6FEE7E9
:10164000634B644C644A1862C3E900424FF480441F
:10165000C3E90200C3E90440C3E90600184602F0EA
:10166000B7FA08B172B6FEE75C4B5D495D4A186295
:10167000C3E90200C3E90440C3E906001846C3E910
:10168000001202F0A5FA08B172B6FEE7002510229A
:10169000294615A8544CCDE90E5506F026FD534AAF
:1016A000A5604723C4E9002320464FF6FF73C4E931
:1016B0000335A56103F072FB08B172B6FEE7CDE910
:1016C0000E000EA9204603F0E3FE024608B172B6F2
:1016D000FEE70126CDE916601590189015A9204661
:1016E00003F0A6FC054608B172B6FEE701461022DB
:1016F00015A806F0FAFC3E4C3E4BA560C4E9003547
:1017000002273D4B26612046267684F82050E5626C
:10171000A362E560E76184F83050666101F02AFB5E
:1017200008B172B6FEE70B23179015A92046CDE944
:10173000153601F0BBFC08B172B6FEE70C2320465B
:1017400015A9CDE9153701F0B1FC044608B172B610
:10175000FEE700F0FDFE04F025FA284A284821465D
:1017600004F04CFA274B284A18602146274804F019
:1017700045FA274B274A18602146274804F03EFACD
:10178000264B274A18602146264804F037FA264B94
:10179000264A18602146264804F030FA254B264A8E
:1017A00018602146254804F029FA254B186004F0FA
:1017B0000BFAFEE7AC0400201C04002000000140EE
:1017C0003C05002000100040CC05002000480040EF
:1017D0007403002000540040801A0600C803002053
:1017E00000580040A0860100F404002000080040DA
:1017F0006C020020002001400100000F80B20008B0
:10180000850F00085802002038B20008F5200008B3
:1018100024020020CCB10008910F00080C02002027
:10182000F0B10008C1100008100200205CB20008EE
:10183000451900082802002014B20008151B0008F2
:101840001C02002000000000F8B5254DA842064605
:1018500013D1077F012F10D1224C217871B903F0E9
:1018600022F9214B2770186033681A6A22F00A02A5
:101870001A621A6A42F002021A62F8BD0129FCD10A
:10188000002103F010F9194B194A1860164B1B6818
:1018900098421BD9C01A10601068FEF733FE0EA3E1
:1018A000D3E90023FEF7D2FFFFF77EF9114B186052
:1018B000002323702B681A6A22F00A021A621A6A3D
:1018C0001A62DA6822F00202DA60D6E7E4D2C3F5DF
:1018D0007F43FF331844DEE79A99999999992A40F2
:1018E000F40400202002002014020020180200202E
:1018F0006002002008020020034B1B6800225A628D
:101900005A6A8242FCD37047F404002010B50B4C95
:1019100001224FF40051204601F078FF1420FFF718
:10192000EBFF4FF400510022204601F06FFF044B03
:101930001A68D36843F00203D36010BD000C024064
:10194000F40400207FB51148114E124D124C0021B5
:1019500003F01CFD00224FF40051304601F056FF09
:10196000FFF7D4FF322001F0F1F92A68214601A8DF
:1019700006F058FB01AA28210A2000F0C9FD00F05A
:101980002FFD012004F081F9E4E700BFF4040020FA
:10199000000C02400802002068B100080268114BE8
:1019A0009A421ED11049114B0A781A70104B4A788E
:1019B0001A708B780F4803EB830303EB83020B79D8
:1019C000303303EB8203CA7802EB820203EB42035B
:1019D000094ADBB21370094B01221A70052204F088
:1019E000C8B8704700480040370600202C06002089
:1019F0005C020020CC0500205D0200205402002083
:101A0000124B30B51C889D88188999891A8AADB205
:101A100015FA84F414FA80F010FA81F111FA82F2C6
:101A20000B4992B20A805888DC885989DA895B8A26
:101A3000A4B214FA80F010FA81F111FA82F212FACB
:101A400083F3044A9BB2138030BD00BF2C020020F8
:101A5000280600202A060020124B30B59C8A1D8BD8
:101A6000988B198C9A8CADB215FA84F414FA80F024
:101A700010FA81F111FA82F20B4992B20A80D88AE7
:101A80005C8BD98B5A8CDB8CA4B214FA80F010FAE0
:101A900081F111FA82F212FA83F3044A9BB21380A5
:101AA00030BD00BF2C020020280600202A0600209E
:101AB00008B5FEF737FD15A3D3E90023FEF79CFD1B
:101AC000114B0022FEF798FDFFF78EF8FEF73CFD64
:101AD0009FED091B41EC100B08F000FC08A3D3E9B3
:101AE000002351EC100BFEF787FDFFF75DF880B285
:101AF00008BD00BFAFF30080F853E3A59BC4F2BF5D
:101B0000B0726891EDFC3D400000303F666666664D
:101B100066660A4080B5DFF844800C4F0C4E0D4CD1
:101B200014224146384601F0CBF93088052580B2B1
:101B3000B0FBF5F0FFF7BCFF074B2060188880B2C0
:101B4000B0FBF5F0FFF7B4FF6060E8E76C0200203F
:101B500028060020200600202A0600202C02002053
:101B60001FB54FF0FF3C0123CDE9013C0092006816
:101B70000A46D02102F064F9024B187005B05DF8F6
:101B800004FB00BF360600207FB501238DF8172027
:101B90004FF0FF32CDE901320DF1170200920068DB
:101BA0000A46D02102F0BCF807B05DF804FB000043
:101BB00037B5C0E900120DF1070200210446FFF716
:101BC000CFFF2B4D002228707F212046FFF7DCFF3E
:101BD0002022287003212046FFF7D6FF0922287013
:101BE00006212046FFF7D0FF3E222870072120461D
:101BF000FFF7CAFF4022287005212046FFF7C4FFE7
:101C00000022287003212046FFF7BEFF2022287003
:101C10007F212046FFF7B8FF392228700121204696
:101C2000FFF7B2FF0022287002212046FFF7ACFF29
:101C30003922287014212046FFF7A6FF00222870C1
:101C400015212046FFF7A0FF08222870002120461A
:101C5000FFF79AFF002228707F212046FFF794FFAC
:101C600028700A2001F072F8002003B030BD00BFD8
:101C7000360600200268034B9A4202BF024B022242
:101C80001A707047005400405E02002000000000FF
:101C90002DE9F84F464D474F2B68DFF82C815A222B
:101CA0002DED028B044600261A644FF4FA7010EEF4
:101CB00010AA3E60C8F8006001F048F8002C50D12E
:101CC0003D482246082101F0A1FD3B4801220421A4
:101CD00001F09CFD22463848102101F097FD0122B9
:101CE0003548202101F092FD344B1B6840F6C412A8
:101CF0005A634FF496729A6301F022F8304BD8F889
:101D000000B018603B6808EE103A5046FEF71CFC25
:101D100006460F46002C37D118EE100AFEF702FCDB
:101D2000284B80468946002230463946FEF78EFD14
:101D30001BA3D3E90023FEF75FFC02460B46404697
:101D40004946FEF7DFFE0028DFD02B689122BDEC6C
:101D5000028B1A64194B1B6800225A639A63BDE810
:101D6000F88F012CC8D114482246082101F04EFDFD
:101D700011483246042101F049FD22460E48102147
:101D800001F044FD3246ABE7012CBED15846FEF7C8
:101D9000C9FB05A3D3E9002380468946C4E700BFF9
:101DA00000000000003898403333333333F34B40A6
:101DB0001C0400206802002000000240840500206E
:101DC0003006002000004A406402002000000000AD
:101DD0002DE9F84F444D454F2B68DFF82081D22282
:101DE0002DED028B044600261A644FF4FA7010EEB3
:101DF00010AA3E60C8F8006000F0A8FF002C4DD18A
:101E00003B482246082101F001FD39480122042106
:101E100001F0FCFC22463648102101F0F7FC0122BB
:101E20003348202101F0F2FC324B1B684FF49672CC
:101E30005A6340F6C4129A633B68D8F800B008EEC3
:101E4000103A5046FEF780FB06460F46002C38D16C
:101E500018EE100AFEF766FB1FA3D3E900238046A5
:101E6000894630463946FEF7F1FC1DA3D3E900232D
:101E7000FEF7C2FB02460B4640464946FEF742FECD
:101E80000028DED02B688522BDEC028B1A64194B2A
:101E90001B6800225A639A63BDE8F88F012CCBD1EE
:101EA00013482246082101F0B1FC114832460421B2
:101EB00001F0ACFC22460E48102101F0A7FC32468E
:101EC000AEE7012CBDD15846FEF72CFB0A4B8046ED
:101ED00089460022C5E700BF3333333333734940AB
:101EE00000000000003898401C0400206802002018
:101EF000000002408405002000004B4064020020E6
:101F00002DE9F84F6E4B6F4AD3F800A08B232DEDCF
:101F1000028BCAF840306C4B93ED008A00231360AB
:101F20006A4A13600546FEF7FDFA694B00228046B7
:101F30008946FEF7A9F9664B0022FEF787FC654B40
:101F40000022FEF759FB644B06460F46002240462E
:101F50004946FEF77BFC52A3D3E90023FEF74CFB76
:101F600002460B4630463946FEF790F9FEF7F4FD7F
:101F700038EE488A0446F0EEC87A17EE900AFEF76B
:101F8000E3FA564BDFF86881D3F800B046A3D3E9F3
:101F90000023FEF7A3FDDFED527A002814BF17EEF1
:101FA000900A18EE100AFEF7CFFA41A3D3E90023F6
:101FB000FEF722FB40A7D7E9006741EC180B40F27F
:101FC000163998F80030772B21D151EC180B324696
:101FD0003B46FEF75BF9FEF7E7FDCAF8400098F8CC
:101FE0000030732B20D14C45EBDC3E4B1B6840F29C
:101FF000CF325A634FF482629A638DB1012D0DD1B5
:102000008C20BDEC028BBDE8F84F00F09FBE53EC76
:10201000182B30463946FEF737F9DCE7002CFDDA9D
:10202000BDEC028BBDE8F88F98F80030772B10D10B
:102030004C45C6DC2B4B1B684FF470725A6340F260
:10204000CA329A63002DEBD0012DD9D0002CFDDAD5
:10205000E6E798F80030742B10D14C45B1DC214BE9
:102060001B684FF470725A6340F2CA329A63002DB3
:10207000D6D0012DC4D0002CFDDAD1E7BBF11D0F65
:102080009FD8184B18491B68184800225A639A6356
:102090004FF0FF33032203F051FB6420B1E700BF90
:1020A00000000000003898409A9999999999B93F91
:1020B000666666666666F63F000000000060614086
:1020C0001C040020680200203C060020640200205E
:1020D00000004940008052400000354008020020C6
:1020E000000000008405002073B10008CC0500202A
:1020F0002C0600202DE9F84F944F954DDFF874A27F
:10210000DFF87492934E0C21384603F03DF900211C
:10211000284603F039F90421284603F035F93B68D5
:102120008D498E488B221A64052203F022FD2B680C
:102130008B498C484FF4FA725A639A63874AFFF7C7
:1021400037FD9AF80030002BFBD000248AF80040BD
:1021500099F80020732AD3B233D00AD8622B00F04A
:10216000E280662B00F0C4802B6800225A639A63D9
:10217000E7E7742B5BD0772BF6D13378782BE0D15F
:102180003B688B221A64642003F07FFD7648224668
:10219000082101F03BFB74480122042101F036FBC9
:1021A00071482246102101F031FB01226E482021A6
:1021B00001F02CFB2B6840F6DE525A6340F6CA52FF
:1021C00022E03378782BBCD13B688B221A646420E0
:1021D00003F05BFD64480122082101F017FB62480F
:1021E0002246042101F012FB5F480122102101F078
:1021F0000DFB22465C48202101F008FB2B6840F6CD
:102200003F525A6340F638629A63584B1878FFF78A
:1022100077FE2B685C639C63554950484FF0FF3351
:10222000032203F08BFA642000F090FD89E73B68FD
:10223000DFF83881DFF844B18B221A64642003F0A0
:1022400024FD98F80020DBF800309A4229D946484E
:102250000122082101F0DAFA43482246042101F064
:10226000D5FA41480122102101F0D0FA3E48224619
:10227000202101F0CBFA2B6840F63F525A6340F61A
:1022800038629A63732389F8003098F80000DBF80D
:102290000030C01AFFF734FE2B6800225A639A639D
:1022A000BAE798F800209342F6D92F482246082131
:1022B00001F0ACFA2C480122042101F0A7FA2A48C7
:1022C0002246102101F0A2FA27480122202101F024
:1022D0009DFA2B68DBF8000040F6DE525A6340F6A8
:1022E000CA529A63772389F8003098F80030D0E713
:1022F0003378612B09D11D4B1B7800EE103A204634
:10230000B8EE400AFFF7C4FC86E73378642B7FF40D
:1023100018AF164B1B7800EE103A2046B8EE400A74
:10232000FFF756FD78E73378612B05D10F4B1B780B
:10233000012000EE103AE3E73378642B7FF401AF1D
:102340000A4B1B78012000EE103AE7E71C0400203E
:10235000840500205C02002037060020CC05002008
:102360007403002010060020000002405D020020DF
:1023700077B10008540200202C060020080200203B
:1023800072B6FEE770B50A46044601B10122134851
:10239000124E4FF4807101F039FA082500222021F5
:1023A000304601F033FA23064CBF012200224021BF
:1023B000304601F02BFA013D01222021304601F088
:1023C00025FA640015F0FF05E4B2E7D1BDE87040DE
:1023D000024801224FF4807101F018BA0010024047
:1023E00070B50F4EB02400212046FFF7CBFF00212F
:1023F0000846FFF7C7FF00211020FFF7C3FF0025A5
:1024000016F8350001210135FFF7BCFF802DF7D10B
:102410000134E4B2B82C06F10106E4D170BD00BF6E
:10242000400600200023084810B41C460022C118B2
:1024300001F832400132802AFAD10133082BF5D15C
:102440005DF8044BFFF7CCBF40060020030610B533
:1024500012D43F2910D801F00703C3F10703012468
:102460009C40C908064BC1F10701C9B203EBC0008B
:10247000435C12B12343435410BD23EA0403FAE73B
:10248000400600202DE9F74F1F46203A1E4B9DF8CD
:1024900030B0D2B203EB021301931C4B02EB4202A9
:1024A00003EB82038146884600930C460026B74220
:1024B00002D103B0BDE8F08F0C2F0CBF009B019B35
:1024C0009D5D04F108035FFA83FA2B0658BFBBFA3F
:1024D0008BF2214604F101044CBF5A46520948468A
:1024E000E4B2FFF7B3FFA4EB08026D00BA42EDB20D
:1024F00007D109F101005FFA80F9C246013654465E
:10250000D5E7A245E1D1F9E718B70008A4B2000861
:10251000F7B504460D46561E012716F8013F0BB9C4
:1025200003B0F0BD7A2C82BF1035EDB200243A2DF5
:1025300003D9FFF777FF00252C4600972046327815
:102540000C2329460834FFF79DFFE4B2E5E70000BD
:1025500010B501F011FF404B404C1A6F22F0010200
:102560001A671A6F22F004021A6701F013FF0022A3
:102570008021204601F04AF9642000F0E7FB0122A7
:102580002046802101F042F90021AE20FFF7FAFE3B
:102590000021D520FFF7F6FE00215020FFF7F2FEC4
:1025A0000021A820FFF7EEFE00213F20FFF7EAFE02
:1025B0000021D320FFF7E6FE00210846FFF7E2FEE8
:1025C00000214020FFF7DEFE00218D20FFF7DAFE1C
:1025D00000211420FFF7D6FE00212020FFF7D2FEB5
:1025E00000210220FFF7CEFE0021A120FFF7CAFE46
:1025F0000021C020FFF7C6FE0021DA20FFF7C2FE4F
:1026000000211220FFF7BEFE00218120FFF7BAFE55
:102610000021EF20FFF7B6FE0021D920FFF7B2FE20
:102620000021F120FFF7AEFE0021DB20FFF7AAFE1C
:1026300000213020FFF7A6FE0021A420FFF7A2FE14
:102640000021A620FFF79EFE0021AF20FFF79AFE93
:10265000BDE81040FFF7E6BE00380240001002401F
:1026600013B5134B002400945A6C42F480425A6410
:102670005A6C02F480420092009A01941A6C42F063
:1026800080521A641B6C03F08053019322460F2181
:102690006FF00100019B00F0ABFD052108462246CA
:1026A00000F0A6FD052002B0BDE8104000F0D2BD4C
:1026B0000038024070B5064688B01422002103A8F5
:1026C00005F013FD32681F4B9A4238D1002503F5FF
:1026D0008C3301955A6C1C481C4C42F480725A642D
:1026E0005A6C02F480720192019A02951A6B42F0C0
:1026F00004021A631B6B03F004030293029B06227D
:10270000032303A9CDE9032300F0A6FF104B4FF4E8
:102710008061C4E900354FF40063C4E90413204626
:102720004FF40053C4E90255C4E90635C4E908551D
:1027300000F0C8FD08B1FFF723FEB463A66308B03C
:1027400070BD00BF0020014000080240B40200201C
:102750001064024070B514228AB0064600210DEBC9
:10276000020005F0C2FC3368354A934240D1354C33
:1027700000250195236B43F002032363236B03F0D1
:1027800002030193019B4FF440701223CDE905032E
:102790004FF0010C0323CDE907C32B48042305A9FF
:1027A000099300F059FF0295236CDFF8A8E043F489
:1027B00000132364236C254C03F400130293029B43
:1027C0004FF00073C4E900E320464FF48063C4E98E
:1027D0000255C4E90435C4E90655C4E9085500F0BA
:1027E00071FD08B1FFF7CCFDB463A6630AB070BDFC
:1027F000174A9342FAD1134C134800250395236BD3
:1028000043F002032363236B03F002030393039B50
:102810004FF440621223CDE9052303210423CDE9BF
:10282000081305A900F018FF0495236C43F48003F6
:102830002364236C03F480030493049BD6E700BF56
:1028400000540040003802400004024014030020FD
:1028500000580040106002400268094B9A4282B062
:102860000BD100230193074B5A6C42F001025A64CA
:102870005B6C03F001030193019B02B0704700BF42
:10288000000001400038024070B514228AB00446AE
:1028900000210DEB020005F028FC2368B3F1804F06
:1028A00037D103F50E33002400941A6C294842F006
:1028B00001021A641A6C02F001020092009A01945B
:1028C0001A6B42F001021A631A6B02F001020192C4
:1028D000019A02941A6B42F002021A631B6B03F016
:1028E00002030293029B02264FF40043012505A92F
:1028F000CDE90536099500F0AFFE0823CDE9053690
:10290000CDE907441448099505A900F0A5FE0AB0D1
:1029100070BD124A9342FAD1114B0E480021039127
:102920001A6C42F002021A641A6C02F0020203925C
:10293000039A04911A6B42F001021A631B6B03F0B5
:1029400001030493049BC0220223CDE905230993CC
:1029500005A9DAE70000024000040240000400403C
:102960000038024010B5044688B01422002103A8A4
:1029700005F0BBFB2268174B9A4228D103F50C33B4
:10298000002401941A6C144842F004021A641A6C70
:1029900002F004020192019A02941A6B42F00802BA
:1029A0001A631B6B03F0080302934FF48052029BDF
:1029B00003A90223CDE90323079300F04DFE1E2057
:1029C0002246052100F014FC1E2000F043FC08B054
:1029D00010BD00BF00080040000C024010B50446C6
:1029E00088B01422002103A805F07FFB23681A4A4F
:1029F00093420DD100230093184B1A6C42F0100241
:102A00001A641B6C03F010030093009B08B010BD08
:102A1000134A9342FAD1114B1248002101915A6C8A
:102A200042F002025A645A6C02F002020192019AC8
:102A300002911A6B42F004021A631B6B03F0040349
:102A40000293029BC0220223CDE9032303A903239F
:102A5000079300F001FED9E7001000400038024063
:102A6000000401400008024010B5044686B014225C
:102A7000002101A805F039FB22680E4B9A4216D1BD
:102A8000002300930C4B0D481A6B42F010021A639E
:102A90001B6B03F010030093009B4FF48042022352
:102AA000CDE9012301A90123059300F0D5FD06B06E
:102AB00010BD00BF0000014000380240001002407D
:102AC00010B5044688B01422002103A805F00DFBC0
:102AD0002268184B9A422BD103F5F8330024019455
:102AE0001A6C154842F480221A641A6C02F480228F
:102AF0000192019A02941A6B42F004021A631B6B52
:102B000003F0040302934FF44062029B0223CDE9D9
:102B1000032303210723CDE9061303A900F09CFD3D
:102B200027202246052100F063FB272000F092FBBE
:102B300008B010BD0048004000080240FEE7FEE774
:102B4000FEE7FEE7FEE7704708B500F0EDF804F099
:102B500055F8012803D0BDE8084004F063BB08BD68
:102B600070470000014800F0B7BC00BF140300200C
:102B7000014801F0B2BF00BFF4040020014802F098
:102B800097BE00BFCC050020014800F0A5BC00BFE7
:102B9000B40200200120704708B505F0F9FA1623A9
:102BA00003604FF0FF3008BD08B505F0F1FA1623B9
:102BB0000360FEE770B50D4614460E46731B9C423B
:102BC00001DC204670BDAFF3008006F8010BF5E78D
:102BD00070B50D4614460E46731B9C4201DC204620
:102BE00070BD16F8010BAFF30080F5E74FF0FF3032
:102BF00070474FF400534B6000207047012070472E
:102C0000002070470B4A116810B5034609B90A49FC
:102C10001160106809490A4C0344091B8B4206D90C
:102C200005F0B6FA0C2303604FF0FF3010BD1360BF
:102C3000FCE700BF400A0020E05400200000022012
:102C400000040000034AD2F8883043F47003C2F84D
:102C50008830704700ED00E0DFF834D00D480E49B1
:102C60000E4A002302E0D458C4500433C4188C42E6
:102C7000F9D30B4A0B4C002301E013600432A2424B
:102C8000FBD3FFF7DFFF05F089FAFEF7E5FA70479F
:102C90000000022000000020E8010020F0C0000831
:102CA000E8010020E0540020FEE7000038B50E4B9C
:102CB0001A784FF47A73B3FBF2F30C4A05461068A6
:102CC000B0FBF3F000F0D4FA044658B90F2D09D840
:102CD000024629464FF0FF3000F08AFA044B2046A6
:102CE0001D6038BD0120FCE704000020000000202A
:102CF0000800002008B50B4B1A6842F400721A60F5
:102D00001A6842F480621A601A6842F480721A608B
:102D1000032000F05BFA0F20FFF7C8FFFFF7A0FCCD
:102D2000002008BD003C0240034A044B11681B7898
:102D30000B441360704700BF440A002004000020C9
:102D4000014B1868704700BF440A002038B504469C
:102D5000FFF7F6FF631C1CBF054B1B78054618BF29
:102D6000E418FFF7EDFF431BA342FAD338BD00BFC1
:102D70000400002038B50446002800F09B80056C54
:102D800025B9FFF797FC656484F83C50236CDB069B
:102D900000F18E80236C23F4885323F0020343F068
:102DA00002032364444B5A6822F440325A605A6842
:102DB00061680A435A60236821695A6822F4807264
:102DC0005A605A6842EA01225A605A68A16822F0A1
:102DD00040725A605A680A435A609A68E16822F45D
:102DE00000629A609A680A439A603449A26A8A42E9
:102DF00052D0996821F07061996099680A439A608D
:102E00009A68E16A22F040529A609A680A439A608E
:102E10009A6822F002029A609A68217E42EA410290
:102E20009A6094F82020002A3ED05A68616A42F4E1
:102E300000625A605A6822F460425A605A68013946
:102E400042EA41325A60DA6AE16922F47002DA62D7
:102E5000DA6A013942EA0152DA629A6822F40072AF
:102E60009A609A6894F8301042EA41229A609A680F
:102E7000616922F480629A609A68002042EA8122A5
:102E80009A606064236C23F0030343F0010323641E
:102E9000002384F83C3038BD9A6822F070629A6052
:102EA0009A6822F04052B2E75A6822F40062C9E7F9
:102EB0000120EDE70120EEE7002301400100000FB3
:102EC00073B513460022019290F83C20012A054672
:102ED00000F092800122066880F83C20B268D40796
:102EE00054D5B268D00564D4B46814F0010479D024
:102EF000286C20F4E06020F0010040F48070286429
:102F00007268520541BF286C20F4405040F4805054
:102F100028642A6CA86B12F480521CBF6A6C22F0E1
:102F200006026A640024354A85F83C40C263344A8C
:102F30000264344AC2646FF022023260726842F066
:102F400080627260B26842F48072B2600A4606F132
:102F50004C0100F035FA2C492B684A682B4812F0D6
:102F60001F0232D1834207D000F58070834225D101
:102F7000496811F01F0F32D1986810F0405003D10A
:102F80009A6842F080429A60002228E0B26842F0DB
:102F90000102B2601E4A10681E4AB0FBF2F000EB5C
:102FA00040000190019A002A9BD0019A013A0192B7
:102FB000F8E7B26822F48072B26095E7164883425F
:102FC0000DD1496811F0100FD5E78342DCD19A6822
:102FD00012F040520ED1996841F08041996010463C
:102FE00002B070BD2B6C43F010032B646B6C43F08C
:102FF00001036B642246F2E70222F0E73F3000084B
:103000001D30000829300008002301400020014045
:103010000000002040420F000022014008B5806BF4
:10302000FEF7EEFC08BD7047806B08B540230364D3
:10303000436C43F004034364FFF7F5FF08BD836B63
:103040001A6C12F0500F10B51A6C23D142F40072B2
:103050001A641A68916811F0405F17D1197EA9B9F6
:10306000D16A11F4700F02D0916848050ED45168EE
:1030700021F0200151601A6C22F480721A641A6CDB
:10308000D1045EBF1A6C42F001021A641846FEF7C2
:10309000E3FC10BDD20603D51846FFF7C4FFF8E7DE
:1030A0009B6BBDE81040DB6C18470000F7B50023B0
:1030B000019390F83C30012B64D0012380F83C3020
:1030C0000D6803688E68092DACB231D904EB440257
:1030D000DF681E3A4FF0070C0CFA02FC27EA0C07D7
:1030E000DF60DF6806FA02F23A43DA6049680629CF
:1030F00001EB81022BD8596B053A1F26964021EA35
:1031000006015963596B04FA02F20A435A632B4AC7
:10311000934207D1122D37D1D2F8043343F4800300
:10312000C2F80433002380F83C30184603B0F0BDE9
:103130001A6905EB450C072707FA0CF722EA070284
:103140001A611A6906FA0CF616431E61CEE70C29BD
:103150004FF01F010BD81E6B233A914026EA010164
:103160001963196B04FA02F20A431A63CFE7DE6AA5
:10317000413A914026EA0101D962D96A94400C4350
:10318000DC62C4E70220D1E7A5F11003012BC9D806
:103190000B4A5368102D43F400035360C2D1094B0E
:1031A000094A1B68B3FBF2F30A2253430193019BC4
:1031B000002BB7D0019B013BF8E700BF0020014086
:1031C000002301400000002040420F000749CA6868
:1031D00022F4E0620302120403F4E063120C1343CE
:1031E00043F0BF6343F40033CB60704700ED00E071
:1031F000164B30B5DC68C4F30224C4F10703251D67
:10320000042B28BF0423062D4FF0FF358CBF033C51
:10321000002405FA03F321EA0303A54022EA05028C
:10322000A340002843EA0203ACBF00F16040084A13
:103230004FEA0313B8BF00F00F00DBB2AABF00F5DE
:103240006140135480F8003330BD00BF00ED00E052
:1032500014ED00E0002807DB4109044A00F01F00DC
:103260000123834042F82130704700BF00E100E0B5
:103270000138B0F1807F0BD24FF0E023054A58614E
:10328000F02182F823100020072298611A6170470C
:103290000120704700ED00E0036810B5DAB2103A83
:1032A000074C23F47F7323F003035F2A88BF0433A2
:1032B0001821B2FBF1F1615CC1658365184610BD50
:1032C00020BD000870B50446FFF73AFD0546002C06
:1032D00071D0022384F835302268002384F834301A
:1032E000136823F00103136022681368D8072ED4F3
:1032F00013683248A1691840D4E901352B43E568C9
:103300002B4325692B4365692B43E5690B432B430D
:10331000256A2B430343606A042802BFD4E90B5695
:1033200035432B4313605369042823F0070343EA12
:10333000000332D1A06AE56A034375B391B901284D
:1033400020D030F0020128D1E90126D51DE0FFF799
:10335000F7FC401B0528C7D920236365032084F8A8
:10336000350070BDB1F5005F13D1032815D801A158
:1033700051F820F08B330008493300088B330008E4
:1033800085330008B5F1C07F07D140236365012074
:10339000E5E70228F9D90328D6D053612046FFF784
:1033A0007BFFE26D3F239340836000200123606533
:1033B00084F83530D5E70120D3E700BF3F8010F017
:1033C00070B590F83440866D012C31D0012480F81E
:1033D000344090F83540012C4FF000054FF00204C6
:1033E00024D180F8354004684565256825F480259A
:1033F000256063608368402B0EBFA260A160E2601D
:10340000C26D08BFE1603F239340B360236843F07F
:1034100016032360036C1BB1236843F00803236089
:10342000236843F001032360002070BD80F834500E
:103430000220FAE770B50446866DFFF781FC94F828
:103440003530022B054606D080236365012000231A
:1034500084F8343070BD23681A6822F016021A60AE
:103460005A6922F080025A61226C0AB9A26C1AB120
:103470001A6822F008021A601A6822F001021A6023
:1034800023681B6813F0010308D1E16D3F228A40D5
:10349000B260012284F835201846D8E7FFF750FCC7
:1034A000401B0528ECD920230320636584F83500F0
:1034B000CDE790F83530022B03D0802343650120FF
:1034C00070470268052380F83530136823F0010344
:1034D0001360002070470000F7B5002301935C4B98
:1034E000856D1F68C36D2E6808229A4032420446DB
:1034F0000CD001680868400708D5086820F004006F
:103500000860AA60626D42F00102626501229A4081
:10351000324208D021684969090641BFAA60626D3C
:1035200042F00202626504229A40324208D02168C9
:103530000968880741BFAA60626D42F004026265B3
:1035400010229A40324210D02368196809070CD51E
:10355000AA601A68500337D51B68190301D4236C7D
:1035600000E0A36C0BB120469847E16D20228A4011
:1035700032423AD023681868C60636D5AA6094F855
:103580003520052A1A6827D122F016021A605A69D6
:1035900022F080025A61226C0AB9A26C1AB11A6830
:1035A00022F008021A603F238B40AB60012384F8AD
:1035B0003530002384F83430236D002B45D020466D
:1035C00003B0BDE8F04018471A68D2055EBF1A681C
:1035D00022F008021A60C2E7500327D51B681903BE
:1035E00031D4636C0BB120469847636D6BB3636D48
:1035F000DA0719D522684FF41653B7FBF3F7052302
:1036000084F83530136823F001031360019B013304
:10361000BB42019302D81368DB07F7D4012384F877
:103620003530002384F83430E36CC6E71A6812F4AE
:10363000807208D1196821F010011960012384F803
:10364000353084F83420E36BCCE703B0F0BD00BF25
:1036500000000020406D70472DE9F74FDFF8A8917A
:10366000674A00230D6801249C4004EA050CAC4322
:1036700040F0B1804D6805F003044FEA430803268B
:10368000671E06FA08F6012F6FEA060634D8876827
:1036900007EA060ECF6807FA08F747EA0E078760C1
:1036A000476827EA0C0EC5F300179F4047EA0E074C
:1036B0004760C76807EA060E8F6807FA08F747EA07
:1036C0000E07022CC76019D14FEAD30A00EB8A0A11
:1036D00003F0070BDAF820704FEA8B0B4FF00F0E58
:1036E0000EFA0BFE27EA0E0E0F6907FA0BF747EAF0
:1036F0000E07CAF8207001E0032CDAD1076804FA3B
:1037000008F437403C4315F4403F046063D04FF069
:10371000000ACDF804A0D9F844603A4C46F480463B
:10372000C9F84460D9F8446006F480460196019EC9
:1037300023F0030606F1804606F59C3603F0030EDF
:10374000D6F808804FEA8E0E0F2707FA0EF7A04230
:1037500028EA070746D004F58064A04244D004F567
:103760008064A04242D004F58064A04240D004F5B9
:103770008064A0423ED004F58064A0423CD004F5B1
:103780008064A0423AD004F58064A0420CBF0724B4
:10379000082404FA0EF43C43B46094686FEA0C0603
:1037A000EF0254BF34404CEA04049460D468AF0282
:1037B00054BF34404CEA0404D4605468AF0354BF8F
:1037C00034404CEA040454601468ED0354BF3440A0
:1037D0004CEA040414600133102B7FF443AF03B0B0
:1037E000BDE8F08F5446D4E70124D2E70224D0E7A5
:1037F0000324CEE70424CCE70524CAE70624C8E75F
:10380000003C014000000240003802400AB18161E2
:1038100070470904FBE701684B6913F480634FF0BC
:10382000000210D06FF480634B612023026380F8A4
:103830003D3080F83E20036C80F83C2043F00403C8
:10384000036401207047184670472DE9F846064684
:103850000F4691461D464FEA114A3368BAF1010FEF
:103860000CBF5C699C6927EA0404A4B2B4FA84F42E
:103870006409A14501D0002017E06A1CEED0FFF7D3
:103880005FFA089BC01AA84201D8002DE5D1002399
:103890002022336386F83D2086F83E30326C86F86D
:1038A0003C3042F0200232640120BDE8F8862DE968
:1038B000F04104460F46164698462568686927EA8F
:1038C000000080B2B8B16B695A0516D52B6843F475
:1038D00000732B606FF480636B61202200232363ED
:1038E00084F83D2084F83E30226C42F004022264C9
:1038F00084F83C300120BDE8F081731CDED0FFF776
:103900001FFAA0EB0800B04201D8002ED5D1002349
:103910002022236384F83D2084F83E30226C42F05C
:103920002002E4E770B504460D46164621684B694F
:1039300013F0400301D0002010E04A69D2060ED5F2
:103940006FF010024A612022236384F83D2084F83E
:103950003E30226C226484F83C30012070BDFFF7B9
:10396000EFF9801BA84201D8002DDFD100232022CF
:10397000236384F83D2084F83E30226C42F020021C
:10398000E8E770B504460D46164623685B691B06DA
:1039900001D5002070BD2046FFF73DFFA8B96A1C85
:1039A000F3D0FFF7CDF9801BA84201D8002DECD150
:1039B00000232022236384F83D2084F83E30226CCB
:1039C00084F83C3042F0200222640120E2E700004B
:1039D0002DE9F0431546026885B0DDE90C7899467B
:1039E000136843F4807313600E463B46CDF80080A5
:1039F00000224FF001110446FFF727FF236838B17A
:103A00001B68DB0502D54FF40073236403200AE032
:103A100006F0FE061E61194943463A462046FFF766
:103A200046FF18B1012005B0BDE8F083236803907C
:103A30005A6903929B690393424639462046039B89
:103A4000FFF79FFF40B1236C042B01BF226813686E
:103A500043F400731360E5E7B9F1010F236802D165
:103A6000EDB21D61DFE72A0A1A6139464246204657
:103A7000FFF787FF0028E6D12368F1E70200010085
:103A80002DE9FF479A46036815461A6842F480629A
:103A90001A601A68DDE90C7842F480721A600E46EA
:103AA0003B46CDF8008000224FF001110446FFF79D
:103AB000CCFE236848B11B68DB0502D54FF40073C8
:103AC0002364032004B0BDE8F0875FFA86F906F0AE
:103AD000FE061E612A4943463A462046FFF7E7FEA6
:103AE00008B10120EEE7236803905A6903929B69AD
:103AF0000393424639462046039BFFF742FF40B1FD
:103B0000236C042B01BF2268136843F40073136015
:103B1000E7E7BAF1010F23681AD1EDB242461D6101
:103B200039462046FFF72DFF02460028E8D12168DC
:103B30000B6843F480730B602046CDF800803B4651
:103B40004FF00111FFF781FE226860B11368B3E7FF
:103B50002A0A1A61394642462046FFF712FF00281A
:103B6000CED12368D9E749F00103136104494346E4
:103B70003A462046FFF79BFE003818BF0120A1E718
:103B80000200010070B504460D46164623685B69C5
:103B90005B0701D5002070BD2046FFF73CFEA8B9A9
:103BA0006A1CF3D0FFF7CCF8801BA84201D8002D87
:103BB000ECD100232022236384F83D2084F83E309A
:103BC000226C84F83C3042F0200222640120E2E7BB
:103BD00070B5044608B9012070BD90F83D3003F07F
:103BE000FF021BB980F83C20FEF7B4FD242384F8C3
:103BF0003D3023681A6822F001021A601A6842F404
:103C000000421A601A6822F400421A6000F044FE72
:103C10003F4B65689D4294BF3E4B3F4B98428CBFE3
:103C200000230123002BD6D12268394E51683B4B2B
:103C3000B0FBF3F321F03F011943B542516088BF57
:103C40004FF49676116A88BF734321F03F0184BF19
:103C50004FF47A76B3FBF6F301330B431362D16969
:103C6000431E2B4821F44F41854221F0FF0132D8F9
:103C70006D0040F6FC70B3FBF5F30133034242D014
:103C8000C3F30B031943D161D4E90730116803432F
:103C900021F0C0010B4313609168D4E9030321F4C0
:103CA0000341034321F0FF010B439360D4E9053046
:103CB000D168034321F0FF010B43D360136843F045
:103CC0000103136000202023206484F83D3020632A
:103CD00084F83E0080E7A06850B905EB4505B3FBCA
:103CE000F5F30133C3F30B037BB143F40043C9E79E
:103CF00019206843B3FBF0F30133C3F30B0323B183
:103D000043F44043BEE70423BCE70123BAE700BF06
:103D1000A08601007F841E00FF083D0040420F0086
:103D20002DE9F743044699460C9E0F469046FFF74F
:103D300007F894F83D30202B054603D0022003B04D
:103D4000BDE8F08300903C49192301222046FFF78B
:103D50007CFD0028F2D194F83C30012BEED0206895
:103D6000012384F83C300368D9075EBF036843F041
:103D700001030360036823F400630360212384F8D4
:103D80003D30402384F83E30002323640A9B636265
:103D9000BDF82C306385638D2385284BE362CDE924
:103DA00000654B46424639462046FFF711FE002883
:103DB0002AD00120C3E7FFF7E4FD40B1236C042BB8
:103DC00001BF2268136843F400731360F1E7636A6C
:103DD00027681A4612F8011B39616262628D218DD3
:103DE000013A92B262857A69481E80B252072085F4
:103DF0000AD548B15A783A6102336362638D013B58
:103E000002399BB221856385238D2A46314620469F
:103E1000002BD0D1FFF7B6FE0028CFD1226813685F
:103E200043F400731360202384F83D3084F83C0091
:103E300084F83E0083E700BF020010000000FFFF8F
:103E40002DE9F043044687B09946109F0D469046F1
:103E5000FEF776FF94F83D30202B064604D002256D
:103E6000284607B0BDE8F083009076491923012267
:103E70002046FFF7EAFC0028F1D194F83C30012BF2
:103E8000EDD02068012384F83C300368DB075EBF77
:103E9000036843F001030360036823F400630360D5
:103EA000222384F83D30402384F83E3000232364ED
:103EB0000E9B6362BDF83C306385638D2385624B46
:103EC000E3622946CDE900764B4642462046FFF79D
:103ED000D7FD054608B10125C2E7228D2368B2B996
:103EE00002905A6902929A690292029A1A6842F4FE
:103EF00000721A60DFF85481238D002B2CD1202210
:103F000084F83D2084F83C3084F83E30A8E7012A4C
:103F10000AD11A6822F480621A6003905A690392E7
:103F20009A690392039AE1E7022A0ED11A6822F4F1
:103F300080621A601A6842F400621A6004905A693A
:103F400004929B690493049BD4E705905A690592F7
:103F50009B690593059BCDE7032B56D8012B15D103
:103F6000324639462046FFF7DDFC0028B3D12368EE
:103F70001A69636A1A70636A01336362238D013BB5
:103F80002385638D013B9BB26385B5E7022B0096C9
:103F90003B464FF000024146204619D1FFF755FC41
:103FA000002898D123681A6842F400721A601A69CE
:103FB000636A1A70626A531C6362238D013B238516
:103FC000638D013B9BB2638523681B695370D2E705
:103FD000FFF73BFC024600287FF47DAF2368196899
:103FE00021F4806119601969636A1970636A009627
:103FF00001336362238D013B2385638D013B9BB2BB
:10400000638541463B462046C8E73246394620464E
:10401000FFF788FC00287FF45EAF23681A69636AA3
:104020001A70626A531C6362238D013B2385638D82
:10403000013B9BB263852368596949077FF55CAFF3
:10404000C3E700BF020010000000FFFF04000100F2
:104050002DE9F04786B0044699460E9E0F469046DD
:10406000FEF76EFE0023039394F83D30202B82462A
:1040700003D0022006B0BDE8F087664B46F2A812D6
:104080001B68B3FBF2F3192253430393039B013BD9
:104090000393039B6BB92022236384F83D2084F8AB
:1040A0003E30226C84F83C3042F020022264012031
:1040B000E0E721688B699A07E8D494F83C30012B3B
:1040C000D7D0012384F83C300B68534ADB075EBF2E
:1040D0000B6843F001030B600B6823F400630B6073
:1040E000222384F83D30402384F83E300025BDF87B
:1040F0003C3025646385638D66629BB2E2622385F2
:104100006764C4F84880C4F84C902565002B63D0E0
:10411000A06B50B3414AC263414AC264C0E9105522
:104120003246856405651031FFF74AF906460028D6
:1041300046D123230093CDF804A04B46424639468E
:104140002046FFF79DFCE0B1A06BFFF7B2F9A36B2F
:10415000DE6323681A6822F480621A6066851A6832
:10416000268522F001021A60A1E7202384F83D3061
:1041700084F83E00236C84F83C0043F08003236401
:1041800095E7228D2368012A0BBF1A685A6822F42A
:10419000806242F480520CBF1A605A60002204927E
:1041A000596904919969049184F83C2004995A68EA
:1041B00042F480725A605A6842F400625A6059E7C9
:1041C000202384F83D3084F83E50236C84F83C5022
:1041D00043F0100323646AE723230093CDF804A07F
:1041E0004B46424639462046FFF74AFC00287FF4FA
:1041F0005EAF236805905A6905929A690592059AFF
:104200001A6842F400721A60202384F83D3084F862
:104210003C002FE7000000200000FFFF7142000873
:104220002D420008704770477047704710B5846B87
:10423000636B0BB10022DA63A36B0BB10022DA636C
:10424000FFF708FA022812D02268136823F480636B
:10425000136000232022638584F83D2084F83E30DB
:10426000236C43F0100323642046FFF7DEFF10BDEC
:1042700070B5846B236894F83D2094F83E00E16AA1
:104280005D6825F440755D60656BD2B2C0B20DB15A
:104290000026EE63A56B0DB10026EE6302F021054A
:1042A000212D05D002F02205222D23D1202821D155
:1042B000596821F400615960292A4FF00003638591
:1042C0000DD121232363282384F83D302046FFF7B6
:1042D000AAFF2268536843F44073536070BD2A2AD2
:1042E000F7D122232363282384F83D302046FFF7AB
:1042F0009BFFEEE794F83E20002AEFD0628D92B249
:10430000012A02BF1A6822F480621A605A6811F505
:10431000803F22F440725A6006D0082904D0B1F1DF
:104320002A4F01D0202903D11A6842F400721A6082
:104330005A6822F480525A605A6822F400625A6025
:1043400000236385236C1BB12046FFF76EFFC5E792
:10435000202284F83D2094F83E2084F83E30402A04
:1043600004D123632046FDF785FCB7E712232363BE
:104370002046FFF757FFB1E7044B01221A62044BB6
:1043800082B01B680193019B02B0704700000E428F
:1043900000700040044B00221A62044B82B01B687C
:1043A0000193019B02B0704700000E420070004074
:1043B0002DE9F341044640B30368DD0710D42368B8
:1043C00098075BD423681A0700F19D8023685B0778
:1043D00000F1BD80A069002840F0248100202CE07D
:1043E0008D4B9A6802F00C02042A07D09A6802F0FA
:1043F0000C02082A0BD15B68590208D5864B1B6852
:104400009A03DCD56368002BD9D1012015E06368DD
:10441000814DB3F5803F13D12B6843F480332B607B
:10442000FEF78EFC7C4E054633689B03C7D4FEF72F
:1044300087FC401B6428F7D9032002B0BDE8F08157
:10444000B3F5A02F04D12B6843F480232B60E3E75E
:104450002A6822F480322A602A6822F480222A60A4
:10446000002BDDD1FEF76CFC06462B689F03A6D51A
:10447000FEF766FC801B6428F7D9DDE7664B9A6877
:1044800012F00C0F07D09A6802F00C02082A11D122
:104490005B685E020ED4604A13689D0702D5E3682C
:1044A000012BB2D11368216923F0F80343EAC10359
:1044B000136087E7E268594BB2B101221A60FEF738
:1044C0003FFC554D06462B68980707D52B68226997
:1044D00023F0F80343EAC2032B6073E7FEF730FCD6
:1044E000801B0228EFD9A7E71A60FEF729FC4A4E85
:1044F0000546336899077FF565AFFEF721FC401B41
:104500000228F6D998E76269444B82B10122C3F8C8
:10451000802EFEF715FC404E0546736F9F073FF552
:1045200055AFFEF70DFC401B0228F6D984E7C3F80F
:10453000802EFEF705FC384E0546736F98077FF511
:1045400045AFFEF7FDFB401B0228F6D974E7324B5E
:104550001A6C12F0805228D101921A6C42F08052EB
:104560001A641B6C03F080530193019B01272C4DAF
:104570002B68D9051BD5A368274D012B27D12B6F9D
:1045800043F001032B67FEF7DBFB234E054641F2A8
:104590008838336F9B0739D5002F3FF41BAF1E4A75
:1045A000136C23F08053136414E70027DFE72B68B4
:1045B00043F480732B60FEF7C3FB06462B68DA05D5
:1045C000D9D4FEF7BDFB801B0228F7D934E7052BB1
:1045D00004D12B6F43F004032B67D0E72A6F22F03E
:1045E00001022A672A6F22F004022A67002BCAD12F
:1045F000FEF7A6FB41F2883806462B6F9807CBD50D
:10460000FEF79EFB801B4045F7D915E7FEF798FBA8
:10461000401B4045BDD90FE700380240000047422B
:1046200000700040364DAB6803F00C03082B3DD002
:10463000344B002202281A662BD1FEF781FB064676
:104640002B6899011FD4D4E907321343626A43EA05
:104650008213E26A43EA0263A26A5208013A43EA19
:1046600002436B60274B264D01221A66FEF768FB5A
:1046700004462B689A013FF5B1AEFEF761FB001BC3
:104680000228F6D9D8E6FEF75BFB801B0228D7D9B3
:10469000D2E6FEF755FB04462B689B017FF59EAEE4
:1046A000FEF74EFB001B0228F6D9C5E601283FF4B1
:1046B000C4AE6B68E26903F4800191427FF4A5AE59
:1046C000216A03F03F028A427FF49FAE616A47F697
:1046D000C0721A40B2EB811F7FF497AEA26A5208F3
:1046E00003F44031013AB1EB024F7FF48EAEE26A3F
:1046F00003F07063B3EB026F3FF470AE85E600BF6A
:104700000038024000004742134908B58B6803F0A7
:104710000C03042B1CD0082B1CD14A684B68496839
:1047200013F4800314BF0D480D48C1F3881118BF5E
:10473000002302F03F02A1FB0001FCF7A5FA064BA3
:104740005B68C3F3014301335B00B0FBF3F008BDCA
:104750000248FCE70248FAE70038024040787D0151
:104760000024F4002DE9F0410D46044610B9012063
:10477000BDE8F081434B1A6802F007028A4228D351
:1047800021688F072DD4C80740D43E4B1A6802F029
:104790000702AA4265D8226851076BD4130707D5D0
:1047A000394A2169936823F4604343EAC103936063
:1047B000FFF7AAFF344B354A9B68C3F30313D35C5E
:1047C000D840334B1860334B1868FEF76FFA00205F
:1047D000CEE7CAB21A701B6803F007038B42C6D13A
:1047E000CEE7294B11F0040F1EBF9A6842F4E05245
:1047F0009A600E0742BF9A6842F460429A609A68D3
:10480000A06822F0F00202439A60BCE762681E4B87
:10481000012A1CD11B6813F4003FA8D01A4EB368BC
:1048200023F003031343B360FEF78AFA41F288389A
:104830000746B368626803F00C03B3EB820FA4D0A1
:10484000FEF77EFAC01B4045F3D9032090E7911E86
:1048500001291B6802D813F0007FDEE713F0020F76
:10486000DBE7EAB21A701B6803F00703AB427FF480
:104870007EAF90E70449E0688B6823F4E05303437C
:104880008B608BE7003C02400038024008BD000806
:104890000000002008000020044B054A9B68C3F379
:1048A0008223D35C034A1068D84070470038024026
:1048B00018BD000800000020044B054A9B68C3F3A4
:1048C0004233D35C034A1068D84070470038024036
:1048D00018BD000800000020036A23F001030362F2
:1048E000036A70B5446882690D6822F073022A4336
:1048F0008D6823F002032B430E4DA84202D00E4ECA
:10490000B04210D1CE6823F008033343A84223F00D
:10491000040302D0084DA84205D1D1E9055624F47C
:10492000407435432C43446082614A6842630362A9
:1049300070BD00BF0000014000040140036A23F481
:1049400080730362036A70B54468C2690D6822F01F
:1049500073022A438D6823F4007343EA0523114D43
:10496000A84203D005F58065A84214D1CD6823F490
:10497000006343EA05230B4DA84223F4806303D070
:1049800005F58065A84206D1D1E9055624F44054C6
:10499000354344EA05144460C2614A68C263036255
:1049A00070BD00BF00000140036A23F4805303621E
:1049B000036A30B54468C2690D6822F4E64242EAEF
:1049C00005228D6823F4005343EA0533084DA842BD
:1049D00003D005F58065A84204D14D6924F48044D4
:1049E00044EA85144460C2614A680264036230BDCF
:1049F0000000014030B5034690F83E0093F83F2098
:104A000093F8425093F84340C0B2D2B2EDB2E4B250
:104A1000C1B9012845D1012D13D1022283F83E20CE
:104A200083F842201A68116A21F001011162116AAB
:104A300041F0010111621A68136843F00103136029
:104A4000002030BD042911D1012A2AD1012C28D1FE
:104A5000022283F83F2083F843201A68116A21F06C
:104A600010011162116A41F01001E3E7012818D129
:104A7000012AE6D1012DE4D1012CE2D1022283F8F2
:104A80003E2083F83F2083F8422083F843201A68B1
:104A9000116A21F001011162116A41F001011162F4
:104AA000DCE70120CDE7082910D004D841B1042962
:104AB00009D0002070470C29FBD10368186C70479F
:104AC0000368586B70470368986B70470368D86B2E
:104AD0007047704770477047704703681A699107BD
:104AE00010B504460ED5DA6892070BD56FF00202B6
:104AF0001A61012202779B699B0777D0FCF7A4FE1D
:104B00000023237723681A69500710D5DA68510704
:104B10000DD56FF004021A61022222779B6913F40B
:104B2000407F204668D0FCF78FFE00232377236860
:104B30001A6912070FD5DA6810070CD56FF0080252
:104B40001A6104222277DB69990720465AD0FCF7C4
:104B50007BFE0023237723681A69D20610D5DA6812
:104B6000D0060DD56FF010021A6108222277DB699A
:104B700013F4407F20464BD0FCF766FE00232377DA
:104B800023681A69D10708D5DA68D20705D56FF00E
:104B900001021A612046FFF79CFF23681A6910067C
:104BA00008D5DA68110605D56FF080021A61204633
:104BB00000F0D3FC23681A69520608D5DA6850065B
:104BC00005D56FF040021A612046FFF785FF236884
:104BD0001A69910622D5DA6892061FD56FF0200275
:104BE00020461A61BDE8104000F0B6BCFFF772FF26
:104BF0002046FFF770FF83E7FFF76CFF2046FFF7C3
:104C00006AFF92E7FFF766FF2046FFF764FFA0E721
:104C1000FFF760FF2046FFF75EFFAFE710BD000023
:104C2000304A0368904212D0B0F1804F0FD0A2F505
:104C30007C4290420BD002F58062904207D002F590
:104C40008062904203D002F57842904219D14A68BE
:104C500023F070031343234A904229D0B0F1804FD0
:104C600026D0A2F57C42904222D002F5806290428A
:104C70001ED002F5806290421AD002F5784290422E
:104C800016D0194A904213D002F5806290420FD09C
:104C900002F5806290420BD0A2F59832904207D084
:104CA00002F58062904203D002F58062904203D107
:104CB000CA6823F4407313434A6923F08003134303
:104CC00003608B68C3620B688362064B984203D013
:104CD00003F58063984201D10B69036301234361AB
:104CE000704700BF000001400040014010B504467D
:104CF00030B390F83D3003F0FF021BB980F83C2040
:104D0000FDF76CFE0223206884F83D30211DFFF77B
:104D100087FF012384F84630002084F83E3084F871
:104D20003F3084F8403084F8413084F8423084F8D1
:104D3000433084F8443084F8453084F83D3010BD69
:104D40000120FCE710B5044630B390F83D3003F085
:104D5000FF021BB980F83C20FDF77EFD022320688E
:104D600084F83D30211DFFF75BFF012384F84630B6
:104D7000002084F83E3084F83F3084F8403084F8D6
:104D8000413084F8423084F8433084F8443084F869
:104D9000453084F83D3010BD0120FCE710B50446D5
:104DA00030B390F83D3003F0FF021BB980F83C208F
:104DB000FDF7D8FD0223206884F83D30211DFFF760
:104DC0002FFF012384F84630002084F83E3084F819
:104DD0003F3084F8403084F8413084F8423084F821
:104DE000433084F8443084F8453084F83D3010BDB9
:104DF0000120FCE7F8B50D46044600284CD090F899
:104E00003D3003F0FF021BB980F83C20FDF73CFD6C
:104E10002146022384F83D3051F8040B836823F4C3
:104E2000804323F007038360FFF7FAFE81682A6856
:104E30008369AE69076A1143AA6823F4407323F0BB
:104E4000030342EA06221A432B69EE691B0143EA77
:104E50000623EE6833432E6A22F47C4222F0FC02E1
:104E600043EA063313436E696A68816027F0AA0734
:104E700042EA0612836117430123076284F8463031
:104E8000002084F83E3084F83F3084F8423084F8C3
:104E9000433084F83D30F8BD0120FCE7036A23F07D
:104EA00010030362036A70B5446882690D6822F4D6
:104EB000E64242EA05228D6823F0200343EA051307
:104EC000104DA84203D005F58065A84214D1CD68E5
:104ED00023F0800343EA05130A4DA84223F0400360
:104EE00003D005F58065A84206D1D1E9055624F422
:104EF0004064354344EA8504446082614A688263C1
:104F0000036270BD0000014070B590F83C30012B89
:104F1000054650D00123082A80F83C303BD007D802
:104F2000C2B1042A27D01846002385F83C3070BD52
:104F30000C2AF8D10068FFF737FDC3690A6943F40A
:104F40000063C361C36923F48063C361C36943EA37
:104F500002232EE00068FFF7BFFC83690A6943F073
:104F600008038361836923F0040383618369134326
:104F700083610020D8E70068FFF790FF83690A6922
:104F800043F400638361836923F4806383618369ED
:104F900043EA0223ECE70068FFF7D0FCC3690A6923
:104FA00043F00803C361C36923F00403C361C36909
:104FB0001343C361DDE70220B9E7000070B5046A5E
:104FC0001A4E24F001040462B0428469056A29D0B3
:104FD000B0F1804F26D0A6F57C46B04222D006F52F
:104FE0008066B0421ED006F58066B0421AD006F543
:104FF0007846B04216D006F57056B04212D0A6F5EB
:105000009436B0420ED044F001021B0122F0F002AF
:10501000DBB2134301F00A0125F00A021143836158
:10502000016270BD24F003042243EEE7000001405A
:10503000F8B590F83C30012B05460C4600F08B800B
:10504000012380F83C3092B90068CB68D1E90012A6
:10505000FFF7B4FF8369A26823F00C0383618369BF
:10506000134383610020002385F83C30F8BD042AF7
:1050700024D10368186A20F01000D1E90027C9681C
:10508000186298691E6A20F4407040EA07200903FC
:1050900020F4704089B21201014302F0A00226F010
:1050A000A000024399611A629A69A16822F44062E1
:1050B0009A619A6942EA01229A61D3E7082A22D1C9
:1050C00003681E6A26F48076D1E90020C9681E6252
:1050D000DF691E6A27F003073843090120F0F0005A
:1050E000C9B21202014302F4206226F42060024396
:1050F000D9611A62DA69A16822F00C02DA61DA6910
:105100000A43DA61AEE70C2A23D10368186A20F457
:105110008050D1E90027C9681862D8691E6A20F456
:10512000407040EA0720090320F4704089B212035E
:10513000014302F4204226F420400243D9611A625E
:10514000DA69A16822F44062DA61DA6942EA01228E
:10515000D7E7184687E7022088E710B5846811432F
:1051600024F47F4441EA03232343836010BD38B510
:1051700090F83C30012B04464FF0020300F08E8083
:10518000012280F83D3080F83C200068836823F4D9
:105190007F4323F0770383600B68602B4FD032D8B6
:1051A000402B64D016D8202B0DD00AD833F0100134
:1051B00009D0012384F83D30002384F83C301046A8
:1051C00038BD302BF5D1826822F07002134343F0D2
:1051D000070328E0502BECD14A68CD68016A036AC6
:1051E00023F001030362836921F00A0123F0F00335
:1051F00043EA05130A4383610262836823F0700364
:1052000043F057030FE0B3F5805F0DD0B3F5005FB7
:105210000CD0702BCDD1CB68D1E90121FFF79DFFD8
:10522000836843F0770383600022C2E7CB68D1E94B
:105230000121FFF792FF836843F48043F3E7036A99
:105240004D68C96823F0100303628269036A22F47F
:10525000704223F0A00343EA051342EA013282615F
:105260000362836823F0700343F06703DBE74A6857
:10527000CD68016A036A23F001030362836921F0A8
:105280000A0123F0F00343EA05130A438361026233
:10529000836823F0700343F04703C4E71A468EE7A0
:1052A000036A01F01F0110B501248C4023EA0403B6
:1052B0000362036A8A401A43026210BD08B529B925
:1052C00090F83E30012B18D001202CE004290DD19C
:1052D00090F83F30013B18BF0123002BF4D1042983
:1052E0004FF0020320D180F83F3009E008290CBFBD
:1052F00090F8403090F84130ECE7022380F83E30DF
:1053000000680122FFF7CCFF1C4A904213D01C4BCF
:10531000984210D0B0F1804F14D1836803F0070396
:10532000062B26D1002008BD08290CBF80F840308C
:1053300080F84130E4E7436C904243F40043436417
:10534000EBD0E7E70F4B9842E7D003F58063984234
:10535000E3D003F580639842DFD003F578439842A9
:10536000DBD003F570539842D7D0A3F5943398421D
:10537000D3D0036843F001030360D3E7000001408A
:105380000004014000040040FFF798BF08B5034641
:10539000002942D190F83E0093F84220C0B2012883
:1053A000D2B271D1012A70D1022200294BD11868E2
:1053B00083F83E2083F84220C26842F00202C260B5
:1053C00018680122FFF76CFF304B98421AD0B0F1F9
:1053D000804F17D0A3F57C43984213D003F5806328
:1053E00098420FD003F5806398420BD003F57843C1
:1053F000984207D003F57053984203D0A3F5943335
:10540000984204D1836803F00703062B03D0036896
:1054100043F001030360002037E0042905D190F830
:105420003F0093F84320C0B2B9E708290BBF90F8BA
:10543000400093F8410093F8442093F845200CBFB6
:10544000C0B2C0B2ABE7042908D1186883F83F2086
:1054500083F84320C26842F00402B0E7082908D16B
:10546000186883F8402083F84420C26842F008029C
:10547000A5E70C2983F8412083F8452005D1186859
:10548000C26842F010029AE7012008BD0000014006
:1054900030B590F83C30012B4FF0020332D080F849
:1054A0003D3003680D685C689A6824F070042C43F2
:1054B0005C60154CA3421AD0B3F1804F17D0A4F50D
:1054C0007C44A34213D004F58064A3420FD004F5BA
:1054D0008064A3420BD004F57844A34207D004F5BE
:1054E0007054A34203D0A4F59434A34204D1496874
:1054F00022F080020A439A60012380F83D300023A5
:1055000080F83C30184630BD0000014090F83C3037
:10551000012B1FD0CB688A6823F4407313434A6879
:1055200023F4806313430A6823F4006313430A6976
:1055300023F4805313434A6923F400531343CA6985
:1055400023F48043134302685364002380F83C3003
:10555000184670470220704770477047026802F192
:105560000C0353E8003F23F490730C3242E80031FF
:1055700002680029F2D102F1140353E8003F23F03E
:10558000010302F1140C4CE800310029F3D1036B44
:10559000012B0BD102F10C0353E8003F23F0100361
:1055A00002F10C0C4CE800310029F3D1202380F8E3
:1055B0003E300023036370470268C168136923F417
:1055C00040530B4370B51361054683680069D16889
:1055D000034368690343E86921F4164121F00C0193
:1055E00003430B43D3605369A96923F440730B430E
:1055F00053611F4B9A4203D003F580639A4223D133
:10560000FFF75AF9EB691921B3F5004FD5E90046C8
:10561000A0FB01011BD1B2194FF000035B41FBF766
:1056200033FB6422B0FBF2F102FB1103DB003233E7
:10563000B3FBF2F303F007025B0002EB011203F489
:10564000F8731344A36070BDFFF726F9DAE7B200E0
:10565000B30FFBF719FB6422B0FBF2F102FB11035D
:105660001B013233B3FBF2F303EB0113EAE700BF94
:1056700000100140F8B504460E4617461D46226844
:10568000136836EA030301D1002028E06B1CF7D031
:1056900025B1FDF755FBC01B8542F0D2226802F10F
:1056A0000C0353E8003F23F4D0730C3242E800307F
:1056B00021680028F2D101F1140353E8003F23F0E0
:1056C000010301F1140040E80032002AF3D1202345
:1056D00084F83D3084F83C2084F83E300320F8BD47
:1056E00010B5044640B390F83D3003F0FF021BB9FB
:1056F00080F83C20FDF7E4F92268242384F83D304B
:10570000D36823F40053D3602046FFF755FF236886
:105710001A6922F490421A615A6922F02A025A61E7
:10572000DA6842F40052DA6000202023206484F812
:105730003D3084F83E3010BD0120FCE7F7B5174638
:1057400090F83D200093202A04460E4649D10029B6
:1057500045D0002F43D090F83C20012A41D00122AF
:1057600080F83C2000252122056480F83D20FDF7CB
:10577000E7FAA168009BA784B1F5805F0246E78441
:1057800003D1216909B935460E46002184F83C1041
:10579000E18C89B241B940212046FFF76BFF60B927
:1057A000202384F83D3009E080212046CDE9002304
:1057B000FFF760FFDDE9002310B1032003B0F0BD67
:1057C00020684EB935F8021BC1F308014160E18C35
:1057D000013989B2E184DBE716F8011BF6E7012005
:1057E000ECE70220EAE77047704708B5806B0023BA
:1057F000C385C384FFF7F8FF08BD704790F83E30BB
:10580000222B07B541D18168836A0268B1F5805FB8
:105810003ED1016900293ED15268C2F3080223F843
:10582000022B8362C38D013B9BB2C385002B2CD11D
:105830000268D16821F02001D160D16821F4807123
:10584000D160516921F001015161202280F83E2090
:10585000026B012A026828D1036302F10C0353E8AA
:10586000003F23F0100302F10C0C4CE8003100293A
:10587000F3D11368DB0605D50191136801935368D2
:105880000193019B818DFFF7B8FF03B05DF804FB26
:1058900039B9016929B95268D2B21A70836A0133E1
:1058A000BFE7526802F07F02F7E7FCF777F8ECE712
:1058B00003681A6873B51607D9685D69044608D18C
:1058C000960668D58D0666D502B0BDE87040FFF734
:1058D00095BF05F0010001F4907505435BD0D60734
:1058E00005D5CD0542BF236C43F001032364530764
:1058F00004D518B1236C43F002032364960704D542
:1059000018B1236C43F004032364150707D501F095
:10591000200303431EBF236C43F008032364236C5E
:10592000002B32D0920604D58B0602D52046FFF715
:1059300065FF26687369226C03F0400302F00802D9
:1059400053EA0205204622D0FFF708FE73695E067F
:1059500018D5226802F1140353E8003F23F04003F6
:10596000143242E800310029F3D1A06B50B1724BE0
:105970000365FDF79EFD40B1A06B036D02B0BDE86D
:10598000704018472046FFF72FFF02B070BDFFF7A9
:105990002BFF2564F9E7206B012840F09180D506A4
:1059A00040F18E80C80640F18B80002201921A6877
:1059B00001925A680192019A5A6952064CD5A16B1C
:1059C0000A68526892B2002ADFD0A08D9042DCD9DA
:1059D000E285CA69B2F5807F36D003F10C0252E845
:1059E000002F22F4807203F10C0040E8002100290E
:1059F000F3D103F1140252E8002F22F0010203F167
:105A0000140040E800210029F3D103F1140252E808
:105A1000002F22F0400203F1140040E80021002989
:105A2000F3D1202284F83E20216303F10C0252E8D6
:105A3000002F22F0100203F10C0040E800210029A1
:105A4000F3D1A06BFDF7F6FCE38DA18DC91A89B2E5
:105A50002046FFF7D2FE98E7E28DE08DA18D80B25F
:105A600092B2002891D0891A89B200298DD003F111
:105A70000C0252E8002F22F4907203F10C0545E865
:105A800000200028F3D103F1140252E8002F22F085
:105A9000010203F1140545E800200028F3D120227B
:105AA00084F83E20206303F10C0252E8002F22F01C
:105AB000100203F10C0545E800200028F3D1C7E7E8
:105AC000160628D50D0626D594F83D20212A7FF408
:105AD0005CAFA168226AB1F5805F17D12169A9B9CD
