:020000040800F2
:1000000000000220AD2A0008912900089329000869
:100010009529000897290008992900080000000088
:10002000000000000000000000000000616C0008FB
:100030009B29000800000000F16C00089D290008C1
:10004000FD2A0008FD2A0008FD2A0008FD2A0008F4
:10005000FD2A0008B5290008FD2A0008FD2A00082D
:10006000FD2A0008FD2A0008FD2A0008B929000819
:10007000FD2A0008FD2A0008FD2A0008FD2A0008C4
:10008000FD2A0008FD2A0008FD2A0008FD2A0008B4
:10009000FD2A0008FD2A0008FD2A0008FD2A0008A4
:1000A000FD2A0008FD2A0008FD2A0008FD2A000894
:1000B000FD2A0008FD2A0008C5290008FD2A0008BD
:1000C000FD2A0008FD2A0008FD2A0008FD2A000874
:1000D000FD2A0008FD2A0008FD2A0008D129000891
:1000E000FD2A0008FD2A0008FD2A0008FD2A000854
:1000F000FD2A0008FD2A0008FD2A0008FD2A000844
:10010000FD2A0008FD2A0008FD2A0008FD2A000833
:10011000FD2A0008FD2A0008FD2A0008FD2A000823
:10012000DD290008FD2A0008FD2A0008FD2A000834
:10013000FD2A0008FD2A0008FD2A0008FD2A000803
:10014000FD2A0008FD2A0008FD2A0008FD2A0008F3
:10015000FD2A0008FD2A0008FD2A0008FD2A0008E3
:10016000FD2A0008FD2A0008FD2A0008FD2A0008D3
:10017000FD2A0008FD2A0008FD2A000800000000F2
:08018000FD2A0008FD2A000819
:1001900010B5054C237833B9044B13B10448AFF3C1
:1001A00000800123237010BDDC010020000000004E
:1001B0007C9A000808B5034B1BB103490348AFF311
:1001C000008008BD00000000E00100207C9A0008CB
:1001D00001F0FF01102A2BDB10F0070F08D010F8F8
:1001E000013B013A8B422DD010F0070F42B3F6D1FC
:1001F000F0B441EA012141EA014122F007047FF015
:1002000000070023F0E80256083C85EA010586EA6B
:10021000010685FA47F5A3FA87F586FA47F6A5FAA7
:1002200087F68EB9EED1F0BC01F0FF0102F00702B3
:1002300032B110F8013B013A83EA010313B1F8D15E
:100240000020704701387047002D06BF354603383F
:10025000073815F0010F07D1013015F4807F02BF78
:10026000013015F4C03F0130F0BC0138704700BFC9
:10027000034613F8012B002AFBD1181A01387047E6
:1002800081F0004102E000BF83F0004330B54FEA47
:1002900041044FEA430594EA050F08BF90EA020FB4
:1002A0001FBF54EA000C55EA020C7FEA645C7FEA47
:1002B000655C00F0E2804FEA5454D4EB5555B8BF6A
:1002C0006D420CDD2C4480EA020281EA030382EADB
:1002D000000083EA010180EA020281EA0303362D6D
:1002E00088BF30BD11F0004F4FEA01314FF4801C40
:1002F0004CEA113102D0404261EB410113F0004F52
:100300004FEA03334CEA133302D0524263EB430308
:1003100094EA050F00F0A780A4F10104D5F1200EA6
:100320000DDB02FA0EFC22FA05F2801841F1000101
:1003300003FA0EF2801843FA05F359410EE0A5F1D5
:1003400020050EF1200E012A03FA0EFC28BF4CF006
:10035000020C43FA05F3C01851EBE37101F00045BC
:1003600007D54FF0000EDCF1000C7EEB00006EEBC9
:100370000101B1F5801F1BD3B1F5001F0CD3490853
:100380005FEA30004FEA3C0C04F101044FEA4452AA
:1003900012F5800F80F09A80BCF1004F08BF5FEA31
:1003A000500C50F1000041EB045141EA050130BD11
:1003B0005FEA4C0C404141EB0101013C28BFB1F523
:1003C000801FE9D291F0000F04BF01460020B1FA6E
:1003D00081F308BF2033A3F10B03B3F120020CDA41
:1003E0000C3208DD02F1140CC2F10C0201FA0CF01F
:1003F00021FA02F10CE002F11402D8BFC2F1200C84
:1004000001FA02F120FA0CFCDCBF41EA0C01904039
:10041000E41AA2BF01EB0451294330BD6FEA040482
:100420001F3C1CDA0C340EDC04F11404C4F120026D
:1004300020FA04F001FA02F340EA030021FA04F37F
:1004400045EA030130BDC4F10C04C4F1200220FAD6
:1004500002F001FA04F340EA0300294630BD21FA14
:1004600004F0294630BD94F0000F83F4801306BFDA
:1004700081F480110134013D4EE77FEA645C18BFCE
:100480007FEA655C29D094EA050F08BF90EA020F65
:1004900005D054EA000C04BF1946104630BD91EA5D
:1004A000030F1EBF0021002030BD5FEA545C05D160
:1004B0004000494128BF41F0004130BD14F580049F
:1004C0003CBF01F5801130BD01F0004545F0FE4113
:1004D00041F470014FF0000030BD7FEA645C1ABF48
:1004E000194610467FEA655C1CBF0B46024650EA7F
:1004F000013406BF52EA033591EA030F41F40021AB
:1005000030BD00BF90F0000F04BF0021704730B530
:100510004FF4806404F132044FF000054FF0000105
:1005200050E700BF90F0000F04BF0021704730B5C6
:100530004FF4806404F1320410F0004548BF40429B
:100540004FF000013EE700BF42004FEAE2014FEAF0
:1005500031014FEA02701FBF12F07F4393F07F4FCB
:1005600081F06051704732F07F4208BF704793F0CE
:100570007F4F04BF41F40021704730B54FF46074E1
:1005800001F0004521F000411CE700BF50EA0102E4
:1005900008BF704730B54FF000050AE050EA01028D
:1005A00008BF704730B511F0004502D5404261EBFD
:1005B00041014FF4806404F132045FEA915C3FF43E
:1005C000D8AE4FF003025FEADC0C18BF03325FEADB
:1005D000DC0C18BF033202EBDC02C2F1200300FA8C
:1005E00003FC20FA02F001FA03FE40EA0E0021FAB1
:1005F00002F11444BDE600BF70B54FF0FF0C4CF49F
:10060000E06C1CEA11541DBF1CEA135594EA0C0F50
:1006100095EA0C0F00F0DEF82C4481EA030621EA8B
:100620004C5123EA4C5350EA013518BF52EA0335C6
:1006300041F4801143F4801338D0A0FB02CE4FF078
:100640000005E1FB02E506F00042E0FB03E54FF0A8
:100650000006E1FB03569CF0000F18BF4EF0010EA0
:10066000A4F1FF04B6F5007F64F5407404D25FEA9C
:100670004E0E6D4146EB060642EAC62141EA55514F
:100680004FEAC52040EA5E504FEACE2EB4F1FD0C91
:1006900088BFBCF5E06F1ED8BEF1004F08BF5FEA0F
:1006A000500E50F1000041EB045170BD06F00046C1
:1006B00046EA010140EA020081EA0301B4EB5C046E
:1006C000C2BFD4EB0C0541EA045170BD41F4801166
:1006D0004FF0000E013C00F3AB8014F1360FDEBF8B
:1006E000002001F0004170BDC4F10004203C35DA67
:1006F0000C341BDC04F11404C4F1200500FA05F3EA
:1007000020FA04F001FA05F240EA020001F000428A
:1007100021F0004110EBD37021FA04F642EB060100
:100720005EEA430E08BF20EAD37070BDC4F10C042A
:10073000C4F1200500FA04F320FA05F001FA04F2EE
:1007400040EA020001F0004110EBD37041F10001DA
:100750005EEA430E08BF20EAD37070BDC4F12005E5
:1007600000FA05F24EEA020E20FA04F301FA05F24D
:1007700043EA020321FA04F001F0004121FA04F2F5
:1007800020EA020000EBD3705EEA430E08BF20EAC5
:10079000D37070BD94F0000F0FD101F000464000FF
:1007A00041EB010111F4801F08BF013CF7D041EA81
:1007B000060195F0000F18BF704703F00046520085
:1007C00043EB030313F4801F08BF013DF7D043EA56
:1007D0000603704794EA0C0F0CEA135518BF95EA0C
:1007E0000C0F0CD050EA410618BF52EA4306D1D193
:1007F00081EA030101F000414FF0000070BD50EAB2
:10080000410606BF1046194652EA430619D094EA3B
:100810000C0F02D150EA013613D195EA0C0F05D125
:1008200052EA03361CBF104619460AD181EA030179
:1008300001F0004141F0FE4141F470014FF0000031
:1008400070BD41F0FE4141F4780170BD70B54FF0CC
:10085000FF0C4CF4E06C1CEA11541DBF1CEA13554C
:1008600094EA0C0F95EA0C0F00F0A7F8A4EB05042E
:1008700081EA030E52EA03354FEA013100F0888025
:100880004FEA03334FF0805545EA131343EA1263EE
:100890004FEA022245EA111545EA10654FEA0026A3
:1008A0000EF000419D4208BF964244F1FD0404F55C
:1008B000407402D25B084FEA3202B61A65EB0305B8
:1008C0005B084FEA32024FF480104FF4002CB6EB75
:1008D000020E75EB030E22BFB61A754640EA0C00F5
:1008E0005B084FEA3202B6EB020E75EB030E22BF35
:1008F000B61A754640EA5C005B084FEA3202B6EB76
:10090000020E75EB030E22BFB61A754640EA9C0034
:100910005B084FEA3202B6EB020E75EB030E22BF04
:10092000B61A754640EADC0055EA060E18D04FEAC2
:10093000051545EA16754FEA06164FEAC30343EA62
:1009400052734FEAC2025FEA1C1CC0D111F4801F2F
:100950000BD141EA00014FF000004FF0004CB6E728
:1009600011F4801F04BF01430020B4F1FD0C88BFC7
:10097000BCF5E06F3FF6AFAEB5EB030C04BFB6EBD2
:10098000020C5FEA500C50F1000041EB045170BDC5
:100990000EF0004E4EEA113114EB5C04C2BFD4EBF2
:1009A0000C0541EA045170BD41F480114FF0000E76
:1009B000013C90E645EA060E8DE60CEA135594EAF2
:1009C0000C0F08BF95EA0C0F3FF43BAF94EA0C0FF5
:1009D0000AD150EA01347FF434AF95EA0C0F7FF46A
:1009E00025AF104619462CE795EA0C0F06D152EABE
:1009F00003353FF4FDAE1046194622E750EA4106A2
:100A000018BF52EA43067FF4C5AE50EA41047FF4B2
:100A10000DAF52EA43057FF4EBAE12E74FF0FF3C17
:100A200006E000BF4FF0010C02E000BF4FF0010CE8
:100A30004DF804CD4FEA410C7FEA6C5C4FEA430C61
:100A400018BF7FEA6C5C1BD001B050EA410C0CBFB0
:100A500052EA430C91EA030F02BF90EA020F002012
:100A6000704710F1000F91EA030F58BF994208BF79
:100A700090422CBFD8176FEAE37040F00100704736
:100A80004FEA410C7FEA6C5C02D150EA013C07D18D
:100A90004FEA430C7FEA6C5CD6D152EA033CD3D0D8
:100AA0005DF8040B704700BF8446104662468C46D2
:100AB0001946634600E000BF01B5FFF7B7FF002805
:100AC00048BF10F1000F01BD4DF808EDFFF7F4FF2E
:100AD0000CBF012000205DF808FB00BF4DF808EDB9
:100AE000FFF7EAFF34BF012000205DF808FB00BFDC
:100AF0004DF808EDFFF7E0FF94BF012000205DF8FE
:100B000008FB00BF4DF808EDFFF7CEFF94BF0120B2
:100B100000205DF808FB00BF4DF808EDFFF7C4FFAB
:100B200034BF012000205DF808FB00BF4FEA410CF4
:100B30007FEA6C5C02D150EA013C0AD14FEA430CD7
:100B40007FEA6C5C02D152EA033C02D14FF0000014
:100B500070474FF0010070474FEA410212F5001252
:100B600015D211D56FF47873B3EB625212D94FEAF4
:100B7000C12343F0004343EA505311F0004F23FADE
:100B800002F018BF404270474FF00000704750EA33
:100B9000013005D111F0004008BF6FF000407047F0
:100BA0004FF00000704700BF4A0011D212F500124A
:100BB00011D20DD56FF47873B3EB62520ED44FEAB5
:100BC000C12343F0004343EA505323FA02F0704735
:100BD0004FF00000704750EA013002D14FF0FF3073
:100BE00070474FF0000070474FEA4102B2F1E04316
:100BF00024BFB3F5001CDCF1FE5C0DD901F0004C04
:100C00004FEAC0024CEA5070B2F1004F40EB830053
:100C100008BF20F00100704711F0804F21D113F17F
:100C20003872BCBF01F00040704741F480114FEAB8
:100C30005252C2F11802C2F1200C10FA0CF320FA41
:100C400002F018BF40F001004FEAC1234FEAD3235E
:100C500003FA0CFC40EA0C0023FA02F34FEA4303C8
:100C6000CCE77FEA625307D150EA01331EBF4FF051
:100C7000FE4040F44000704701F0004040F0FE406C
:100C800040F40000704700BF53B94AB9002908BFBB
:100C900000281CBF4FF0FF314FF0FF3000F070B95B
:100CA000ADF1080C6DE904CE00F006F8DDF804E0C3
:100CB000DDE9022304B070472DE9F047089E0D4698
:100CC00004460F46002B4AD18A42944665D9B2FAAF
:100CD00082F343B102FA03FCC3F120029F4020FAE1
:100CE00002F217439C404FEA1C4E1FFA8CF5B7FBEB
:100CF000FEF1220C0EFB117742EA074201FB05F0E0
:100D000090420AD91CEB020201F1FF3780F01C81EE
:100D1000904240F2198102396244121AA4B2B2FB25
:100D2000FEF00EFB102244EA024400FB05F5A5424A
:100D30000AD91CEB040400F1FF3280F00781A542C0
:100D400040F204816444023840EA0140641B0021FF
:100D50001EB1DC400023C6E90043BDE8F0878B42AA
:100D600008D9002E00F0ED800021C6E900050846F4
:100D7000BDE8F087B3FA83F1002949D1AB4202D331
:100D8000824200F2F880841A65EB030201201746C4
:100D9000002EE2D0C6E90047DFE702B9FFDEB2FA73
:100DA00082F3002B40F090808A1A4FEA1C471FFA0A
:100DB0008CFE0121B2FBF7F507FB1520220C42EA5D
:100DC00000420EFB05F0904208D91CEB020205F12F
:100DD000FF3802D2904200F2CB804546121AA4B2EC
:100DE000B2FBF7F007FB102244EA02440EFB00FEC0
:100DF000A64508D91CEB040400F1FF3202D2A64537
:100E000000F2BB801046A4EB0E0440EA05409FE7C9
:100E1000C1F120078B4022FA07FC4CEA030C05FACB
:100E200001F420FA07F3FD404FEA1C492343B5FBC8
:100E3000F9F81FFA8CFE09FB18551C0C44EA05440E
:100E400008FB0EF5A54202FA01F200FA01F00BD9F7
:100E50001CEB040408F1FF3A80F08880A54240F2C0
:100E60008580A8F102086444641B9DB2B4FBF9F3C9
:100E700009FB134445EA044403FB0EFEA64508D9CA
:100E80001CEB040403F1FF356CD2A6456AD9023B82
:100E9000644443EA0843A3FB0295A4EB0E04AC426E
:100EA000C846AE4656D353D056B1B0EB080264EBF9
:100EB0000E0404FA07F7CA40CC401743C6E9007491
:100EC00018460021BDE8F087C3F1200102FA03FCB7
:100ED00020FA01F225FA01F19D402A434FEA1C470E
:100EE0001FFA8CFEB1FBF7F007FB1015110C41EA5D
:100EF000054100FB0EF58D4204FA03F408D91CEB02
:100F0000010100F1FF382FD28D422DD90238614402
:100F1000491B92B2B1FBF7F507FB151142EA0142FA
:100F200005FB0EF1914208D91CEB020205F1FF38D6
:100F300016D2914214D9023D6244521A45EA004148
:100F400038E73146304608E73946E6E61046FBE624
:100F50004845A9D2B9EB020865EB0C0E013BA3E7AB
:100F60004546EAE72B4694E74046D1E7D0467BE783
:100F7000023D624432E708460AE76444023842E729
:100F8000704700BF08B5012004F01BFCFBE7000020
:100F90002DE9F84FDFF8A880DFF8A890DFF8A8A0C7
:100FA000254F3C21404603F059FB3C21484603F0C5
:100FB00055FBD8F8002000235362D9F80020536273
:100FC00001F0E8FD0026044601F0E4FD001B0528C1
:100FD000FAD9D8F80030DAF80000D3F824B00022AB
:100FE0005A62FFF79FFABBF5FA4F0446CCBFCBF528
:100FF000803058460D46FFF795FA32463B46FFF7DC
:10100000FBFA22462B46FFF741F9FFF7A5FDD9F879
:101010000030CAF8000000215A6A59620749B2F547
:10102000FA4F0B68C8BFC2F5803213440B6001F061
:10103000B1FD0446C8E700BF0000E03F14020020F5
:10104000140400205C0400201802002000000000AE
:101050002DE9874801F09EFDDFF8FCB00446364ECE
:10106000364D374F34602B7863B90224CDE900B494
:10107000012338683722D02102F01EFE314B187050
:1010800000B92C702B78022BEDD101F083FDBBF859
:1010900000302D4ADFF8C4A0044630685BBA1380E4
:1010A000201A0FFA83F8FFF72DFA064640460F463E
:1010B000FFF738FA254B0022FFF7E6F832463B46A9
:1010C000FFF79AFA1AA3D3E90023FFF7BFFBFFF754
:1010D0008BFDFFF739FA1E4B0022FFF7B7FB804666
:1010E000DAF800008946FFF72FFA02460B46404621
:1010F0004946FFF7CBF8FFF777FD164B08EE100ACD
:101100004FF0333230463946FFF776FA104B002263
:10111000FFF79CFBFFF768FD07EE900A38EE678A41
:1011200000238AED008A2B7099E700BFAFF300809F
:101130000000000000606040D40500201202002082
:10114000C0050020E2050020F801002000006E40EC
:1011500000408F403333B33FE0050020E805002016
:1011600000B595B02C22002109A806F036FD142206
:10117000002103A806F031FD0023194A0193116CE8
:1011800041F080511164126C02F080520192019A78
:10119000144A0293116841F48041116012680E9361
:1011A00002F480420292029A022208920120102246
:1011B000CDE90B0208A802F02FFF014608B172B674
:1011C000FEE70F23CDE90330CDE90500079003A822
:1011D00003F0FCF808B172B6FEE715B05DF804FB49
:1011E000003802400070004080B59EB00024AE4D33
:1011F00001F0AAFCFFF7B4FF1422002115A806F0A5
:10120000ECFC02942B6BA94843F010032B632B6B6F
:1012100003F010030293029B03942B6B43F08003B3
:101220002B632B6B03F080030393039B04942B6BC2
:1012300043F004032B632B6B03F004030493049B20
:1012400005942B6B43F001032B632B6B03F001031D
:101250000593059B06942B6B43F002032B632B6BCA
:1012600003F002030693069B07942B6B43F00803DD
:101270002B632B6B03F00803079322464FF4BC61EA
:10128000079B02F0F7F88A4822463C2102F0F2F868
:10129000884822464FF4005102F0ECF82246864876
:1012A000102102F0E7F801264FF4BC637F4815A92E
:1012B000CDE91536CDE9174402F002F83C23CDE91B
:1012C00015367B481794022315A918934FF400771D
:1012D00001F0F6FF4FF488137448179415A9CDE96F
:1012E000157301F0EDFF4FF40057724815A94FF048
:1012F0001008CDE91576CDE9174401F0E1FF6E48FD
:1013000015A9CDE91586CDE9174401F0D9FF009460
:101310002B6B43F400132B632B6B03F4001300932C
:10132000009B01942B6B43F480032B632B6B634D69
:1013300003F480032246052101930B20019B01F059
:101340008BFD0B2001F0BAFD22460521382001F06B
:1013500083FD382001F0B2FD424621460AA806F07E
:101360003CFC1C2221460EA8CDE9084406F035FCC1
:101370002022214615A806F030FC514BAC60C5E98F
:101380000034284641F61F43C5E90334C5E9054446
:1013900003F0CAFA08B172B6FEE74FF480530AA907
:1013A00028460A9303F001FD08B172B6FEE728460D
:1013B00003F0E6FA08B172B6FEE7CDE9080008A925
:1013C000284603F001FE024608B172B6FEE760232C
:1013D000CDE90E30CDE91000CDE9120014900EA930
:1013E000284603F0AFFB08B172B6FEE704220EA94F
:1013F000284603F0A7FB08B172B6FEE7CDE9150059
:10140000CDE91700CDE919071C9015A9284603F06E
:1014100019FE044608B172B6FEE72A4D01461C22A9
:1014200016A806F0DAFB0A274FF080434FF6FF7844
:101430004FF0030915A92846CDE90E44C5E900344B
:10144000C5E90384AC60AC61CDF854901796199748
:101450001B961D9703F0ECFA08B172B6FEE7CDE9D2
:101460000E000EA9284603F0AFFD044608B172B67F
:10147000FEE701461C2216A806F0AFFB1248134BEC
:10148000046115A9CDE90E44C0E90034C0E9024861
:101490008461CDF85490179619971B961D9703F009
:1014A000C7FAA8B172B6FEE7003802400010024049
:1014B00000000240000C02400004024034050020FD
:1014C00000040140140400205C04002000040040DB
:1014D000002395480EA9CDE90E3303F075FD0546AE
:1014E00008B172B6FEE70146CDE90A001C220EA83B
:1014F00006F073FB8D4C8E4E2022294615A806F06F
:101500006CFBA023C4E9006320464FF6FF76C4E9D4
:101510000365C4E90555A56003F032FA08B172B657
:10152000FEE7CDE90A000AA9204603F04DFD08B107
:1015300072B6FEE76023CDE90E30CDE912001090BF
:1015400014900C220EA9204603F0FCFA08B172B6E2
:10155000FEE7CDE91500CDE9170019904FF40053CF
:101560001C9015A920461A9303F06CFD054608B19E
:1015700072B6FEE720466F4C01F0A0F96E4BA561F4
:101580002046CDE91555C4E90035C4E9025603F0FB
:10159000CBF908B172B6FEE7CDE9150015A92046D2
:1015A00003F012FD08B172B6FEE7644B644D18619A
:1015B0004FF4E132C3E900520C22C3E90200C3E94F
:1015C0000520D861184603F027FE08B172B6FEE781
:1015D0005C4B5D4C5D4A1862C3E900424FF48044A5
:1015E000C3E90200C3E90440C3E90600184602F05B
:1015F00023F908B172B6FEE7554B5649564A1862B0
:10160000C3E90200C3E90440C3E906001846C3E980
:10161000001202F011F908B172B6FEE7002510229F
:10162000294615A84D4CCDE90E5506F0D6FA4C4A80
:10163000A5604723C4E9002320464FF6FF73C4E9A1
:101640000335A56103F0C8F908B172B6FEE7CDE92C
:101650000E000EA9204603F0B7FC024608B172B690
:10166000FEE70126CDE916601590189015A92046D1
:1016700003F0FCFA054608B172B6FEE701461022F7
:1016800015A806F0AAFA374C374BA560C4E9003517
:101690000227364B26612046267684F82050E562E4
:1016A000A362E560E76184F83050666101F08CFA6E
:1016B00008B172B6FEE70B23179015A92046CDE9B5
:1016C000153601F027FB08B172B6FEE70C23204661
:1016D00015A9CDE9153701F01DFB044608B172B616
:1016E000FEE700F05FFE03F0F9FF214A21482146A2
:1016F00004F020F8204B214A18602146204804F0CD
:1017000019F8204B204A18602146204804F012F8AE
:101710001F4B204A186021461F4804F00BF81F4B4E
:10172000186003F0EDFFFEE75C040020CC0300200E
:1017300000000140EC040020001000407C05002067
:10174000004800402403002000540040801A060096
:101750007803002000580040A0860100A404002067
:10176000000800401C020020002001400100000F82
:10177000489B0008850F00080C020020249B0008ED
:10178000A120000804020020DC9A0008910F000844
:10179000FC010020009B00085110000800020020FE
:1017A0000268114B9A421ED11049114B0A781A70E7
:1017B000104B4A781A708B780F4803EB830303EBC6
:1017C00083020B79303303EB8203CA7802EB820287
:1017D00003EB4203094ADBB21370094B01221A7072
:1017E000052203F062BF704700480040E305002077
:1017F000D0050020100200207C05002011020020EE
:10180000080200201FB54FF0FF3C0123CDE9013C49
:10181000009200680A46D02102F046F9024B187087
:1018200005B05DF804FB00BFE20500207FB5012391
:101830008DF817204FF0FF32CDE901320DF117027C
:10184000009200680A46D02102F09EF807B05DF8C9
:1018500004FB000037B5C0E900120DF107020021BA
:101860000446FFF7CFFF2B4D002228707F21204632
:10187000FFF7DCFF2022287003212046FFF7D6FF68
:101880000922287006212046FFF7D0FF3E2228704B
:1018900007212046FFF7CAFF402228700521204675
:1018A000FFF7C4FF0022287003212046FFF7BEFF88
:1018B000202228707F212046FFF7B8FF39222870A8
:1018C00001212046FFF7B2FF0022287002212046A6
:1018D000FFF7ACFF3922287014212046FFF7A6FF3E
:1018E0000022287015212046FFF7A0FF082228704B
:1018F00000212046FFF79AFF002228707F21204612
:10190000FFF794FF28700A2001F04AF9002003B085
:1019100030BD00BFE20500200268034B9A4202BFBF
:10192000024B02221A70704700540040120200203D
:101930002DE9F047DFF880915B4ED9F800305B4D20
:101940005A222DED028B1A64594B4FF000080746BE
:101950004FF4487010EE104AC3F80080C6F80080BB
:1019600001F01EF94FF4487003F02BFF002F4BD10C
:101970003A465048082101F07DFD4E4801220421DD
:1019800001F078FD3A464B48102101F073FD4948BB
:101990000122202101F06EFD4FF42F674FF496785D
:1019A0002B680A205F63C3F8388003F00AFF2046E3
:1019B000FEF7CAFD36A3D3E90023FEF71DFE02465B
:1019C0000B4643EC182B34A3D3E90023FEF714FE97
:1019D000FFF7C2F8D6F800A0504551EC180BDCBF59
:1019E0004FF000084FF47A77FFF7B6F88245D7DB5F
:1019F000BDEC028BD9F800308F221A642B680022CC
:101A00005A639A63BDE8F087012FF1D13A4629481D
:101A1000082101F02FFD42462648042101F02AFD4D
:101A20003A462448102101F025FD42462148202154
:101A300001F020FD40F628284FF496772B680A2005
:101A4000C3F834809F6303F0BCFE2046FEF77CFDA4
:101A500013A3D3E90023FEF7CFFD02460B4643EC68
:101A6000182B0DA3D3E90023FEF7C6FDFFF774F88A
:101A7000D6F800A0504551EC180BDCBF4FF47A7833
:101A80000027FFF769F88245D8DBB1E7AFF30080A4
:101A9000B81E85EB51383740CDCCCCCCCCCCEC3F0C
:101AA00052B81E85EB913440180200203405002006
:101AB0001402002000000240CC03002000000000BF
:101AC0002DE9F0475A4BDFF87C915A4E5A4D4FF0B2
:101AD00000082DED028BC3F80080D9F80030C6F85D
:101AE0000080D2221A6407464FF4487010EE104A64
:101AF00001F056F84FF4487003F063FE002F4AD10E
:101B00003A464E48082101F0B5FC4C480122042118
:101B100001F0B0FC3A464948102101F0ABFC4748BF
:101B20000122202101F0A6FC4FF496784FF42F6794
:101B30002B680A20C3F834809F6303F042FE2046DE
:101B4000FEF702FD3E4B0022FEF756FD02460B4615
:101B500043EC182B32A3D3E90023FEF74DFDFEF72B
:101B6000FBFFD6F800A0504551EC180BDCBF4FF03E
:101B700000084FF46177FEF7EFFF8245D8DBBDEC3C
:101B8000028BD9F8003082221A642B6800225A6333
:101B90009A63BDE8F087012FF1D13A462748082122
:101BA00001F068FC42462548042101F063FC3A46F6
:101BB0002248102101F05EFC42462048202101F01D
:101BC00059FC4FF4967840F628272B680A20C3F872
:101BD00034809F6303F0F5FD2046FEF7B5FC12A3A9
:101BE000D3E90023FEF708FD02460B4643EC182B11
:101BF0000BA3D3E90023FEF7FFFCFEF7ADFFD6F8F9
:101C000000A0504551EC180BDCBF4FF000084FF41A
:101C10006177FEF7A1FF8245D7DBB0E7AFF3008025
:101C2000CDCCCCCCCCCCEC3FE17A14AE47E1354006
:101C30001802002014020020340500200000024099
:101C400000403640CC0300202DE9F84FC84BC94A6C
:101C5000D3F80080DFF854B38B232DED068BC8F842
:101C6000403000231360C44A1360C44B054693ED13
:101C7000008AFEF757FCC24B0022FEF7E7FDACA33B
:101C8000D3E90023FEF7B8FCFEF766FF0A2DFDEE50
:101C9000C88ADBF80040824629DCBA4B1A78732ADE
:101CA00015D140F2FB4240F23253BAF1000F6263A9
:101CB000A363FADAB44962630B60B4490A60A363B0
:101CC000BDEC068BB24B8B221A80BDE8F88F1B78D7
:101CD000772B0CD140F2EC43BAF1000F6363A3639E
:101CE000FADAA94A63631360A84A1360E7E7F8EEDB
:101CF000E87AA44DDFEDA78A9FEDA79ADFEDA79ABA
:101D000038EE678A0026F0EEC87A17EE900AFEF7E2
:101D10001BFC89A3D3E90023FEF7E0FEDFEDA07AE8
:101D2000002814BF17EE900A18EE100AFEF70CFCFC
:101D300083A3D3E90023FEF75FFC9FED9A8A41EC71
:101D40001A0B2B78772B40F084807FA3D3E90023F4
:101D500051EC1A0BFEF79AFAFEF726FFC8F840007E
:101D60002B78772B7DD107EE90AAF8EEE77A17EE65
:101D7000900AFEF7E9FB76A3D3E90023FEF73CFCCB
:101D8000FEF7EAFE50456CDA18EE100AFEF7DCFBAF
:101D900071A3D3E9002306460F46FEF79FFE50B11C
:101DA0006FA3D3E9002330463946FEF76FFAFEF7FA
:101DB0001BFF08EE100A68EE287A0126FDEEE77A8E
:101DC00017EE907A68EE097AFDEEE77A17EE909AB0
:101DD000C4ED0D7AA7632B78732B40F0E98007EEF2
:101DE00090AAF8EEE77A17EE900AFEF7ADFB58A33B
:101DF000D3E90023FEF700FCFEF7AEFE504580F26B
:101E0000D78018EE100AFEF79FFB53A3D3E90023F7
:101E100006460F46FEF762FE50B151A3D3E90023F8
:101E200030463946FEF732FAFEF7DEFE08EE100ABB
:101E300068EE287A0126FDEEE77A17EE907A68EED2
:101E4000297AFDEEE77AC4ED0D7A17EE909AA76332
:101E500077E753EC1A2B3CA1D1E90001FEF714FA05
:101E60007AE72B78772BB6D126B1484BC3F8009090
:101E7000454B1F600FF2F009D9E90089DFED458A73
:101E8000494F00263C4B1B68AAF1DE02B2EB430F20
:101E90004FEA43007FF714AFAAEB000007EE900A69
:101EA000F8EEE77A17EE900AFEF74EFB42464B46F5
:101EB000FEF7A2FB07EE90AAF8EEE77A044617EECB
:101EC000900A0D46FEF740FB02460B462046294687
:101ED000FEF7BCFCFEF788FE08EE100A68EE287AD2
:101EE00017EE900AFEF730FB32463B46FEF7CEF97E
:101EF000FEF732FEDFED287A234B68EE277A0446A0
:101F0000186017EE900AFEF71FFB3B463246FEF7BD
:101F1000BDF9FEF721FE1D4B1860DBF80030586359
:101F20009C63322003F04DFCACE700BFAFF30080B0
:101F300000000000003898409A9999999999A93F12
:101F400014AE47E17A14F03F0000000000606140E9
:101F5000333333333333D33FCDCCCCCCCCCCF83F3D
:101F6000613255302AA9333F9A9999999999E93F55
:101F7000CC0300201402002018020020E8050020F5
:101F800000003540D0050020D8050020DC050020E9
:101F90000000002000005C4500305E4500E05D452B
:101FA00000000000CDCCCC3D00208C40340500204A
:101FB0002B78732B7FF4C5AE26B1334BC3F800905A
:101FC000324B1F600FF2B809D9E90089DFED308A82
:101FD000304F0026304B1B68AAF1DE02B2EB430FF4
:101FE0004FEA43007FF76CAEAAEB000007EE900AC1
:101FF000F8EEE77A17EE900AFEF7A6FA42464B464D
:10200000FEF7FAFA07EE90AAF8EEE77A044617EE22
:10201000900A0D46FEF798FA02460B4620462946DE
:10202000FEF714FCFEF7E0FD08EE100A68EE287AD1
:1020300017EE900AFEF788FA32463B46FEF726F97D
:10204000FEF78AFDDFED157A104B68EE277A04461D
:10205000186017EE900AFEF777FA3B463246FEF715
:1020600015F9FEF779FD084B1860DBF8003058636E
:102070009C63322003F0A5FBACE700BFAFF3008008
:102080009A9999999999E93FDC050020D805002093
:1020900000005C4500208C401802002000E05D45F7
:1020A0002DE9F84F7C4E7D4D7D4FDFF81C82DFF827
:1020B0001C920C21304602F085FF0021284602F0D8
:1020C00081FF0421284602F07DFF33687549764878
:1020D0008B221A64052203F0E8FA2B6873497448CE
:1020E0004FF4FA725A639A636F4AFFF7B3FB3B7877
:1020F000002B00F0978000246E4B3C701A78C8F8D3
:102100000040732AC9F80040D3B239D00AD8622BF4
:1021100000F0AE80662B00F090802B6800225A639E
:102120009A637FE0742B6FD0772BF6D1624B1B78CC
:10213000782B77D13368DFF898B1DFF898A18B223C
:102140001A644FF4FA7003F03CFB5C482246082105
:1021500001F090F959480122042101F08BF9574808
:102160002246102101F086F901222021534801F076
:1021700081F94FF4AF72CBF8002040F2651128E0EE
:102180004D4B1B78782B4DD13368DFF844B1DFF825
:1021900044A18B221A644FF4FA7003F012FB4748F3
:1021A0000122082101F066F944482246042101F089
:1021B00061F942480122102101F05CF922462021F8
:1021C0003E4801F057F940F27B12CBF8002040F274
:1021D00061112B68CAF8001059639A63384B18785C
:1021E000FFF732FD2B685C639C63CBF80040CAF8B4
:1021F000004034492C484FF0FF33032203F03AF8F3
:10220000642000F0CDFC0DE033688B221A644FF49B
:10221000FA7003F0D6FA284B1A78612A07D133688E
:102220005A221A644FF47A7003F0CBFA5FE71B78F6
:10223000642BF7D13368D222F3E71F4B1A78612A57
:1022400009D11F4B1B7800EE103A2046B8EE400A29
:10225000FFF76EFBCDE71B78642BE3D1184B1B789F
:1022600000EE103A2046B8EE400AFFF729FCC0E71E
:10227000114B1A78612A05D1114B1B78012000EE11
:10228000103AE3E71B78642BCCD10D4B1B7801206F
:1022900000EE103AE7E700BFCC0300203405002031
:1022A00008020020E30500207C0500202403002014
:1022B000C0050020D00500201002002000000240D0
:1022C00011020020989A0008140200201802002031
:1022D000D8050020DC05002072B6FEE770B50A467E
:1022E000044601B101221348124E4FF4807101F0EF
:1022F000C1F8082500222021304601F0BBF8230652
:102300004CBF012200224021304601F0B3F8013DCC
:1023100001222021304601F0ADF8640015F0FF05E0
:10232000E4B2E7D1BDE87040024801224FF4807169
:1023300001F0A0B80010024070B50F4EB02400218B
:102340002046FFF7CBFF00210846FFF7C7FF00211B
:102350001020FFF7C3FF002516F8350001210135D5
:10236000FFF7BCFF802DF7D10134E4B2B82C06F1A1
:102370000106E4D170BD00BFEC0500200023084831
:1023800010B41C460022C11801F832400132802AE4
:10239000FAD10133082BF5D15DF8044BFFF7CCBF20
:1023A000EC05002010B501F01BFE404B404C1A6FAD
:1023B00022F001021A671A6F22F004021A6701F074
:1023C0001DFE00228021204601F054F8642000F018
:1023D000E7FB01222046802101F04CF80021AE20CD
:1023E000FFF77CFF0021D520FFF778FF0021502068
:1023F000FFF774FF0021A820FFF770FF00213F20A6
:10240000FFF76CFF0021D320FFF768FF002108468B
:10241000FFF764FF00214020FFF760FF00218D20BF
:10242000FFF75CFF00211420FFF758FF0021202058
:10243000FFF754FF00210220FFF750FF0021A120E9
:10244000FFF74CFF0021C020FFF748FF0021DA20F2
:10245000FFF744FF00211220FFF740FF00218120F9
:10246000FFF73CFF0021EF20FFF738FF0021D920C4
:10247000FFF734FF0021F120FFF730FF0021DB20C0
:10248000FFF72CFF00213020FFF728FF0021A420B8
:10249000FFF724FF0021A620FFF720FF0021AF2037
:1024A000FFF71CFFBDE81040FFF768BF003802408F
:1024B0000010024013B5134B002400945A6C42F4F0
:1024C00080425A645A6C02F480420092009A01944D
:1024D0001A6C42F080521A641B6C03F08053019313
:1024E00022460F216FF00100019B00F0B5FC052191
:1024F0000846224600F0B0FC052002B0BDE81040BE
:1025000000F0DCBC0038024070B5064688B01422EA
:10251000002103A805F061FB32681F4B9A4238D1B5
:10252000002503F58C3301955A6C1C481C4C42F471
:1025300080725A645A6C02F480720192019A029578
:102540001A6B42F004021A631B6B03F0040302933C
:10255000029B0622032303A9CDE9032300F0B0FE6A
:10256000104B4FF48061C4E900354FF40063C4E9B7
:10257000041320464FF40053C4E90255C4E906355C
:10258000C4E9085500F0D2FC08B1FFF7A5FEB4631A
:10259000A66308B070BD00BF0020014000080240E3
:1025A000640200201064024070B514228AB006460E
:1025B00000210DEB020005F010FB3368354A934211
:1025C00040D1354C00250195236B43F00203236372
:1025D000236B03F002030193019B4FF4407012231D
:1025E000CDE905034FF0010C0323CDE907C32B48C8
:1025F000042305A9099300F063FE0295236CDFF81C
:10260000A8E043F400132364236C254C03F4001367
:102610000293029B4FF00073C4E900E320464FF49D
:102620008063C4E90255C4E90435C4E90655C4E928
:10263000085500F07BFC08B1FFF74EFEB463A663BB
:102640000AB070BD174A9342FAD1134C13480025C3
:102650000395236B43F002032363236B03F0020310
:102660000393039B4FF440621223CDE9052303211A
:102670000423CDE9081305A900F022FE0495236C7C
:1026800043F480032364236C03F480030493049BCA
:10269000D6E700BF0054004000380240000402406A
:1026A000C402002000580040106002400268094B3C
:1026B0009A4282B00BD100230193074B5A6C42F02F
:1026C00001025A645B6C03F001030193019B02B0A9
:1026D000704700BF000001400038024070B514226E
:1026E0008AB0044600210DEB020005F076FA23685B
:1026F000B3F1804F37D103F50E33002400941A6CE8
:10270000294842F001021A641A6C02F00102009298
:10271000009A01941A6B42F001021A631A6B02F0DC
:1027200001020192019A02941A6B42F002021A63AA
:102730001B6B03F002030293029B02264FF400433B
:10274000012505A9CDE90536099500F0B9FD082355
:10275000CDE90536CDE907441448099505A900F0EF
:10276000AFFD0AB070BD124A9342FAD1114B0E4828
:10277000002103911A6C42F002021A641A6C02F0F2
:1027800002020392039A04911A6B42F001021A6347
:102790001B6B03F001030493049BC0220223CDE9C9
:1027A0000523099305A9DAE700000240000402406E
:1027B000000400400038024010B5044688B01422DE
:1027C000002103A805F009FA2268174B9A4228D184
:1027D00003F50C33002401941A6C144842F00402EF
:1027E0001A641A6C02F004020192019A02941A6BA4
:1027F00042F008021A631B6B03F0080302934FF4C4
:102800008052029B03A90223CDE90323079300F022
:1028100057FD1E202246052100F01EFB1E2000F061
:102820004DFB08B010BD00BF00080040000C024086
:1028300010B5044688B01422002103A805F0CDF994
:1028400023681A4A93420DD100230093184B1A6C47
:1028500042F010021A641B6C03F010030093009BFB
:1028600008B010BD134A9342FAD1114B124800210F
:1028700001915A6C42F002025A645A6C02F0020250
:102880000192019A02911A6B42F004021A631B6BC7
:1028900003F004030293029BC0220223CDE9032329
:1028A00003A90323079300F00BFDD9E700100040B4
:1028B00000380240000401400008024010B5044600
:1028C00086B01422002101A805F087F922680E4B7A
:1028D0009A4216D1002300930C4B0D481A6B42F01C
:1028E00010021A631B6B03F010030093009B4FF45C
:1028F00080420223CDE9012301A90123059300F0C1
:10290000DFFC06B010BD00BF0000014000380240EF
:102910000010024010B5044688B01422002103A81C
:1029200005F05BF92268184B9A422BD103F5F83376
:10293000002401941A6C154842F480221A641A6C1F
:1029400002F480220192019A02941A6B42F004026E
:102950001A631B6B03F0040302934FF44062029B63
:102960000223CDE9032303210723CDE9061303A99D
:1029700000F0A6FC27202246052100F06DFA272052
:1029800000F09CFA08B010BD00480040000802406A
:10299000FEE7FEE7FEE7FEE7FEE7704708B500F05A
:1029A000EDF803F0C7FE012803D0BDE8084004F0AD
:1029B000D1B908BD70470000014800F0C1BB00BF9D
:1029C000C4020020014801F0A7BE00BFA4040020FB
:1029D000014802F009BD00BF7C050020014800F05D
:1029E000AFBB00BF640200200120704708B505F0AE
:1029F00047F9162303604FF0FF3008BD08B505F016
:102A00003FF916230360FEE770B50D4614460E46E7
:102A1000731B9C4201DC204670BDAFF3008006F8BA
:102A2000010BF5E770B50D4614460E46731B9C422C
:102A300001DC204670BD16F8010BAFF30080F5E70E
:102A40004FF0FF3070474FF400534B600020704749
:102A500001207047002070470B4A116810B50346EB
:102A600009B90A491160106809490A4C0344091B55
:102A70008B4206D905F004F90C2303604FF0FF30B8
:102A800010BD1360FCE700BFEC090020905400204B
:102A90000000022000040000034AD2F8883043F40A
:102AA0007003C2F88830704700ED00E0DFF834D0E2
:102AB0000D480E490E4A002302E0D458C450043396
:102AC000C4188C42F9D30B4A0B4C002301E013606D
:102AD0000432A242FBD3FFF7DFFF05F0D7F8FEF781
:102AE00083FB70470000022000000020DC01002072
:102AF0001C9F0008DC0100208C540020FEE7000031
:102B000038B50E4B1A784FF47A73B3FBF2F30C4AD4
:102B100005461068B0FBF3F000F0DEF9044658B942
:102B20000F2D09D8024629464FF0FF3000F094F9E6
:102B3000044B20461D6038BD0120FCE70800002042
:102B4000040000200C00002008B50B4B1A6842F46A
:102B500000721A601A6842F480621A601A6842F4BD
:102B600080721A60032000F065F90F20FFF7C8FF9C
:102B7000FFF7A0FC002008BD003C0240034A044BC4
:102B800011681B780B441360704700BFF0090020E8
:102B900008000020014B1868704700BFF0090020B2
:102BA00038B50446FFF7F6FF631C1CBF054B1B78C6
:102BB000054618BFE418FFF7EDFF431BA342FAD305
:102BC00038BD00BF0800002038B50446002800F0DA
:102BD0009B80056C25B9FFF797FC656484F83C5031
:102BE000236CDB0600F18E80236C23F4885323F0E2
:102BF000020343F002032364444B5A6822F4403238
:102C00005A605A6861680A435A60236821695A68A1
:102C100022F480725A605A6842EA01225A605A6865
:102C2000A16822F040725A605A680A435A609A6852
:102C3000E16822F400629A609A680A439A60344913
:102C4000A26A8A4252D0996821F0706199609968AD
:102C50000A439A609A68E16A22F040529A609A6840
:102C60000A439A609A6822F002029A609A68217E6A
:102C700042EA41029A6094F82020002A3ED05A6825
:102C8000616A42F400625A605A6822F460425A60F3
:102C90005A68013942EA41325A60DA6AE16922F43B
:102CA0007002DA62DA6A013942EA0152DA629A683B
:102CB00022F400729A609A6894F8301042EA412235
:102CC0009A609A68616922F480629A609A6800202A
:102CD00042EA81229A606064236C23F0030343F08C
:102CE00001032364002384F83C3038BD9A6822F045
:102CF00070629A609A6822F04052B2E75A6822F4F1
:102D00000062C9E70120EDE70120EEE70023014062
:102D10000100000FF7B50023019390F83C30012B20
:102D200064D0012380F83C300D6803688E68092D5B
:102D3000ACB231D904EB4402DF681E3A4FF0070C05
:102D40000CFA02FC27EA0C07DF60DF6806FA02F2E1
:102D50003A43DA604968062901EB81022BD8596BA6
:102D6000053A1F26964021EA06015963596B04FA79
:102D700002F20A435A632B4A934207D1122D37D1EC
:102D8000D2F8043343F48003C2F80433002380F8FC
:102D90003C30184603B0F0BD1A6905EB450C072717
:102DA00007FA0CF722EA07021A611A6906FA0CF60A
:102DB00016431E61CEE70C294FF01F010BD81E6B86
:102DC000233A914026EA01011963196B04FA02F2D1
:102DD0000A431A63CFE7DE6A413A914026EA0101CD
:102DE000D962D96A94400C43DC62C4E70220D1E77F
:102DF000A5F11003012BC9D80B4A5368102D43F4D9
:102E000000035360C2D1094B094A1B68B3FBF2F3BC
:102E10000A2253430193019B002BB7D0019B013B36
:102E2000F8E700BF0020014000230140040000201B
:102E300040420F000749CA6822F4E062030212040C
:102E400003F4E063120C134343F0BF6343F4003315
:102E5000CB60704700ED00E0164B30B5DC68C4F382
:102E60000224C4F10703251D042B28BF0423062DCB
:102E70004FF0FF358CBF033C002405FA03F321EA31
:102E80000303A54022EA0502A340002843EA020307
:102E9000ACBF00F16040084A4FEA0313B8BF00F02E
:102EA0000F00DBB2AABF00F56140135480F8003375
:102EB00030BD00BF00ED00E014ED00E0002807DBAE
:102EC0004109044A00F01F000123834042F82130E9
:102ED000704700BF00E100E00138B0F1807F0BD205
:102EE0004FF0E023054A5861F02182F823100020BA
:102EF000072298611A6170470120704700ED00E0D9
:102F0000036810B5DAB2103A074C23F47F7323F04C
:102F100003035F2A88BF04331821B2FBF1F1615C1F
:102F2000C1658365184610BD849B000870B50446D2
:102F3000FFF730FE0546002C71D0022384F83530AF
:102F40002268002384F83430136823F001031360EF
:102F500022681368D8072ED413683248A169184034
:102F6000D4E901352B43E5682B4325692B4365697B
:102F70002B43E5690B432B43256A2B430343606ACC
:102F8000042802BFD4E90B5635432B431360536921
:102F9000042823F0070343EA000332D1A06AE56A5C
:102FA000034375B391B9012820D030F0020128D134
:102FB000E90126D51DE0FFF7EDFD401B0528C7D927
:102FC00020236365032084F8350070BDB1F5005FF0
:102FD00013D1032815D801A151F820F0F32F0008D0
:102FE000B12F0008F32F0008ED2F0008B5F1C07FC6
:102FF00007D1402363650120E5E70228F9D90328BA
:10300000D6D053612046FFF77BFFE26D3F2393400C
:10301000836000200123606584F83530D5E7012006
:10302000D3E700BF3F8010F070B590F83440866D54
:10303000012C31D0012480F8344090F83540012C27
:103040004FF000054FF0020424D180F835400468A9
:103050004565256825F48025256063608368402BDD
:103060000EBFA260A160E260C26D08BFE1603F23B5
:103070009340B360236843F016032360036C1BB1D5
:10308000236843F008032360236843F001032360AF
:10309000002070BD80F834500220FAE770B5044675
:1030A000866DFFF777FD94F83530022B054606D084
:1030B000802363650120002384F8343070BD2368C9
:1030C0001A6822F016021A605A6922F080025A61C8
:1030D000226C0AB9A26C1AB11A6822F008021A60AE
:1030E0001A6822F001021A6023681B6813F00103BA
:1030F00008D1E16D3F228A40B260012284F8352078
:103100001846D8E7FFF746FD401B0528ECD92023D9
:103110000320636584F83500CDE790F83530022B45
:1031200003D080234365012070470268052380F89F
:103130003530136823F0010313600020704700004E
:10314000F7B5002301935C4B856D1F68C36D2E6836
:1031500008229A40324204460CD0016808684007B1
:1031600008D5086820F004000860AA60626D42F08B
:103170000102626501229A40324208D02168496901
:10318000090641BFAA60626D42F002026265042234
:103190009A40324208D021680968880741BFAA6076
:1031A000626D42F00402626510229A40324210D0F1
:1031B0002368196809070CD5AA601A68500337D527
:1031C0001B68190301D4236C00E0A36C0BB12046EB
:1031D0009847E16D20228A4032423AD0236818682D
:1031E000C60636D5AA6094F83520052A1A6827D174
:1031F00022F016021A605A6922F080025A61226C8B
:103200000AB9A26C1AB11A6822F008021A603F23A8
:103210008B40AB60012384F83530002384F83430D0
:10322000236D002B45D0204603B0BDE8F040184781
:103230001A68D2055EBF1A6822F008021A60C2E757
:10324000500327D51B68190331D4636C0BB120469A
:103250009847636D6BB3636DDA0719D522684FF435
:103260001653B7FBF3F7052384F83530136823F0C2
:1032700001031360019B0133BB42019302D8136821
:10328000DB07F7D4012384F83530002384F8343089
:10329000E36CC6E71A6812F4807208D1196821F04D
:1032A00010011960012384F8353084F83420E36B71
:1032B000CCE703B0F0BD00BF04000020406D7047B4
:1032C0002DE9F74FDFF8A891674A00230D68012424
:1032D0009C4004EA050CAC4340F0B1804D6805F019
:1032E00003044FEA43080326671E06FA08F6012F77
:1032F0006FEA060634D8876807EA060ECF6807FA31
:1033000008F747EA0E078760476827EA0C0EC5F3FF
:1033100000179F4047EA0E074760C76807EA060E96
:103320008F6807FA08F747EA0E07022CC76019D121
:103330004FEAD30A00EB8A0A03F0070BDAF8207091
:103340004FEA8B0B4FF00F0E0EFA0BFE27EA0E0E14
:103350000F6907FA0BF747EA0E07CAF8207001E079
:10336000032CDAD1076804FA08F437403C4315F41B
:10337000403F046063D04FF0000ACDF804A0D9F8B4
:1033800044603A4C46F48046C9F84460D9F8446039
:1033900006F480460196019E23F0030606F180465E
:1033A00006F59C3603F0030ED6F808804FEA8E0E21
:1033B0000F2707FA0EF7A04228EA070746D004F5C0
:1033C0008064A04244D004F58064A04242D004F559
:1033D0008064A04240D004F58064A0423ED004F551
:1033E0008064A0423CD004F58064A0423AD004F549
:1033F0008064A0420CBF0724082404FA0EF43C4366
:10340000B46094686FEA0C06EF0254BF34404CEA93
:1034100004049460D468AF0254BF34404CEA0404FE
:10342000D4605468AF0354BF34404CEA0404546081
:103430001468ED0354BF34404CEA040414600133B3
:10344000102B7FF443AF03B0BDE8F08F5446D4E7B0
:103450000124D2E70224D0E70324CEE70424CCE7FA
:103460000524CAE70624C8E7003C014000000240EA
:10347000003802400AB1816170470904FBE7016826
:103480004B6913F480634FF0000210D06FF4806337
:103490004B612023026380F83D3080F83E20036CAE
:1034A00080F83C2043F00403036401207047184671
:1034B00070472DE9F84606460F4691461D464FEAED
:1034C000114A3368BAF1010F0CBF5C699C6927EAA5
:1034D0000404A4B2B4FA84F46409A14501D0002024
:1034E00017E06A1CEED0FFF755FB089BC01AA842F4
:1034F00001D8002DE5D100232022336386F83D203A
:1035000086F83E30326C86F83C3042F0200232645D
:103510000120BDE8F8862DE9F04104460F46164625
:1035200098462568686927EA000080B2B8B16B69DF
:103530005A0516D52B6843F400732B606FF4806333
:103540006B6120220023236384F83D2084F83E3001
:10355000226C42F00402226484F83C300120BDE871
:10356000F081731CDED0FFF715FBA0EB0800B04222
:1035700001D8002ED5D100232022236384F83D20DA
:1035800084F83E30226C42F02002E4E770B5044635
:103590000D46164621684B6913F0400301D0002008
:1035A00010E04A69D2060ED56FF010024A6120225F
:1035B000236384F83D2084F83E30226C226484F832
:1035C0003C30012070BDFFF7E5FA801BA84201D80E
:1035D000002DDFD100232022236384F83D2084F8CE
:1035E0003E30226C42F02002E8E770B504460D46FA
:1035F000164623685B691B0601D5002070BD204676
:10360000FFF73DFFA8B96A1CF3D0FFF7C3FA801B90
:10361000A84201D8002DECD100232022236384F896
:103620003D2084F83E30226C84F83C3042F0200289
:1036300022640120E2E700002DE9F043154602680C
:1036400085B0DDE90C789946136843F48073136004
:103650000E463B46CDF8008000224FF00111044693
:10366000FFF727FF236838B11B68DB0502D54FF44D
:103670000073236403200AE006F0FE061E61194968
:1036800043463A462046FFF746FF18B1012005B0F1
:10369000BDE8F083236803905A6903929B69039302
:1036A000424639462046039BFFF79FFF40B1236CFB
:1036B000042B01BF2268136843F400731360E5E72D
:1036C000B9F1010F236802D1EDB21D61DFE72A0ACB
:1036D0001A61394642462046FFF787FF0028E6D1A7
:1036E0002368F1E7020001002DE9FF479A460368CD
:1036F00015461A6842F480621A601A68DDE90C788F
:1037000042F480721A600E463B46CDF800800022DB
:103710004FF001110446FFF7CCFE236848B11B6847
:10372000DB0502D54FF400732364032004B0BDE829
:10373000F0875FFA86F906F0FE061E612A494346C5
:103740003A462046FFF7E7FE08B10120EEE723687E
:1037500003905A6903929B69039342463946204677
:10376000039BFFF742FF40B1236C042B01BF22688B
:10377000136843F400731360E7E7BAF1010F23689D
:103780001AD1EDB242461D6139462046FFF72DFFA2
:1037900002460028E8D121680B6843F480730B606F
:1037A0002046CDF800803B464FF00111FFF781FE27
:1037B000226860B11368B3E72A0A1A6139464246A3
:1037C0002046FFF712FF0028CED12368D9E749F041
:1037D00001031361044943463A462046FFF79BFE26
:1037E000003818BF0120A1E70200010070B50446AF
:1037F0000D46164623685B695B0701D5002070BD46
:103800002046FFF73CFEA8B96A1CF3D0FFF7C2F9C7
:10381000801BA84201D8002DECD100232022236375
:1038200084F83D2084F83E30226C84F83C3042F02D
:10383000200222640120E2E770B5044608B90120A5
:1038400070BD90F83D3003F0FF021BB980F83C20BA
:10385000FEF7AAFE242384F83D3023681A6822F07C
:1038600001021A601A6842F400421A601A6822F4CF
:1038700000421A6000F044FE3F4B65689D4294BFD1
:103880003E4B3F4B98428CBF00230123002BD6D1E7
:103890002268394E51683B4BB0FBF3F321F03F01F6
:1038A0001943B542516088BF4FF49676116A88BFBC
:1038B000734321F03F0184BF4FF47A76B3FBF6F3F4
:1038C00001330B431362D169431E2B4821F44F414E
:1038D000854221F0FF0132D86D0040F6FC70B3FB49
:1038E000F5F30133034242D0C3F30B031943D16113
:1038F000D4E907301168034321F0C0010B43136082
:103900009168D4E9030321F40341034321F0FF014B
:103910000B439360D4E90530D168034321F0FF01E4
:103920000B43D360136843F001031360002020238E
:10393000206484F83D30206384F83E0080E7A0686E
:1039400050B905EB4505B3FBF5F30133C3F30B03A6
:103950007BB143F40043C9E719206843B3FBF0F39C
:103960000133C3F30B0323B143F44043BEE7042305
:10397000BCE70123BAE700BFA08601007F841E00D8
:10398000FF083D0040420F002DE9F74304469946E9
:103990000C9E0F469046FFF7FDF894F83D30202B23
:1039A000054603D0022003B0BDE8F08300903C49F7
:1039B000192301222046FFF77CFD0028F2D194F85C
:1039C0003C30012BEED02068012384F83C300368A2
:1039D000D9075EBF036843F001030360036823F463
:1039E00000630360212384F83D30402384F83E3097
:1039F000002323640A9B6362BDF82C306385638DCA
:103A00002385284BE362CDE900654B4642463946A3
:103A10002046FFF711FE00282AD00120C3E7FFF758
:103A2000E4FD40B1236C042B01BF2268136843F40A
:103A300000731360F1E7636A27681A4612F8011BE6
:103A400039616262628D218D013A92B262857A6932
:103A5000481E80B2520720850AD548B15A783A618B
:103A600002336362638D013B02399BB2218563851A
:103A7000238D2A4631462046002BD0D1FFF7B6FED3
:103A80000028CFD12268136843F400731360202309
:103A900084F83D3084F83C0084F83E0083E700BFA2
:103AA000020010000000FFFF2DE9F043044687B03C
:103AB0009946109F0D469046FFF76CF894F83D30FC
:103AC000202B064604D00225284607B0BDE8F08327
:103AD00000907649192301222046FFF7EAFC0028CE
:103AE000F1D194F83C30012BEDD02068012384F80B
:103AF0003C300368DB075EBF036843F001030360EB
:103B0000036823F400630360222384F83D304023DC
:103B100084F83E30002323640E9B6362BDF83C3082
:103B20006385638D2385624BE3622946CDE9007688
:103B30004B4642462046FFF7D7FD054608B1012512
:103B4000C2E7228D2368B2B902905A6902929A693B
:103B50000292029A1A6842F400721A60DFF85481E5
:103B6000238D002B2CD1202284F83D2084F83C307A
:103B700084F83E30A8E7012A0AD11A6822F480624C
:103B80001A6003905A6903929A690392039AE1E7D3
:103B9000022A0ED11A6822F480621A601A6842F46E
:103BA00000621A6004905A6904929B690493049B12
:103BB000D4E705905A6905929B690593059BCDE76B
:103BC000032B56D8012B15D1324639462046FFF734
:103BD000DDFC0028B3D123681A69636A1A70636A2E
:103BE00001336362238D013B2385638D013B9BB2CF
:103BF0006385B5E7022B00963B464FF00002414635
:103C0000204619D1FFF755FC002898D123681A687F
:103C100042F400721A601A69636A1A70626A531C6D
:103C20006362238D013B2385638D013B9BB26385DA
:103C300023681B695370D2E7FFF73BFC024600285C
:103C40007FF47DAF2368196821F4806119601969D8
:103C5000636A1970636A009601336362238D013BC6
:103C60002385638D013B9BB2638541463B462046DD
:103C7000C8E7324639462046FFF788FC00287FF423
:103C80005EAF23681A69636A1A70626A531C6362C2
:103C9000238D013B2385638D013B9BB263852368A4
:103CA000596949077FF55CAFC3E700BF0200100008
:103CB0000000FFFF040001002DE9F04786B0044634
:103CC00099460E9E0F469046FEF764FF002303932D
:103CD00094F83D30202B824603D0022006B0BDE888
:103CE000F087664B46F2A8121B68B3FBF2F3192269
:103CF00053430393039B013B0393039B6BB9202224
:103D0000236384F83D2084F83E30226C84F83C30F4
:103D100042F0200222640120E0E721688B699A07C3
:103D2000E8D494F83C30012BD7D0012384F83C3000
:103D30000B68534ADB075EBF0B6843F001030B605F
:103D40000B6823F400630B60222384F83D3040238A
:103D500084F83E300025BDF83C3025646385638DD2
:103D600066629BB2E26223856764C4F84880C4F847
:103D70004C902565002B63D0A06B50B3414AC263C1
:103D8000414AC264C0E91055324685640565103168
:103D9000FFF74AF90646002846D123230093CDF8C1
:103DA00004A04B46424639462046FFF79DFCE0B151
:103DB000A06BFFF7B2F9A36BDE6323681A6822F4E5
:103DC00080621A6066851A68268522F001021A60F0
:103DD000A1E7202384F83D3084F83E00236C84F86A
:103DE0003C0043F08003236495E7228D2368012A79
:103DF0000BBF1A685A6822F4806242F480520CBFEA
:103E00001A605A60002204925969049199690491D8
:103E100084F83C2004995A6842F480725A605A68C7
:103E200042F400625A6059E7202384F83D3084F858
:103E30003E50236C84F83C5043F0100323646AE73F
:103E400023230093CDF804A04B4642463946204632
:103E5000FFF74AFC00287FF45EAF236805905A699B
:103E600005929A690592059A1A6842F400721A60DE
:103E7000202384F83D3084F83C002FE70400002024
:103E80000000FFFFD93E0008953E000870477047CC
:103E90007047704710B5846B636B0BB10022DA6317
:103EA000A36B0BB10022DA63FFF708FA022812D0E5
:103EB0002268136823F48063136000232022638543
:103EC00084F83D2084F83E30236C43F010032364D3
:103ED0002046FFF7DEFF10BD70B5846B236894F8B1
:103EE0003D2094F83E00E16A5D6825F440755D6010
:103EF000656BD2B2C0B20DB10026EE63A56B0DB1F9
:103F00000026EE6302F02105212D05D002F02205E6
:103F1000222D23D1202821D1596821F40061596034
:103F2000292A4FF0000363850DD121232363282321
:103F300084F83D302046FFF7AAFF2268536843F417
:103F40004073536070BD2A2AF7D1222323632823AC
:103F500084F83D302046FFF79BFFEEE794F83E20C3
:103F6000002AEFD0628D92B2012A02BF1A6822F4B1
:103F700080621A605A6811F5803F22F440725A60DC
:103F800006D0082904D0B1F12A4F01D0202903D14D
:103F90001A6842F400721A605A6822F480525A6019
:103FA0005A6822F400625A6000236385236C1BB1B7
:103FB0002046FFF76EFFC5E7202284F83D2094F8E5
:103FC0003E2084F83E30402A04D123632046FDF78A
:103FD000A3FCB7E7122323632046FFF757FFB1E79F
:103FE000044B01221A62044B82B01B680193019BAF
:103FF00002B0704700000E4200700040044B0022E7
:104000001A62044B82B01B680193019B02B0704797
:1040100000000E42007000402DE9F341044640B319
:104020000368DD0710D4236898075BD423681A0758
:1040300000F19D8023685B0700F1BD80A069002826
:1040400040F0248100202CE08D4B9A6802F00C0295
:10405000042A07D09A6802F00C02082A0BD15B6888
:10406000590208D5864B1B689A03DCD56368002B80
:10407000D9D1012015E06368814DB3F5803F13D19C
:104080002B6843F480332B60FEF784FD7C4E05469D
:1040900033689B03C7D4FEF77DFD401B6428F7D926
:1040A000032002B0BDE8F081B3F5A02F04D12B6846
:1040B00043F480232B60E3E72A6822F480322A60ED
:1040C0002A6822F480222A60002BDDD1FEF762FDEF
:1040D00006462B689F03A6D5FEF75CFD801B64286F
:1040E000F7D9DDE7664B9A6812F00C0F07D09A6893
:1040F00002F00C02082A11D15B685E020ED4604AFD
:1041000013689D0702D5E368012BB2D113682169BA
:1041100023F0F80343EAC103136087E7E268594BD1
:10412000B2B101221A60FEF735FD554D06462B68E7
:10413000980707D52B68226923F0F80343EAC203E6
:104140002B6073E7FEF726FD801B0228EFD9A7E757
:104150001A60FEF71FFD4A4E0546336899077FF542
:1041600065AFFEF717FD401B0228F6D998E7626994
:10417000444B82B10122C3F8802EFEF70BFD404E66
:104180000546736F9F073FF555AFFEF703FD401BD4
:104190000228F6D984E7C3F8802EFEF7FBFC384EE0
:1041A0000546736F98077FF545AFFEF7F3FC401B9C
:1041B0000228F6D974E7324B1A6C12F0805228D1DB
:1041C00001921A6C42F080521A641B6C03F0805307
:1041D0000193019B01272C4D2B68D9051BD5A368A2
:1041E000274D012B27D12B6F43F001032B67FEF7DF
:1041F000D1FC234E054641F28838336F9B0739D5F1
:10420000002F3FF41BAF1E4A136C23F0805313643E
:1042100014E70027DFE72B6843F480732B60FEF779
:10422000B9FC06462B68DA05D9D4FEF7B3FC801B2F
:104230000228F7D934E7052B04D12B6F43F0040390
:104240002B67D0E72A6F22F001022A672A6F22F03B
:1042500004022A67002BCAD1FEF79CFC41F2883881
:1042600006462B6F9807CBD5FEF794FC801B404584
:10427000F7D915E7FEF78EFC401B4045BDD90FE787
:10428000003802400000474200700040364DAB68E5
:1042900003F00C03082B3DD0344B002202281A6691
:1042A0002BD1FEF777FC06462B6899011FD4D4E981
:1042B00007321343626A43EA8213E26A43EA026303
:1042C000A26A5208013A43EA02436B60274B264D2B
:1042D00001221A66FEF75EFC04462B689A013FF540
:1042E000B1AEFEF757FC001B0228F6D9D8E6FEF760
:1042F00051FC801B0228D7D9D2E6FEF74BFC0446BE
:104300002B689B017FF59EAEFEF744FC001B022844
:10431000F6D9C5E601283FF4C4AE6B68E26903F440
:10432000800191427FF4A5AE216A03F03F028A42E8
:104330007FF49FAE616A47F6C0721A40B2EB811FEC
:104340007FF497AEA26A520803F44031013AB1EB10
:10435000024F7FF48EAEE26A03F07063B3EB026F3C
:104360003FF470AE85E600BF0038024000004742CF
:10437000134908B58B6803F00C03042B1CD0082BE1
:104380001CD14A684B68496813F4800314BF0D4878
:104390000D48C1F3881118BF002302F03F02A1FBB2
:1043A0000001FCF771FC064B5B68C3F3014301336A
:1043B0005B00B0FBF3F008BD0248FCE70248FAE7F7
:1043C0000038024040787D010024F4002DE9F041DE
:1043D0000D46044610B90120BDE8F081434B1A6830
:1043E00002F007028A4228D321688F072DD4C8071C
:1043F00040D43E4B1A6802F00702AA4265D82268F0
:1044000051076BD4130707D5394A2169936823F400
:10441000604343EAC1039360FFF7AAFF344B354A78
:104420009B68C3F30313D35CD840334B1860334B02
:104430001868FEF765FB0020CEE7CAB21A701B6849
:1044400003F007038B42C6D1CEE7294B11F0040FCE
:104450001EBF9A6842F4E0529A600E0742BF9A6803
:1044600042F460429A609A68A06822F0F002024327
:104470009A60BCE762681E4B012A1CD11B6813F4CA
:10448000003FA8D01A4EB36823F003031343B36070
:10449000FEF780FB41F288380746B368626803F094
:1044A0000C03B3EB820FA4D0FEF774FBC01B404596
:1044B000F3D9032090E7911E01291B6802D813F05D
:1044C000007FDEE713F0020FDBE7EAB21A701B6829
:1044D00003F00703AB427FF47EAF90E70449E06846
:1044E0008B6823F4E05303438B608BE7003C02406E
:1044F000003802406C9B0008040000200C000020E3
:10450000044B054A9B68C3F38223D35C034A1068BB
:10451000D8407047003802407C9B0008040000200F
:10452000044B054A9B68C3F34233D35C034A1068CB
:10453000D8407047003802407C9B000804000020EF
:10454000036A23F001030362036A70B54468826959
:104550000D6822F073022A438D6823F002032B4377
:104560000E4DA84202D00E4EB04210D1CE6823F0BC
:1045700008033343A84223F0040302D0084DA842A5
:1045800005D1D1E9055624F4407435432C434460E9
:1045900082614A684263036270BD00BF000001404F
:1045A00000040140036A23F480730362036A70B558
:1045B0004468C2690D6822F073022A438D6823F4AF
:1045C000007343EA0523114DA84203D005F5806529
:1045D000A84214D1CD6823F4006343EA05230B4DB0
:1045E000A84223F4806303D005F58065A84206D174
:1045F000D1E9055624F44054354344EA0514446097
:10460000C2614A68C263036270BD00BF000001401E
:10461000036A23F480530362036A30B54468C269B5
:104620000D6822F4E64242EA05228D6823F4005325
:1046300043EA0533084DA84203D005F58065A8423A
:1046400004D14D6924F4804444EA85144460C26175
:104650004A680264036230BD0000014030B5034681
:1046600090F83E0093F83F2093F8425093F843406F
:10467000C0B2D2B2EDB2E4B2C1B9012845D1012D28
:1046800013D1022283F83E2083F842201A68116A6F
:1046900021F001011162116A41F0010111621A68F1
:1046A000136843F001031360002030BD042911D1C9
:1046B000012A2AD1012C28D1022283F83F2083F835
:1046C00043201A68116A21F010011162116A41F049
:1046D0001001E3E7012818D1012AE6D1012DE4D128
:1046E000012CE2D1022283F83E2083F83F2083F898
:1046F000422083F843201A68116A21F001011162F7
:10470000116A41F001011162DCE70120CDE7704739
:10471000704770477047704703681A69910710B572
:1047200004460ED5DA6892070BD56FF002021A61C3
:10473000012202779B699B0777D0FFF7EAFF0023EE
:10474000237723681A69500710D5DA6851070DD509
:104750006FF004021A61022222779B6913F4407FF2
:10476000204668D0FFF7D5FF0023237723681A6916
:1047700012070FD5DA6810070CD56FF008021A611E
:1047800004222277DB69990720465AD0FFF7C1FF40
:104790000023237723681A69D20610D5DA68D00679
:1047A0000DD56FF010021A6108222277DB6913F42D
:1047B000407F20464BD0FFF7ACFF002323772368D0
:1047C0001A69D10708D5DA68D20705D56FF001025A
:1047D0001A612046FFF79BFF23681A69100608D567
:1047E000DA68110605D56FF080021A61204600F0E4
:1047F00050FC23681A69520608D5DA68500605D5B8
:104800006FF040021A612046FFF785FF23681A699E
:10481000910622D5DA6892061FD56FF02002204655
:104820001A61BDE8104000F033BCFFF771FF20466D
:10483000FFF770FF83E7FFF76BFF2046FFF76AFF84
:1048400092E7FFF765FF2046FFF764FFA0E7FFF759
:104850005FFF2046FFF75EFFAFE710BD304A0368F9
:10486000904212D0B0F1804F0FD0A2F57C4290421E
:104870000BD002F58062904207D002F58062904230
:1048800003D002F57842904219D14A6823F07003B0
:104890001343234A904229D0B0F1804F26D0A2F58D
:1048A0007C42904222D002F5806290421ED002F5F6
:1048B000806290421AD002F57842904216D0194A8E
:1048C000904213D002F5806290420FD002F58062D0
:1048D00090420BD0A2F59832904207D002F5806248
:1048E000904203D002F58062904203D1CA6823F45B
:1048F000407313434A6923F08003134303608B68BA
:10490000C3620B688362064B984203D003F5806351
:10491000984201D10B69036301234361704700BFD3
:10492000000001400040014010B5044630B390F84B
:104930003D3003F0FF021BB980F83C20FDF778FF03
:104940000223206884F83D30211DFFF787FF0123F3
:1049500084F84630002084F83E3084F83F3084F8F4
:10496000403084F8413084F8423084F8433084F891
:10497000443084F8453084F83D3010BD0120FCE718
:1049800010B5044630B390F83D3003F0FF021BB978
:1049900080F83C20FDF78AFE0223206884F83D3031
:1049A000211DFFF75BFF012384F84630002084F8C7
:1049B0003E3084F83F3084F8403084F8413084F849
:1049C000423084F8433084F8443084F8453084F829
:1049D0003D3010BD0120FCE710B5044630B390F81F
:1049E0003D3003F0FF021BB980F83C20FDF7E4FEE8
:1049F0000223206884F83D30211DFFF72FFF01239B
:104A000084F84630002084F83E3084F83F3084F843
:104A1000403084F8413084F8423084F8433084F8E0
:104A2000443084F8453084F83D3010BD0120FCE767
:104A3000F8B50D46044600284CD090F83D3003F000
:104A4000FF021BB980F83C20FDF748FE21460223F7
:104A500084F83D3051F8040B836823F4804323F03D
:104A600007038360FFF7FAFE81682A688369AE69ED
:104A7000076A1143AA6823F4407323F0030342EA50
:104A800006221A432B69EE691B0143EA0623EE68EE
:104A900033432E6A22F47C4222F0FC0243EA0633BE
:104AA00013436E696A68816027F0AA0742EA06121A
:104AB000836117430123076284F84630002084F89D
:104AC0003E3084F83F3084F8423084F8433084F834
:104AD0003D30F8BD0120FCE7036A23F010030362B8
:104AE000036A70B5446882690D6822F4E64242EABE
:104AF00005228D6823F0200343EA0513104DA842D8
:104B000003D005F58065A84214D1CD6823F0800359
:104B100043EA05130A4DA84223F0400303D005F5EC
:104B20008065A84206D1D1E9055624F44064354396
:104B300044EA8504446082614A688263036270BD0E
:104B40000000014070B590F83C30012B054650D074
:104B50000123082A80F83C303BD007D8C2B1042A90
:104B600027D01846002385F83C3070BD0C2AF8D1B8
:104B70000068FFF74DFDC3690A6943F40063C36130
:104B8000C36923F48063C361C36943EA02232EE04F
:104B90000068FFF7D5FC83690A6943F00803836165
:104BA000836923F0040383618369134383610020D5
:104BB000D8E70068FFF790FF83690A6943F4006350
:104BC0008361836923F480638361836943EA0223F9
:104BD000ECE70068FFF7E6FCC3690A6943F00803E5
:104BE000C361C36923F00403C361C3691343C36191
:104BF000DDE70220B9E7000070B5046A1A4E24F020
:104C000001040462B0428469056A29D0B0F1804F82
:104C100026D0A6F57C46B04222D006F58066B0428A
:104C20001ED006F58066B0421AD006F57846B0422E
:104C300016D006F57056B04212D0A6F59436B042A2
:104C40000ED044F001021B0122F0F002DBB213434C
:104C500001F00A0125F00A0211438361016270BD6F
:104C600024F003042243EEE700000140F8B590F879
:104C70003C30012B05460C4600F08B80012380F868
:104C80003C3092B90068CB68D1E90012FFF7B4FF5D
:104C90008369A26823F00C038361836913438361F2
:104CA0000020002385F83C30F8BD042A24D1036895
:104CB000186A20F01000D1E90027C96818629869C5
:104CC0001E6A20F4407040EA0720090320F4704077
:104CD00089B21201014302F0A00226F0A0000243B3
:104CE00099611A629A69A16822F440629A619A698C
:104CF00042EA01229A61D3E7082A22D103681E6A98
:104D000026F48076D1E90020C9681E62DF691E6A38
:104D100027F003073843090120F0F000C9B212025E
:104D2000014302F4206226F420600243D9611A6232
:104D3000DA69A16822F00C02DA61DA690A43DA6101
:104D4000AEE70C2A23D10368186A20F48050D1E919
:104D50000027C9681862D8691E6A20F4407040EACA
:104D60000720090320F4704089B21203014302F4C2
:104D7000204226F420400243D9611A62DA69A16810
:104D800022F44062DA61DA6942EA0122D7E7184682
:104D900087E7022088E710B58468114324F47F4434
:104DA00041EA03232343836010BD38B590F83C30BB
:104DB000012B04464FF0020300F08E80012280F8A0
:104DC0003D3080F83C200068836823F47F4323F063
:104DD000770383600B68602B4FD032D8402B64D0B0
:104DE00016D8202B0DD00AD833F0100109D001239A
:104DF00084F83D30002384F83C30104638BD302B19
:104E0000F5D1826822F07002134343F0070328E0D3
:104E1000502BECD14A68CD68016A036A23F0010384
:104E20000362836921F00A0123F0F00343EA0513CA
:104E30000A4383610262836823F0700343F05703DF
:104E40000FE0B3F5805F0DD0B3F5005F0CD0702B91
:104E5000CDD1CB68D1E90121FFF79DFF836843F0F5
:104E6000770383600022C2E7CB68D1E90121FFF715
:104E700092FF836843F48043F3E7036A4D68C9688F
:104E800023F0100303628269036A22F4704223F064
:104E9000A00343EA051342EA013282610362836898
:104EA00023F0700343F06703DBE74A68CD68016ACB
:104EB000036A23F001030362836921F00A0123F0EE
:104EC000F00343EA05130A4383610262836823F017
:104ED000700343F04703C4E71A468EE7036A01F004
:104EE0001F0110B501248C4023EA04030362036A06
:104EF0008A401A43026210BD08B529B990F83E30C5
:104F0000012B18D001202CE004290DD190F83F305E
:104F1000013B18BF0123002BF4D104294FF00203F9
:104F200020D180F83F3009E008290CBF90F84030CC
:104F300090F84130ECE7022380F83E30006801220F
:104F4000FFF7CCFF1C4A904213D01C4B984210D064
:104F5000B0F1804F14D1836803F00703062B26D1EC
:104F6000002008BD08290CBF80F8403080F841308F
:104F7000E4E7436C904243F400434364EBD0E7E73B
:104F80000F4B9842E7D003F580639842E3D003F5D6
:104F900080639842DFD003F578439842DBD003F575
:104FA00070539842D7D0A3F594339842D3D0036876
:104FB00043F001030360D3E7000001400004014017
:104FC00000040040FFF798BF30B590F83C30012B4B
:104FD0004FF0020332D080F83D3003680D685C6802
:104FE0009A6824F070042C435C60154CA3421AD0DC
:104FF000B3F1804F17D0A4F57C44A34213D004F53D
:105000008064A3420FD004F58064A3420BD004F562
:105010007844A34207D004F57054A34203D0A4F50A
:105020009434A34204D1496822F080020A439A6072
:10503000012380F83D30002380F83C30184630BD15
:105040000000014090F83C30012B1FD0CB688A68EB
:1050500023F4407313434A6823F4806313430A68BC
:1050600023F4006313430A6923F4805313434A690A
:1050700023F400531343CA6923F4804313430268A3
:105080005364002380F83C30184670470220704774
:1050900070477047026802F10C0353E8003F23F4A5
:1050A00090730C3242E8003102680029F2D102F11B
:1050B000140353E8003F23F0010302F1140C4CE801
:1050C00000310029F3D1036B012B0BD102F10C034A
:1050D00053E8003F23F0100302F10C0C4CE80031C0
:1050E0000029F3D1202380F83E300023036370476A
:1050F0000268C168136923F440530B4370B5136110
:10510000054683680069D168034368690343E86919
:1051100021F4164121F00C0103430B43D360536982
:10512000A96923F440730B4353611F4B9A4203D088
:1051300003F580639A4223D1FFF7F2F9EB69192155
:10514000B3F5004FD5E90046A0FB01011BD1B21910
:105150004FF000035B41FBF797FD6422B0FBF2F1D7
:1051600002FB1103DB003233B3FBF2F303F007025F
:105170005B0002EB011203F4F8731344A36070BDEB
:10518000FFF7BEF9DAE7B200B30FFBF77DFD64224B
:10519000B0FBF2F102FB11031B013233B3FBF2F35C
:1051A00003EB0113EAE700BF00100140F8B5044625
:1051B0000E4617461D462268136836EA030301D1DE
:1051C000002028E06B1CF7D025B1FDF7E3FCC01BE5
:1051D0008542F0D2226802F10C0353E8003F23F429
:1051E000D0730C3242E8003021680028F2D101F17E
:1051F000140353E8003F23F0010301F1140040E8D9
:105200000032002AF3D1202384F83D3084F83C207A
:1052100084F83E300320F8BD10B5044640B390F842
:105220003D3003F0FF021BB980F83C20FDF772FB14
:105230002268242384F83D30D36823F40053D360DC
:105240002046FFF755FF23681A6922F490421A613D
:105250005A6922F02A025A61DA6842F40052DA608E
:1052600000202023206484F83D3084F83E3010BDB7
:105270000120FCE7F7B5174690F83D200093202A5F
:1052800004460E4649D1002945D0002F43D090F85E
:105290003C20012A41D0012280F83C200025212217
:1052A000056480F83D20FDF775FCA168009BA7848C
:1052B000B1F5805F0246E78403D1216909B935461B
:1052C0000E46002184F83C10E18C89B241B940219E
:1052D0002046FFF76BFF60B9202384F83D3009E0DA
:1052E00080212046CDE90023FFF760FFDDE90023A0
:1052F00010B1032003B0F0BD20684EB935F8021B91
:10530000C1F308014160E18C013989B2E184DBE736
:1053100016F8011BF6E70120ECE70220EAE77047E8
:10532000704708B5806B0023C385C384FFF7F8FF7F
:1053300008BD704790F83E30222B07B541D18168F7
:10534000836A0268B1F5805F3ED1016900293ED1D0
:105350005268C2F3080223F8022B8362C38D013B1B
:105360009BB2C385002B2CD10268D16821F02001AB
:10537000D160D16821F48071D160516921F00101BF
:105380005161202280F83E20026B012A026828D158
:10539000036302F10C0353E8003F23F0100302F112
:1053A0000C0C4CE800310029F3D11368DB0605D55D
:1053B00001911368019353680193019B818DFFF75D
:1053C000B8FF03B05DF804FB39B9016929B9526827
:1053D000D2B21A70836A0133BFE7526802F07F02CB
:1053E000F7E7FCF7DDF9ECE703681A6873B5160711
:1053F000D9685D69044608D1960668D58D0666D5DC
:1054000002B0BDE87040FFF795BF05F0010001F460
:10541000907505435BD0D60705D5CD0542BF236CFB
:1054200043F001032364530704D518B1236C43F000
:1054300002032364960704D518B1236C43F00403D8
:105440002364150707D501F0200303431EBF236C17
:1054500043F008032364236C002B32D0920604D55A
:105460008B0602D52046FFF765FF26687369226C1C
:1054700003F0400302F0080253EA0205204622D05E
:10548000FFF708FE73695E0618D5226802F114035F
:1054900053E8003F23F04003143242E80031002972
:1054A000F3D1A06B50B1724B0365FDF736FE40B1EE
:1054B000A06B036D02B0BDE8704018472046FFF7AF
:1054C0002FFF02B070BDFFF72BFF2564F9E7206BBB
:1054D000012840F09180D50640F18E80C80640F149
:1054E0008B80002201921A6801925A680192019AF7
:1054F0005A6952064CD5A16B0A68526892B2002ACA
:10550000DFD0A08D9042DCD9E285CA69B2F5807FF8
:1055100036D003F10C0252E8002F22F4807203F11E
:105520000C0040E800210029F3D103F1140252E8F5
:10553000002F22F0010203F1140040E800210029AD
:10554000F3D103F1140252E8002F22F0400203F1DC
:10555000140040E800210029F3D1202284F83E20E5
:10556000216303F10C0252E8002F22F0100203F134
:105570000C0040E800210029F3D1A06BFDF78EFD5F
:10558000E38DA18DC91A89B22046FFF7D2FE98E7B4
:10559000E28DE08DA18D80B292B2002891D0891A5F
:1055A00089B200298DD003F10C0252E8002F22F4B9
:1055B000907203F10C0545E800200028F3D103F1B7
:1055C000140252E8002F22F0010203F1140545E80D
:1055D00000200028F3D1202284F83E20206303F12C
:1055E0000C0252E8002F22F0100203F10C0545E8EE
:1055F00000200028F3D1C7E7160628D50D0626D5CA
:1056000094F83D20212A7FF45CAFA168226AB1F5AD
:10561000805F17D12169A9B932F8021BC1F30801D3
:1056200059602262E28C013A92B2E284002A7FF44D
:1056300048AFDA6822F08002DA60DA6842F04002AD
:10564000DA603EE7511C216212785A60EAE75006A0
:105650007FF537AF4A067FF534AFDA6822F04002B3
:10566000DA60202384F83D302046FFF758FE28E713
:1056700023530008C285002382852222036480F818
:105680003E20026980F83C30816203681AB1DA6812
:1056900042F48072DA605A6942F001025A61DA68B3
:1056A00042F02002DA600020704770B490F83E604B
:1056B000202E10D161B15AB190F83C40012C0AD093
:1056C000012480F83C400024046370BCFFF7D2BF83
:1056D000012070BC70470220FBE70000EFF3058358
:1056E0002BB9064B186828B901221A6070476FF071
:1056F000050070474FF0FF30704700BF500C00208E
:1057000010B5EFF305845CB9084B1A68012A0AD179
:10571000074AD47702221A6000F086FD204610BDA9
:105720006FF00500FBE74FF0FF30F8E7500C00206A
:1057300000ED00E0F0B587B00B4600210591EFF3D6
:105740000584CCB9C0B16AB395698D4208BF1825EC
:10575000691E3729AC462AD85168C90727D456692B
:105760006EB1B408D2E9027E116857B1BEF15B0F89
:1057700002D9126902B1E6B9059807B0F0BD8024DC
:10578000F0E7BEF1000FF7D11269002AF4D105AAA3
:10579000CDE900C2A2B200F01AFD01281CBF00230F
:1057A0000593E9E711464FF0180C8024EFE72046F7
:1057B000E3E7CDE901270095224600F0D0FC0590F3
:1057C000DAE710B5EFF3058424B910B100F08AFED2
:1057D000204610BD6FF00500FBE70000034B03609F
:1057E000034B0B6080231360704700BFF40B002055
:1057F000F4090020034B0360034B0B604FF48073EC
:105800001360704754100020540C002000F108036E
:105810004FF0FF32C0E902234360036100230360BD
:10582000704700230361704743684B609A688A6041
:105830009A6851609960036808610133036070479A
:1058400030B50C68631C0AD103695A684A609160DC
:105850008B605960036808610133036030BD00F15B
:105860000802134652681568A542FAD9EDE7D0E957
:10587000011203698A6051605968814208BF5A6009
:10588000002202611A68013A1A601868704710B560
:10589000044601F0F7F9A46B01F014FAB4FA84F0AD
:1058A000400910BDF8B51546026C866B044652B926
:1058B000076847BB806800F04DFFA76005460136CA
:1058C000A6632846F8BD65B9406802F006FA636829
:1058D000226C1344A26863609342F0D32368636030
:1058E000EDE7C06802F0F9F9226CE36851429B1AB7
:1058F0002268E36093423EBFA3685B18E360022D19
:1059000001D116B1013E0025D9E73546D7E7034658
:1059100010B41A6C08466AB1DC68996814448C4269
:1059200028BF1968DC6028BFD960D9685DF8044BCE
:1059300002F0D3B95DF8044B704770B5044601F02E
:10594000A1F994F8455004F124066DB2002D14DC41
:10595000FF2384F8453001F0B5F901F093F994F88C
:10596000445004F110066DB2002D12DCFF2384F8C0
:105970004430BDE8704001F0A5B9636A002BE7D060
:10598000304600F045FE08B100F0CEFE013D6DB29C
:10599000DCE72369002BE9D0304600F039FE08B17E
:1059A00000F0C2FE013D6DB2DEE738B50D4604469B
:1059B00040B94FF0500383F31188BFF36F8FBFF3EB
:1059C0004F8FFEE701F05EF9D4E90F312268626083
:1059D0004B43D0185B1A1A44A060FF230020A06339
:1059E000E26084F8443084F84530A5B9236973B186
:1059F00004F1100000F00CFE48B14FF0E0234FF02E
:105A00008052C3F8042DBFF34F8FBFF36F8F01F0A7
:105A100059F9012038BD04F11000FFF7F7FE04F139
:105A20002400FFF7F3FEF2E713B51C4640B94FF030
:105A3000500383F31188BFF36F8FBFF34F8FFEE7DF
:105A400043B94FF0500383F31188BFF36F8FBFF357
:105A50004F8FFEE74AB191B94FF0500383F311889D
:105A6000BFF36F8FBFF34F8FFEE741B14FF050038D
:105A700083F31188BFF36F8FBFF34F8FFEE750237F
:105A80000193019B502B08D04FF0500383F31188F2
:105A9000BFF36F8FBFF34F8FFEE7002908BF224689
:105AA000019B22600123C4E90F0184F846301946A6
:105AB0002046FFF77AFF9DF8103084F84C302046DE
:105AC00002B010BD2DE9F04385B0884601921F4613
:105AD000044640B94FF0500383F31188BFF36F8F32
